{
	"contracts/exfile2.sol": {
		"BlindAuction": {
			"abi": [
				{
					"inputs": [],
					"stateMutability": "nonpayable",
					"type": "constructor"
				},
				{
					"inputs": [],
					"name": "auctionEnd",
					"outputs": [],
					"stateMutability": "nonpayable",
					"type": "function"
				},
				{
					"inputs": [
						{
							"internalType": "bytes32",
							"name": "blindBid",
							"type": "bytes32"
						}
					],
					"name": "bid",
					"outputs": [],
					"stateMutability": "payable",
					"type": "function"
				},
				{
					"inputs": [
						{
							"internalType": "enum BlindAuction.Phase",
							"name": "x",
							"type": "uint8"
						}
					],
					"name": "changeState",
					"outputs": [],
					"stateMutability": "nonpayable",
					"type": "function"
				},
				{
					"inputs": [],
					"name": "highestBid",
					"outputs": [
						{
							"internalType": "uint256",
							"name": "",
							"type": "uint256"
						}
					],
					"stateMutability": "view",
					"type": "function"
				},
				{
					"inputs": [],
					"name": "highestBidder",
					"outputs": [
						{
							"internalType": "address",
							"name": "",
							"type": "address"
						}
					],
					"stateMutability": "view",
					"type": "function"
				},
				{
					"inputs": [
						{
							"internalType": "uint256",
							"name": "value",
							"type": "uint256"
						},
						{
							"internalType": "bytes32",
							"name": "secret",
							"type": "bytes32"
						}
					],
					"name": "reveal",
					"outputs": [],
					"stateMutability": "nonpayable",
					"type": "function"
				},
				{
					"inputs": [],
					"name": "state",
					"outputs": [
						{
							"internalType": "enum BlindAuction.Phase",
							"name": "",
							"type": "uint8"
						}
					],
					"stateMutability": "view",
					"type": "function"
				},
				{
					"inputs": [],
					"name": "withdraw",
					"outputs": [],
					"stateMutability": "nonpayable",
					"type": "function"
				}
			],
			"devdoc": {
				"kind": "dev",
				"methods": {},
				"version": 1
			},
			"evm": {
				"assembly": "    /* \"contracts/exfile2.sol\":27:2319  contract BlindAuction {\r... */\n  mstore(0x40, 0x80)\n    /* \"contracts/exfile2.sol\":220:230  Phase.Init */\n  0x00\n    /* \"contracts/exfile2.sol\":199:230  Phase public state = Phase.Init */\n  dup1\n  exp(0x0100, 0x00)\n  dup2\n  sload\n  dup2\n  0xff\n  mul\n  not\n  and\n  swap1\n  dup4\n  0x03\n  dup2\n  gt\n  iszero\n  tag_1\n  jumpi\n  tag_2\n  tag_3\n  jump\t// in\ntag_2:\ntag_1:\n  mul\n  or\n  swap1\n  sstore\n  pop\n    /* \"contracts/exfile2.sol\":368:369  0 */\n  0x00\n    /* \"contracts/exfile2.sol\":343:369  uint public highestBid = 0 */\n  0x03\n  sstore\n    /* \"contracts/exfile2.sol\":625:734  constructor() public {    \r... */\n  callvalue\n  dup1\n  iszero\n  tag_4\n  jumpi\n  0x00\n  dup1\n  revert\ntag_4:\n  pop\n    /* \"contracts/exfile2.sol\":683:693  msg.sender */\n  caller\n    /* \"contracts/exfile2.sol\":661:672  beneficiary */\n  0x00\n  0x01\n    /* \"contracts/exfile2.sol\":661:694  beneficiary = payable(msg.sender) */\n  0x0100\n  exp\n  dup2\n  sload\n  dup2\n  0xffffffffffffffffffffffffffffffffffffffff\n  mul\n  not\n  and\n  swap1\n  dup4\n  0xffffffffffffffffffffffffffffffffffffffff\n  and\n  mul\n  or\n  swap1\n  sstore\n  pop\n    /* \"contracts/exfile2.sol\":713:726  Phase.Bidding */\n  0x01\n    /* \"contracts/exfile2.sol\":705:710  state */\n  0x00\n  dup1\n    /* \"contracts/exfile2.sol\":705:726  state = Phase.Bidding */\n  0x0100\n  exp\n  dup2\n  sload\n  dup2\n  0xff\n  mul\n  not\n  and\n  swap1\n  dup4\n  0x03\n  dup2\n  gt\n  iszero\n  tag_7\n  jumpi\n  tag_8\n  tag_3\n  jump\t// in\ntag_8:\ntag_7:\n  mul\n  or\n  swap1\n  sstore\n  pop\n    /* \"contracts/exfile2.sol\":27:2319  contract BlindAuction {\r... */\n  jump(tag_9)\n    /* \"#utility.yul\":7:187   */\ntag_3:\n    /* \"#utility.yul\":55:132   */\n  0x4e487b7100000000000000000000000000000000000000000000000000000000\n    /* \"#utility.yul\":52:53   */\n  0x00\n    /* \"#utility.yul\":45:133   */\n  mstore\n    /* \"#utility.yul\":152:156   */\n  0x21\n    /* \"#utility.yul\":149:150   */\n  0x04\n    /* \"#utility.yul\":142:157   */\n  mstore\n    /* \"#utility.yul\":176:180   */\n  0x24\n    /* \"#utility.yul\":173:174   */\n  0x00\n    /* \"#utility.yul\":166:181   */\n  revert\n    /* \"contracts/exfile2.sol\":27:2319  contract BlindAuction {\r... */\ntag_9:\n  dataSize(sub_0)\n  dup1\n  dataOffset(sub_0)\n  0x00\n  codecopy\n  0x00\n  return\nstop\n\nsub_0: assembly {\n        /* \"contracts/exfile2.sol\":27:2319  contract BlindAuction {\r... */\n      mstore(0x40, 0x80)\n      jumpi(tag_1, lt(calldatasize, 0x04))\n      shr(0xe0, calldataload(0x00))\n      dup1\n      0x91f90157\n      gt\n      tag_10\n      jumpi\n      dup1\n      0x91f90157\n      eq\n      tag_6\n      jumpi\n      dup1\n      0x957bb1e0\n      eq\n      tag_7\n      jumpi\n      dup1\n      0xc19d93fb\n      eq\n      tag_8\n      jumpi\n      dup1\n      0xd57bde79\n      eq\n      tag_9\n      jumpi\n      jump(tag_1)\n    tag_10:\n      dup1\n      0x268f1153\n      eq\n      tag_2\n      jumpi\n      dup1\n      0x2a24f46c\n      eq\n      tag_3\n      jumpi\n      dup1\n      0x3ccfd60b\n      eq\n      tag_4\n      jumpi\n      dup1\n      0x4036778f\n      eq\n      tag_5\n      jumpi\n    tag_1:\n      0x00\n      dup1\n      revert\n        /* \"contracts/exfile2.sol\":742:856  function changeState(Phase x) public onlyBeneficiary {\r... */\n    tag_2:\n      callvalue\n      dup1\n      iszero\n      tag_11\n      jumpi\n      0x00\n      dup1\n      revert\n    tag_11:\n      pop\n      tag_12\n      0x04\n      dup1\n      calldatasize\n      sub\n      dup2\n      add\n      swap1\n      tag_13\n      swap2\n      swap1\n      tag_14\n      jump\t// in\n    tag_13:\n      tag_15\n      jump\t// in\n    tag_12:\n      stop\n        /* \"contracts/exfile2.sol\":2213:2316  function auctionEnd() public validPhase(Phase.Done) {\r... */\n    tag_3:\n      callvalue\n      dup1\n      iszero\n      tag_16\n      jumpi\n      0x00\n      dup1\n      revert\n    tag_16:\n      pop\n      tag_17\n      tag_18\n      jump\t// in\n    tag_17:\n      stop\n        /* \"contracts/exfile2.sol\":1993:2201  function withdraw() public {   \r... */\n    tag_4:\n      callvalue\n      dup1\n      iszero\n      tag_19\n      jumpi\n      0x00\n      dup1\n      revert\n    tag_19:\n      pop\n      tag_20\n      tag_21\n      jump\t// in\n    tag_20:\n      stop\n        /* \"contracts/exfile2.sol\":1076:1620  function reveal(uint value, bytes32 secret) public validPhase(Phase.Reveal) {\r... */\n    tag_5:\n      callvalue\n      dup1\n      iszero\n      tag_22\n      jumpi\n      0x00\n      dup1\n      revert\n    tag_22:\n      pop\n      tag_23\n      0x04\n      dup1\n      calldatasize\n      sub\n      dup2\n      add\n      swap1\n      tag_24\n      swap2\n      swap1\n      tag_25\n      jump\t// in\n    tag_24:\n      tag_26\n      jump\t// in\n    tag_23:\n      stop\n        /* \"contracts/exfile2.sol\":308:336  address public highestBidder */\n    tag_6:\n      callvalue\n      dup1\n      iszero\n      tag_27\n      jumpi\n      0x00\n      dup1\n      revert\n    tag_27:\n      pop\n      tag_28\n      tag_29\n      jump\t// in\n    tag_28:\n      mload(0x40)\n      tag_30\n      swap2\n      swap1\n      tag_31\n      jump\t// in\n    tag_30:\n      mload(0x40)\n      dup1\n      swap2\n      sub\n      swap1\n      return\n        /* \"contracts/exfile2.sol\":868:1064  function bid(bytes32 blindBid) public payable validPhase(Phase.Bidding) {  \r... */\n    tag_7:\n      tag_32\n      0x04\n      dup1\n      calldatasize\n      sub\n      dup2\n      add\n      swap1\n      tag_33\n      swap2\n      swap1\n      tag_34\n      jump\t// in\n    tag_33:\n      tag_35\n      jump\t// in\n    tag_32:\n      stop\n        /* \"contracts/exfile2.sol\":199:230  Phase public state = Phase.Init */\n    tag_8:\n      callvalue\n      dup1\n      iszero\n      tag_36\n      jumpi\n      0x00\n      dup1\n      revert\n    tag_36:\n      pop\n      tag_37\n      tag_38\n      jump\t// in\n    tag_37:\n      mload(0x40)\n      tag_39\n      swap2\n      swap1\n      tag_40\n      jump\t// in\n    tag_39:\n      mload(0x40)\n      dup1\n      swap2\n      sub\n      swap1\n      return\n        /* \"contracts/exfile2.sol\":343:369  uint public highestBid = 0 */\n    tag_9:\n      callvalue\n      dup1\n      iszero\n      tag_41\n      jumpi\n      0x00\n      dup1\n      revert\n    tag_41:\n      pop\n      tag_42\n      tag_43\n      jump\t// in\n    tag_42:\n      mload(0x40)\n      tag_44\n      swap2\n      swap1\n      tag_45\n      jump\t// in\n    tag_44:\n      mload(0x40)\n      dup1\n      swap2\n      sub\n      swap1\n      return\n        /* \"contracts/exfile2.sol\":742:856  function changeState(Phase x) public onlyBeneficiary {\r... */\n    tag_15:\n        /* \"contracts/exfile2.sol\":585:596  beneficiary */\n      0x00\n      0x01\n      swap1\n      sload\n      swap1\n      0x0100\n      exp\n      swap1\n      div\n      0xffffffffffffffffffffffffffffffffffffffff\n      and\n        /* \"contracts/exfile2.sol\":571:596  msg.sender == beneficiary */\n      0xffffffffffffffffffffffffffffffffffffffff\n      and\n        /* \"contracts/exfile2.sol\":571:581  msg.sender */\n      caller\n        /* \"contracts/exfile2.sol\":571:596  msg.sender == beneficiary */\n      0xffffffffffffffffffffffffffffffffffffffff\n      and\n      eq\n        /* \"contracts/exfile2.sol\":563:597  require(msg.sender == beneficiary) */\n      tag_47\n      jumpi\n      0x00\n      dup1\n      revert\n    tag_47:\n        /* \"contracts/exfile2.sol\":813:818  state */\n      0x00\n      dup1\n      sload\n      swap1\n      0x0100\n      exp\n      swap1\n      div\n      0xff\n      and\n        /* \"contracts/exfile2.sol\":809:818  x < state */\n      0x03\n      dup2\n      gt\n      iszero\n      tag_49\n      jumpi\n      tag_50\n      tag_51\n      jump\t// in\n    tag_50:\n    tag_49:\n        /* \"contracts/exfile2.sol\":809:810  x */\n      dup2\n        /* \"contracts/exfile2.sol\":809:818  x < state */\n      0x03\n      dup2\n      gt\n      iszero\n      tag_52\n      jumpi\n      tag_53\n      tag_51\n      jump\t// in\n    tag_53:\n    tag_52:\n      lt\n        /* \"contracts/exfile2.sol\":806:828  if(x < state) revert() */\n      iszero\n      tag_54\n      jumpi\n        /* \"contracts/exfile2.sol\":820:828  revert() */\n      0x00\n      dup1\n      revert\n        /* \"contracts/exfile2.sol\":806:828  if(x < state) revert() */\n    tag_54:\n        /* \"contracts/exfile2.sol\":847:848  x */\n      dup1\n        /* \"contracts/exfile2.sol\":839:844  state */\n      0x00\n      dup1\n        /* \"contracts/exfile2.sol\":839:848  state = x */\n      0x0100\n      exp\n      dup2\n      sload\n      dup2\n      0xff\n      mul\n      not\n      and\n      swap1\n      dup4\n      0x03\n      dup2\n      gt\n      iszero\n      tag_55\n      jumpi\n      tag_56\n      tag_51\n      jump\t// in\n    tag_56:\n    tag_55:\n      mul\n      or\n      swap1\n      sstore\n      pop\n        /* \"contracts/exfile2.sol\":742:856  function changeState(Phase x) public onlyBeneficiary {\r... */\n      pop\n      jump\t// out\n        /* \"contracts/exfile2.sol\":2213:2316  function auctionEnd() public validPhase(Phase.Done) {\r... */\n    tag_18:\n        /* \"contracts/exfile2.sol\":2253:2263  Phase.Done */\n      0x03\n        /* \"contracts/exfile2.sol\":488:496  reqPhase */\n      dup1\n        /* \"contracts/exfile2.sol\":479:496  state == reqPhase */\n      0x03\n      dup2\n      gt\n      iszero\n      tag_58\n      jumpi\n      tag_59\n      tag_51\n      jump\t// in\n    tag_59:\n    tag_58:\n        /* \"contracts/exfile2.sol\":479:484  state */\n      0x00\n      dup1\n      sload\n      swap1\n      0x0100\n      exp\n      swap1\n      div\n      0xff\n      and\n        /* \"contracts/exfile2.sol\":479:496  state == reqPhase */\n      0x03\n      dup2\n      gt\n      iszero\n      tag_60\n      jumpi\n      tag_61\n      tag_51\n      jump\t// in\n    tag_61:\n    tag_60:\n      eq\n        /* \"contracts/exfile2.sol\":471:497  require(state == reqPhase) */\n      tag_62\n      jumpi\n      0x00\n      dup1\n      revert\n    tag_62:\n        /* \"contracts/exfile2.sol\":2276:2287  beneficiary */\n      0x00\n      0x01\n      swap1\n      sload\n      swap1\n      0x0100\n      exp\n      swap1\n      div\n      0xffffffffffffffffffffffffffffffffffffffff\n      and\n        /* \"contracts/exfile2.sol\":2276:2296  beneficiary.transfer */\n      0xffffffffffffffffffffffffffffffffffffffff\n      and\n        /* \"contracts/exfile2.sol\":2276:2308  beneficiary.transfer(highestBid) */\n      0x08fc\n        /* \"contracts/exfile2.sol\":2297:2307  highestBid */\n      sload(0x03)\n        /* \"contracts/exfile2.sol\":2276:2308  beneficiary.transfer(highestBid) */\n      swap1\n      dup2\n      iszero\n      mul\n      swap1\n      mload(0x40)\n      0x00\n      mload(0x40)\n      dup1\n      dup4\n      sub\n      dup2\n      dup6\n      dup9\n      dup9\n      call\n      swap4\n      pop\n      pop\n      pop\n      pop\n      iszero\n      dup1\n      iszero\n      tag_65\n      jumpi\n      returndatasize\n      0x00\n      dup1\n      returndatacopy\n      revert(0x00, returndatasize)\n    tag_65:\n      pop\n        /* \"contracts/exfile2.sol\":2213:2316  function auctionEnd() public validPhase(Phase.Done) {\r... */\n      pop\n      jump\t// out\n        /* \"contracts/exfile2.sol\":1993:2201  function withdraw() public {   \r... */\n    tag_21:\n        /* \"contracts/exfile2.sol\":2034:2045  uint amount */\n      0x00\n        /* \"contracts/exfile2.sol\":2048:2062  depositReturns */\n      0x04\n        /* \"contracts/exfile2.sol\":2048:2074  depositReturns[msg.sender] */\n      0x00\n        /* \"contracts/exfile2.sol\":2063:2073  msg.sender */\n      caller\n        /* \"contracts/exfile2.sol\":2048:2074  depositReturns[msg.sender] */\n      0xffffffffffffffffffffffffffffffffffffffff\n      and\n      0xffffffffffffffffffffffffffffffffffffffff\n      and\n      dup2\n      mstore\n      0x20\n      add\n      swap1\n      dup2\n      mstore\n      0x20\n      add\n      0x00\n      keccak256\n      sload\n        /* \"contracts/exfile2.sol\":2034:2074  uint amount = depositReturns[msg.sender] */\n      swap1\n      pop\n        /* \"contracts/exfile2.sol\":2103:2104  0 */\n      0x00\n        /* \"contracts/exfile2.sol\":2094:2100  amount */\n      dup2\n        /* \"contracts/exfile2.sol\":2094:2104  amount > 0 */\n      gt\n        /* \"contracts/exfile2.sol\":2085:2105  require (amount > 0) */\n      tag_67\n      jumpi\n      0x00\n      dup1\n      revert\n    tag_67:\n        /* \"contracts/exfile2.sol\":2145:2146  0 */\n      0x00\n        /* \"contracts/exfile2.sol\":2116:2130  depositReturns */\n      0x04\n        /* \"contracts/exfile2.sol\":2116:2142  depositReturns[msg.sender] */\n      0x00\n        /* \"contracts/exfile2.sol\":2131:2141  msg.sender */\n      caller\n        /* \"contracts/exfile2.sol\":2116:2142  depositReturns[msg.sender] */\n      0xffffffffffffffffffffffffffffffffffffffff\n      and\n      0xffffffffffffffffffffffffffffffffffffffff\n      and\n      dup2\n      mstore\n      0x20\n      add\n      swap1\n      dup2\n      mstore\n      0x20\n      add\n      0x00\n      keccak256\n        /* \"contracts/exfile2.sol\":2116:2146  depositReturns[msg.sender] = 0 */\n      dup2\n      swap1\n      sstore\n      pop\n        /* \"contracts/exfile2.sol\":2165:2175  msg.sender */\n      caller\n        /* \"contracts/exfile2.sol\":2157:2185  payable(msg.sender).transfer */\n      0xffffffffffffffffffffffffffffffffffffffff\n      and\n        /* \"contracts/exfile2.sol\":2157:2193  payable(msg.sender).transfer(amount) */\n      0x08fc\n        /* \"contracts/exfile2.sol\":2186:2192  amount */\n      dup3\n        /* \"contracts/exfile2.sol\":2157:2193  payable(msg.sender).transfer(amount) */\n      swap1\n      dup2\n      iszero\n      mul\n      swap1\n      mload(0x40)\n      0x00\n      mload(0x40)\n      dup1\n      dup4\n      sub\n      dup2\n      dup6\n      dup9\n      dup9\n      call\n      swap4\n      pop\n      pop\n      pop\n      pop\n      iszero\n      dup1\n      iszero\n      tag_69\n      jumpi\n      returndatasize\n      0x00\n      dup1\n      returndatacopy\n      revert(0x00, returndatasize)\n    tag_69:\n      pop\n        /* \"contracts/exfile2.sol\":2020:2201  {   \r... */\n      pop\n        /* \"contracts/exfile2.sol\":1993:2201  function withdraw() public {   \r... */\n      jump\t// out\n        /* \"contracts/exfile2.sol\":1076:1620  function reveal(uint value, bytes32 secret) public validPhase(Phase.Reveal) {\r... */\n    tag_26:\n        /* \"contracts/exfile2.sol\":1138:1150  Phase.Reveal */\n      0x02\n        /* \"contracts/exfile2.sol\":488:496  reqPhase */\n      dup1\n        /* \"contracts/exfile2.sol\":479:496  state == reqPhase */\n      0x03\n      dup2\n      gt\n      iszero\n      tag_71\n      jumpi\n      tag_72\n      tag_51\n      jump\t// in\n    tag_72:\n    tag_71:\n        /* \"contracts/exfile2.sol\":479:484  state */\n      0x00\n      dup1\n      sload\n      swap1\n      0x0100\n      exp\n      swap1\n      div\n      0xff\n      and\n        /* \"contracts/exfile2.sol\":479:496  state == reqPhase */\n      0x03\n      dup2\n      gt\n      iszero\n      tag_73\n      jumpi\n      tag_74\n      tag_51\n      jump\t// in\n    tag_74:\n    tag_73:\n      eq\n        /* \"contracts/exfile2.sol\":471:497  require(state == reqPhase) */\n      tag_75\n      jumpi\n      0x00\n      dup1\n      revert\n    tag_75:\n        /* \"contracts/exfile2.sol\":1163:1174  uint refund */\n      0x00\n        /* \"contracts/exfile2.sol\":1193:1215  Bid storage bidToCheck */\n      dup1\n        /* \"contracts/exfile2.sol\":1218:1222  bids */\n      0x01\n        /* \"contracts/exfile2.sol\":1218:1234  bids[msg.sender] */\n      0x00\n        /* \"contracts/exfile2.sol\":1223:1233  msg.sender */\n      caller\n        /* \"contracts/exfile2.sol\":1218:1234  bids[msg.sender] */\n      0xffffffffffffffffffffffffffffffffffffffff\n      and\n      0xffffffffffffffffffffffffffffffffffffffff\n      and\n      dup2\n      mstore\n      0x20\n      add\n      swap1\n      dup2\n      mstore\n      0x20\n      add\n      0x00\n      keccak256\n        /* \"contracts/exfile2.sol\":1193:1234  Bid storage bidToCheck = bids[msg.sender] */\n      swap1\n      pop\n        /* \"contracts/exfile2.sol\":1305:1310  value */\n      dup5\n        /* \"contracts/exfile2.sol\":1312:1318  secret */\n      dup5\n        /* \"contracts/exfile2.sol\":1288:1319  abi.encodePacked(value, secret) */\n      add(0x20, mload(0x40))\n      tag_77\n      swap3\n      swap2\n      swap1\n      tag_78\n      jump\t// in\n    tag_77:\n      mload(0x40)\n      0x20\n      dup2\n      dup4\n      sub\n      sub\n      dup2\n      mstore\n      swap1\n      0x40\n      mstore\n        /* \"contracts/exfile2.sol\":1278:1320  keccak256(abi.encodePacked(value, secret)) */\n      dup1\n      mload\n      swap1\n      0x20\n      add\n      keccak256\n        /* \"contracts/exfile2.sol\":1253:1263  bidToCheck */\n      dup2\n        /* \"contracts/exfile2.sol\":1253:1274  bidToCheck.blindedBid */\n      0x00\n      add\n      sload\n        /* \"contracts/exfile2.sol\":1253:1320  bidToCheck.blindedBid == keccak256(abi.encodePacked(value, secret)) */\n      eq\n        /* \"contracts/exfile2.sol\":1249:1552  if (bidToCheck.blindedBid == keccak256(abi.encodePacked(value, secret))) {\r... */\n      iszero\n      tag_79\n      jumpi\n        /* \"contracts/exfile2.sol\":1351:1361  bidToCheck */\n      dup1\n        /* \"contracts/exfile2.sol\":1351:1369  bidToCheck.deposit */\n      0x01\n      add\n      sload\n        /* \"contracts/exfile2.sol\":1341:1369  refund += bidToCheck.deposit */\n      dup3\n      tag_80\n      swap2\n      swap1\n      tag_81\n      jump\t// in\n    tag_80:\n      swap2\n      pop\n        /* \"contracts/exfile2.sol\":1414:1419  value */\n      dup5\n        /* \"contracts/exfile2.sol\":1392:1402  bidToCheck */\n      dup2\n        /* \"contracts/exfile2.sol\":1392:1410  bidToCheck.deposit */\n      0x01\n      add\n      sload\n        /* \"contracts/exfile2.sol\":1392:1419  bidToCheck.deposit >= value */\n      lt\n        /* \"contracts/exfile2.sol\":1388:1537  if (bidToCheck.deposit >= value) {\r... */\n      tag_82\n      jumpi\n        /* \"contracts/exfile2.sol\":1448:1475  placeBid(msg.sender, value) */\n      tag_83\n        /* \"contracts/exfile2.sol\":1457:1467  msg.sender */\n      caller\n        /* \"contracts/exfile2.sol\":1469:1474  value */\n      dup7\n        /* \"contracts/exfile2.sol\":1448:1456  placeBid */\n      tag_84\n        /* \"contracts/exfile2.sol\":1448:1475  placeBid(msg.sender, value) */\n      jump\t// in\n    tag_83:\n        /* \"contracts/exfile2.sol\":1444:1517  if (placeBid(msg.sender, value))\r... */\n      iszero\n      tag_85\n      jumpi\n        /* \"contracts/exfile2.sol\":1512:1517  value */\n      dup5\n        /* \"contracts/exfile2.sol\":1502:1517  refund -= value */\n      dup3\n      tag_86\n      swap2\n      swap1\n      tag_87\n      jump\t// in\n    tag_86:\n      swap2\n      pop\n        /* \"contracts/exfile2.sol\":1444:1517  if (placeBid(msg.sender, value))\r... */\n    tag_85:\n        /* \"contracts/exfile2.sol\":1388:1537  if (bidToCheck.deposit >= value) {\r... */\n    tag_82:\n        /* \"contracts/exfile2.sol\":1249:1552  if (bidToCheck.blindedBid == keccak256(abi.encodePacked(value, secret))) {\r... */\n    tag_79:\n        /* \"contracts/exfile2.sol\":1584:1594  msg.sender */\n      caller\n        /* \"contracts/exfile2.sol\":1576:1604  payable(msg.sender).transfer */\n      0xffffffffffffffffffffffffffffffffffffffff\n      and\n        /* \"contracts/exfile2.sol\":1576:1612  payable(msg.sender).transfer(refund) */\n      0x08fc\n        /* \"contracts/exfile2.sol\":1605:1611  refund */\n      dup4\n        /* \"contracts/exfile2.sol\":1576:1612  payable(msg.sender).transfer(refund) */\n      swap1\n      dup2\n      iszero\n      mul\n      swap1\n      mload(0x40)\n      0x00\n      mload(0x40)\n      dup1\n      dup4\n      sub\n      dup2\n      dup6\n      dup9\n      dup9\n      call\n      swap4\n      pop\n      pop\n      pop\n      pop\n      iszero\n      dup1\n      iszero\n      tag_89\n      jumpi\n      returndatasize\n      0x00\n      dup1\n      returndatacopy\n      revert(0x00, returndatasize)\n    tag_89:\n      pop\n        /* \"contracts/exfile2.sol\":1152:1620  {\r... */\n      pop\n      pop\n        /* \"contracts/exfile2.sol\":1076:1620  function reveal(uint value, bytes32 secret) public validPhase(Phase.Reveal) {\r... */\n      pop\n      pop\n      pop\n      jump\t// out\n        /* \"contracts/exfile2.sol\":308:336  address public highestBidder */\n    tag_29:\n      0x02\n      0x00\n      swap1\n      sload\n      swap1\n      0x0100\n      exp\n      swap1\n      div\n      0xffffffffffffffffffffffffffffffffffffffff\n      and\n      dup2\n      jump\t// out\n        /* \"contracts/exfile2.sol\":868:1064  function bid(bytes32 blindBid) public payable validPhase(Phase.Bidding) {  \r... */\n    tag_35:\n        /* \"contracts/exfile2.sol\":925:938  Phase.Bidding */\n      0x01\n        /* \"contracts/exfile2.sol\":488:496  reqPhase */\n      dup1\n        /* \"contracts/exfile2.sol\":479:496  state == reqPhase */\n      0x03\n      dup2\n      gt\n      iszero\n      tag_91\n      jumpi\n      tag_92\n      tag_51\n      jump\t// in\n    tag_92:\n    tag_91:\n        /* \"contracts/exfile2.sol\":479:484  state */\n      0x00\n      dup1\n      sload\n      swap1\n      0x0100\n      exp\n      swap1\n      div\n      0xff\n      and\n        /* \"contracts/exfile2.sol\":479:496  state == reqPhase */\n      0x03\n      dup2\n      gt\n      iszero\n      tag_93\n      jumpi\n      tag_94\n      tag_51\n      jump\t// in\n    tag_94:\n    tag_93:\n      eq\n        /* \"contracts/exfile2.sol\":471:497  require(state == reqPhase) */\n      tag_95\n      jumpi\n      0x00\n      dup1\n      revert\n    tag_95:\n        /* \"contracts/exfile2.sol\":972:1056  Bid({\r... */\n      mload(0x40)\n      dup1\n      0x40\n      add\n      0x40\n      mstore\n      dup1\n        /* \"contracts/exfile2.sol\":1003:1011  blindBid */\n      dup4\n        /* \"contracts/exfile2.sol\":972:1056  Bid({\r... */\n      dup2\n      mstore\n      0x20\n      add\n        /* \"contracts/exfile2.sol\":1035:1044  msg.value */\n      callvalue\n        /* \"contracts/exfile2.sol\":972:1056  Bid({\r... */\n      dup2\n      mstore\n      pop\n        /* \"contracts/exfile2.sol\":953:957  bids */\n      0x01\n        /* \"contracts/exfile2.sol\":953:969  bids[msg.sender] */\n      0x00\n        /* \"contracts/exfile2.sol\":958:968  msg.sender */\n      caller\n        /* \"contracts/exfile2.sol\":953:969  bids[msg.sender] */\n      0xffffffffffffffffffffffffffffffffffffffff\n      and\n      0xffffffffffffffffffffffffffffffffffffffff\n      and\n      dup2\n      mstore\n      0x20\n      add\n      swap1\n      dup2\n      mstore\n      0x20\n      add\n      0x00\n      keccak256\n        /* \"contracts/exfile2.sol\":953:1056  bids[msg.sender] = Bid({\r... */\n      0x00\n      dup3\n      add\n      mload\n      dup2\n      0x00\n      add\n      sstore\n      0x20\n      dup3\n      add\n      mload\n      dup2\n      0x01\n      add\n      sstore\n      swap1\n      pop\n      pop\n        /* \"contracts/exfile2.sol\":868:1064  function bid(bytes32 blindBid) public payable validPhase(Phase.Bidding) {  \r... */\n      pop\n      pop\n      jump\t// out\n        /* \"contracts/exfile2.sol\":199:230  Phase public state = Phase.Init */\n    tag_38:\n      0x00\n      dup1\n      sload\n      swap1\n      0x0100\n      exp\n      swap1\n      div\n      0xff\n      and\n      dup2\n      jump\t// out\n        /* \"contracts/exfile2.sol\":343:369  uint public highestBid = 0 */\n    tag_43:\n      sload(0x03)\n      dup2\n      jump\t// out\n        /* \"contracts/exfile2.sol\":1628:1985  function placeBid(address bidder, uint value) internal returns (bool success) {\r... */\n    tag_84:\n        /* \"contracts/exfile2.sol\":1692:1704  bool success */\n      0x00\n        /* \"contracts/exfile2.sol\":1730:1740  highestBid */\n      sload(0x03)\n        /* \"contracts/exfile2.sol\":1721:1726  value */\n      dup3\n        /* \"contracts/exfile2.sol\":1721:1740  value <= highestBid */\n      gt\n        /* \"contracts/exfile2.sol\":1717:1781  if (value <= highestBid) {\r... */\n      tag_98\n      jumpi\n        /* \"contracts/exfile2.sol\":1764:1769  false */\n      0x00\n        /* \"contracts/exfile2.sol\":1757:1769  return false */\n      swap1\n      pop\n      jump(tag_97)\n        /* \"contracts/exfile2.sol\":1717:1781  if (value <= highestBid) {\r... */\n    tag_98:\n        /* \"contracts/exfile2.sol\":1820:1821  0 */\n      0x00\n        /* \"contracts/exfile2.sol\":1795:1822  highestBidder != address(0) */\n      0xffffffffffffffffffffffffffffffffffffffff\n      and\n        /* \"contracts/exfile2.sol\":1795:1808  highestBidder */\n      0x02\n      0x00\n      swap1\n      sload\n      swap1\n      0x0100\n      exp\n      swap1\n      div\n      0xffffffffffffffffffffffffffffffffffffffff\n      and\n        /* \"contracts/exfile2.sol\":1795:1822  highestBidder != address(0) */\n      0xffffffffffffffffffffffffffffffffffffffff\n      and\n      eq\n        /* \"contracts/exfile2.sol\":1791:1894  if (highestBidder != address(0)) {\r... */\n      tag_99\n      jumpi\n        /* \"contracts/exfile2.sol\":1872:1882  highestBid */\n      sload(0x03)\n        /* \"contracts/exfile2.sol\":1839:1853  depositReturns */\n      0x04\n        /* \"contracts/exfile2.sol\":1839:1868  depositReturns[highestBidder] */\n      0x00\n        /* \"contracts/exfile2.sol\":1854:1867  highestBidder */\n      0x02\n      0x00\n      swap1\n      sload\n      swap1\n      0x0100\n      exp\n      swap1\n      div\n      0xffffffffffffffffffffffffffffffffffffffff\n      and\n        /* \"contracts/exfile2.sol\":1839:1868  depositReturns[highestBidder] */\n      0xffffffffffffffffffffffffffffffffffffffff\n      and\n      0xffffffffffffffffffffffffffffffffffffffff\n      and\n      dup2\n      mstore\n      0x20\n      add\n      swap1\n      dup2\n      mstore\n      0x20\n      add\n      0x00\n      keccak256\n      0x00\n        /* \"contracts/exfile2.sol\":1839:1882  depositReturns[highestBidder] += highestBid */\n      dup3\n      dup3\n      sload\n      tag_100\n      swap2\n      swap1\n      tag_81\n      jump\t// in\n    tag_100:\n      swap3\n      pop\n      pop\n      dup2\n      swap1\n      sstore\n      pop\n        /* \"contracts/exfile2.sol\":1791:1894  if (highestBidder != address(0)) {\r... */\n    tag_99:\n        /* \"contracts/exfile2.sol\":1917:1922  value */\n      dup2\n        /* \"contracts/exfile2.sol\":1904:1914  highestBid */\n      0x03\n        /* \"contracts/exfile2.sol\":1904:1922  highestBid = value */\n      dup2\n      swap1\n      sstore\n      pop\n        /* \"contracts/exfile2.sol\":1949:1955  bidder */\n      dup3\n        /* \"contracts/exfile2.sol\":1933:1946  highestBidder */\n      0x02\n      0x00\n        /* \"contracts/exfile2.sol\":1933:1955  highestBidder = bidder */\n      0x0100\n      exp\n      dup2\n      sload\n      dup2\n      0xffffffffffffffffffffffffffffffffffffffff\n      mul\n      not\n      and\n      swap1\n      dup4\n      0xffffffffffffffffffffffffffffffffffffffff\n      and\n      mul\n      or\n      swap1\n      sstore\n      pop\n        /* \"contracts/exfile2.sol\":1973:1977  true */\n      0x01\n        /* \"contracts/exfile2.sol\":1966:1977  return true */\n      swap1\n      pop\n        /* \"contracts/exfile2.sol\":1628:1985  function placeBid(address bidder, uint value) internal returns (bool success) {\r... */\n    tag_97:\n      swap3\n      swap2\n      pop\n      pop\n      jump\t// out\n        /* \"#utility.yul\":7:146   */\n    tag_102:\n        /* \"#utility.yul\":53:58   */\n      0x00\n        /* \"#utility.yul\":91:97   */\n      dup2\n        /* \"#utility.yul\":78:98   */\n      calldataload\n        /* \"#utility.yul\":69:98   */\n      swap1\n      pop\n        /* \"#utility.yul\":107:140   */\n      tag_104\n        /* \"#utility.yul\":134:139   */\n      dup2\n        /* \"#utility.yul\":107:140   */\n      tag_105\n      jump\t// in\n    tag_104:\n        /* \"#utility.yul\":7:146   */\n      swap3\n      swap2\n      pop\n      pop\n      jump\t// out\n        /* \"#utility.yul\":152:307   */\n    tag_106:\n        /* \"#utility.yul\":206:211   */\n      0x00\n        /* \"#utility.yul\":244:250   */\n      dup2\n        /* \"#utility.yul\":231:251   */\n      calldataload\n        /* \"#utility.yul\":222:251   */\n      swap1\n      pop\n        /* \"#utility.yul\":260:301   */\n      tag_108\n        /* \"#utility.yul\":295:300   */\n      dup2\n        /* \"#utility.yul\":260:301   */\n      tag_109\n      jump\t// in\n    tag_108:\n        /* \"#utility.yul\":152:307   */\n      swap3\n      swap2\n      pop\n      pop\n      jump\t// out\n        /* \"#utility.yul\":313:452   */\n    tag_110:\n        /* \"#utility.yul\":359:364   */\n      0x00\n        /* \"#utility.yul\":397:403   */\n      dup2\n        /* \"#utility.yul\":384:404   */\n      calldataload\n        /* \"#utility.yul\":375:404   */\n      swap1\n      pop\n        /* \"#utility.yul\":413:446   */\n      tag_112\n        /* \"#utility.yul\":440:445   */\n      dup2\n        /* \"#utility.yul\":413:446   */\n      tag_113\n      jump\t// in\n    tag_112:\n        /* \"#utility.yul\":313:452   */\n      swap3\n      swap2\n      pop\n      pop\n      jump\t// out\n        /* \"#utility.yul\":458:787   */\n    tag_34:\n        /* \"#utility.yul\":517:523   */\n      0x00\n        /* \"#utility.yul\":566:568   */\n      0x20\n        /* \"#utility.yul\":554:563   */\n      dup3\n        /* \"#utility.yul\":545:552   */\n      dup5\n        /* \"#utility.yul\":541:564   */\n      sub\n        /* \"#utility.yul\":537:569   */\n      slt\n        /* \"#utility.yul\":534:653   */\n      iszero\n      tag_115\n      jumpi\n        /* \"#utility.yul\":572:651   */\n      tag_116\n      tag_117\n      jump\t// in\n    tag_116:\n        /* \"#utility.yul\":534:653   */\n    tag_115:\n        /* \"#utility.yul\":692:693   */\n      0x00\n        /* \"#utility.yul\":717:770   */\n      tag_118\n        /* \"#utility.yul\":762:769   */\n      dup5\n        /* \"#utility.yul\":753:759   */\n      dup3\n        /* \"#utility.yul\":742:751   */\n      dup6\n        /* \"#utility.yul\":738:760   */\n      add\n        /* \"#utility.yul\":717:770   */\n      tag_102\n      jump\t// in\n    tag_118:\n        /* \"#utility.yul\":707:770   */\n      swap2\n      pop\n        /* \"#utility.yul\":663:780   */\n      pop\n        /* \"#utility.yul\":458:787   */\n      swap3\n      swap2\n      pop\n      pop\n      jump\t// out\n        /* \"#utility.yul\":793:1138   */\n    tag_14:\n        /* \"#utility.yul\":860:866   */\n      0x00\n        /* \"#utility.yul\":909:911   */\n      0x20\n        /* \"#utility.yul\":897:906   */\n      dup3\n        /* \"#utility.yul\":888:895   */\n      dup5\n        /* \"#utility.yul\":884:907   */\n      sub\n        /* \"#utility.yul\":880:912   */\n      slt\n        /* \"#utility.yul\":877:996   */\n      iszero\n      tag_120\n      jumpi\n        /* \"#utility.yul\":915:994   */\n      tag_121\n      tag_117\n      jump\t// in\n    tag_121:\n        /* \"#utility.yul\":877:996   */\n    tag_120:\n        /* \"#utility.yul\":1035:1036   */\n      0x00\n        /* \"#utility.yul\":1060:1121   */\n      tag_122\n        /* \"#utility.yul\":1113:1120   */\n      dup5\n        /* \"#utility.yul\":1104:1110   */\n      dup3\n        /* \"#utility.yul\":1093:1102   */\n      dup6\n        /* \"#utility.yul\":1089:1111   */\n      add\n        /* \"#utility.yul\":1060:1121   */\n      tag_106\n      jump\t// in\n    tag_122:\n        /* \"#utility.yul\":1050:1121   */\n      swap2\n      pop\n        /* \"#utility.yul\":1006:1131   */\n      pop\n        /* \"#utility.yul\":793:1138   */\n      swap3\n      swap2\n      pop\n      pop\n      jump\t// out\n        /* \"#utility.yul\":1144:1618   */\n    tag_25:\n        /* \"#utility.yul\":1212:1218   */\n      0x00\n        /* \"#utility.yul\":1220:1226   */\n      dup1\n        /* \"#utility.yul\":1269:1271   */\n      0x40\n        /* \"#utility.yul\":1257:1266   */\n      dup4\n        /* \"#utility.yul\":1248:1255   */\n      dup6\n        /* \"#utility.yul\":1244:1267   */\n      sub\n        /* \"#utility.yul\":1240:1272   */\n      slt\n        /* \"#utility.yul\":1237:1356   */\n      iszero\n      tag_124\n      jumpi\n        /* \"#utility.yul\":1275:1354   */\n      tag_125\n      tag_117\n      jump\t// in\n    tag_125:\n        /* \"#utility.yul\":1237:1356   */\n    tag_124:\n        /* \"#utility.yul\":1395:1396   */\n      0x00\n        /* \"#utility.yul\":1420:1473   */\n      tag_126\n        /* \"#utility.yul\":1465:1472   */\n      dup6\n        /* \"#utility.yul\":1456:1462   */\n      dup3\n        /* \"#utility.yul\":1445:1454   */\n      dup7\n        /* \"#utility.yul\":1441:1463   */\n      add\n        /* \"#utility.yul\":1420:1473   */\n      tag_110\n      jump\t// in\n    tag_126:\n        /* \"#utility.yul\":1410:1473   */\n      swap3\n      pop\n        /* \"#utility.yul\":1366:1483   */\n      pop\n        /* \"#utility.yul\":1522:1524   */\n      0x20\n        /* \"#utility.yul\":1548:1601   */\n      tag_127\n        /* \"#utility.yul\":1593:1600   */\n      dup6\n        /* \"#utility.yul\":1584:1590   */\n      dup3\n        /* \"#utility.yul\":1573:1582   */\n      dup7\n        /* \"#utility.yul\":1569:1591   */\n      add\n        /* \"#utility.yul\":1548:1601   */\n      tag_102\n      jump\t// in\n    tag_127:\n        /* \"#utility.yul\":1538:1601   */\n      swap2\n      pop\n        /* \"#utility.yul\":1493:1611   */\n      pop\n        /* \"#utility.yul\":1144:1618   */\n      swap3\n      pop\n      swap3\n      swap1\n      pop\n      jump\t// out\n        /* \"#utility.yul\":1624:1742   */\n    tag_128:\n        /* \"#utility.yul\":1711:1735   */\n      tag_130\n        /* \"#utility.yul\":1729:1734   */\n      dup2\n        /* \"#utility.yul\":1711:1735   */\n      tag_131\n      jump\t// in\n    tag_130:\n        /* \"#utility.yul\":1706:1709   */\n      dup3\n        /* \"#utility.yul\":1699:1736   */\n      mstore\n        /* \"#utility.yul\":1624:1742   */\n      pop\n      pop\n      jump\t// out\n        /* \"#utility.yul\":1748:1905   */\n    tag_132:\n        /* \"#utility.yul\":1853:1898   */\n      tag_134\n        /* \"#utility.yul\":1873:1897   */\n      tag_135\n        /* \"#utility.yul\":1891:1896   */\n      dup3\n        /* \"#utility.yul\":1873:1897   */\n      tag_136\n      jump\t// in\n    tag_135:\n        /* \"#utility.yul\":1853:1898   */\n      tag_137\n      jump\t// in\n    tag_134:\n        /* \"#utility.yul\":1848:1851   */\n      dup3\n        /* \"#utility.yul\":1841:1899   */\n      mstore\n        /* \"#utility.yul\":1748:1905   */\n      pop\n      pop\n      jump\t// out\n        /* \"#utility.yul\":1911:2054   */\n    tag_138:\n        /* \"#utility.yul\":2004:2047   */\n      tag_140\n        /* \"#utility.yul\":2041:2046   */\n      dup2\n        /* \"#utility.yul\":2004:2047   */\n      tag_141\n      jump\t// in\n    tag_140:\n        /* \"#utility.yul\":1999:2002   */\n      dup3\n        /* \"#utility.yul\":1992:2048   */\n      mstore\n        /* \"#utility.yul\":1911:2054   */\n      pop\n      pop\n      jump\t// out\n        /* \"#utility.yul\":2060:2178   */\n    tag_142:\n        /* \"#utility.yul\":2147:2171   */\n      tag_144\n        /* \"#utility.yul\":2165:2170   */\n      dup2\n        /* \"#utility.yul\":2147:2171   */\n      tag_145\n      jump\t// in\n    tag_144:\n        /* \"#utility.yul\":2142:2145   */\n      dup3\n        /* \"#utility.yul\":2135:2172   */\n      mstore\n        /* \"#utility.yul\":2060:2178   */\n      pop\n      pop\n      jump\t// out\n        /* \"#utility.yul\":2184:2341   */\n    tag_146:\n        /* \"#utility.yul\":2289:2334   */\n      tag_148\n        /* \"#utility.yul\":2309:2333   */\n      tag_149\n        /* \"#utility.yul\":2327:2332   */\n      dup3\n        /* \"#utility.yul\":2309:2333   */\n      tag_145\n      jump\t// in\n    tag_149:\n        /* \"#utility.yul\":2289:2334   */\n      tag_150\n      jump\t// in\n    tag_148:\n        /* \"#utility.yul\":2284:2287   */\n      dup3\n        /* \"#utility.yul\":2277:2335   */\n      mstore\n        /* \"#utility.yul\":2184:2341   */\n      pop\n      pop\n      jump\t// out\n        /* \"#utility.yul\":2347:2744   */\n    tag_78:\n        /* \"#utility.yul\":2487:2490   */\n      0x00\n        /* \"#utility.yul\":2502:2577   */\n      tag_152\n        /* \"#utility.yul\":2573:2576   */\n      dup3\n        /* \"#utility.yul\":2564:2570   */\n      dup6\n        /* \"#utility.yul\":2502:2577   */\n      tag_146\n      jump\t// in\n    tag_152:\n        /* \"#utility.yul\":2602:2604   */\n      0x20\n        /* \"#utility.yul\":2597:2600   */\n      dup3\n        /* \"#utility.yul\":2593:2605   */\n      add\n        /* \"#utility.yul\":2586:2605   */\n      swap2\n      pop\n        /* \"#utility.yul\":2615:2690   */\n      tag_153\n        /* \"#utility.yul\":2686:2689   */\n      dup3\n        /* \"#utility.yul\":2677:2683   */\n      dup5\n        /* \"#utility.yul\":2615:2690   */\n      tag_132\n      jump\t// in\n    tag_153:\n        /* \"#utility.yul\":2715:2717   */\n      0x20\n        /* \"#utility.yul\":2710:2713   */\n      dup3\n        /* \"#utility.yul\":2706:2718   */\n      add\n        /* \"#utility.yul\":2699:2718   */\n      swap2\n      pop\n        /* \"#utility.yul\":2735:2738   */\n      dup2\n        /* \"#utility.yul\":2728:2738   */\n      swap1\n      pop\n        /* \"#utility.yul\":2347:2744   */\n      swap4\n      swap3\n      pop\n      pop\n      pop\n      jump\t// out\n        /* \"#utility.yul\":2750:2972   */\n    tag_31:\n        /* \"#utility.yul\":2843:2847   */\n      0x00\n        /* \"#utility.yul\":2881:2883   */\n      0x20\n        /* \"#utility.yul\":2870:2879   */\n      dup3\n        /* \"#utility.yul\":2866:2884   */\n      add\n        /* \"#utility.yul\":2858:2884   */\n      swap1\n      pop\n        /* \"#utility.yul\":2894:2965   */\n      tag_155\n        /* \"#utility.yul\":2962:2963   */\n      0x00\n        /* \"#utility.yul\":2951:2960   */\n      dup4\n        /* \"#utility.yul\":2947:2964   */\n      add\n        /* \"#utility.yul\":2938:2944   */\n      dup5\n        /* \"#utility.yul\":2894:2965   */\n      tag_128\n      jump\t// in\n    tag_155:\n        /* \"#utility.yul\":2750:2972   */\n      swap3\n      swap2\n      pop\n      pop\n      jump\t// out\n        /* \"#utility.yul\":2978:3212   */\n    tag_40:\n        /* \"#utility.yul\":3077:3081   */\n      0x00\n        /* \"#utility.yul\":3115:3117   */\n      0x20\n        /* \"#utility.yul\":3104:3113   */\n      dup3\n        /* \"#utility.yul\":3100:3118   */\n      add\n        /* \"#utility.yul\":3092:3118   */\n      swap1\n      pop\n        /* \"#utility.yul\":3128:3205   */\n      tag_157\n        /* \"#utility.yul\":3202:3203   */\n      0x00\n        /* \"#utility.yul\":3191:3200   */\n      dup4\n        /* \"#utility.yul\":3187:3204   */\n      add\n        /* \"#utility.yul\":3178:3184   */\n      dup5\n        /* \"#utility.yul\":3128:3205   */\n      tag_138\n      jump\t// in\n    tag_157:\n        /* \"#utility.yul\":2978:3212   */\n      swap3\n      swap2\n      pop\n      pop\n      jump\t// out\n        /* \"#utility.yul\":3218:3440   */\n    tag_45:\n        /* \"#utility.yul\":3311:3315   */\n      0x00\n        /* \"#utility.yul\":3349:3351   */\n      0x20\n        /* \"#utility.yul\":3338:3347   */\n      dup3\n        /* \"#utility.yul\":3334:3352   */\n      add\n        /* \"#utility.yul\":3326:3352   */\n      swap1\n      pop\n        /* \"#utility.yul\":3362:3433   */\n      tag_159\n        /* \"#utility.yul\":3430:3431   */\n      0x00\n        /* \"#utility.yul\":3419:3428   */\n      dup4\n        /* \"#utility.yul\":3415:3432   */\n      add\n        /* \"#utility.yul\":3406:3412   */\n      dup5\n        /* \"#utility.yul\":3362:3433   */\n      tag_142\n      jump\t// in\n    tag_159:\n        /* \"#utility.yul\":3218:3440   */\n      swap3\n      swap2\n      pop\n      pop\n      jump\t// out\n        /* \"#utility.yul\":3527:3832   */\n    tag_81:\n        /* \"#utility.yul\":3567:3570   */\n      0x00\n        /* \"#utility.yul\":3586:3606   */\n      tag_163\n        /* \"#utility.yul\":3604:3605   */\n      dup3\n        /* \"#utility.yul\":3586:3606   */\n      tag_145\n      jump\t// in\n    tag_163:\n        /* \"#utility.yul\":3581:3606   */\n      swap2\n      pop\n        /* \"#utility.yul\":3620:3640   */\n      tag_164\n        /* \"#utility.yul\":3638:3639   */\n      dup4\n        /* \"#utility.yul\":3620:3640   */\n      tag_145\n      jump\t// in\n    tag_164:\n        /* \"#utility.yul\":3615:3640   */\n      swap3\n      pop\n        /* \"#utility.yul\":3774:3775   */\n      dup3\n        /* \"#utility.yul\":3706:3772   */\n      0xffffffffffffffffffffffffffffffffffffffffffffffffffffffffffffffff\n        /* \"#utility.yul\":3702:3776   */\n      sub\n        /* \"#utility.yul\":3699:3700   */\n      dup3\n        /* \"#utility.yul\":3696:3777   */\n      gt\n        /* \"#utility.yul\":3693:3800   */\n      iszero\n      tag_165\n      jumpi\n        /* \"#utility.yul\":3780:3798   */\n      tag_166\n      tag_167\n      jump\t// in\n    tag_166:\n        /* \"#utility.yul\":3693:3800   */\n    tag_165:\n        /* \"#utility.yul\":3824:3825   */\n      dup3\n        /* \"#utility.yul\":3821:3822   */\n      dup3\n        /* \"#utility.yul\":3817:3826   */\n      add\n        /* \"#utility.yul\":3810:3826   */\n      swap1\n      pop\n        /* \"#utility.yul\":3527:3832   */\n      swap3\n      swap2\n      pop\n      pop\n      jump\t// out\n        /* \"#utility.yul\":3838:4029   */\n    tag_87:\n        /* \"#utility.yul\":3878:3882   */\n      0x00\n        /* \"#utility.yul\":3898:3918   */\n      tag_169\n        /* \"#utility.yul\":3916:3917   */\n      dup3\n        /* \"#utility.yul\":3898:3918   */\n      tag_145\n      jump\t// in\n    tag_169:\n        /* \"#utility.yul\":3893:3918   */\n      swap2\n      pop\n        /* \"#utility.yul\":3932:3952   */\n      tag_170\n        /* \"#utility.yul\":3950:3951   */\n      dup4\n        /* \"#utility.yul\":3932:3952   */\n      tag_145\n      jump\t// in\n    tag_170:\n        /* \"#utility.yul\":3927:3952   */\n      swap3\n      pop\n        /* \"#utility.yul\":3971:3972   */\n      dup3\n        /* \"#utility.yul\":3968:3969   */\n      dup3\n        /* \"#utility.yul\":3965:3973   */\n      lt\n        /* \"#utility.yul\":3962:3996   */\n      iszero\n      tag_171\n      jumpi\n        /* \"#utility.yul\":3976:3994   */\n      tag_172\n      tag_167\n      jump\t// in\n    tag_172:\n        /* \"#utility.yul\":3962:3996   */\n    tag_171:\n        /* \"#utility.yul\":4021:4022   */\n      dup3\n        /* \"#utility.yul\":4018:4019   */\n      dup3\n        /* \"#utility.yul\":4014:4023   */\n      sub\n        /* \"#utility.yul\":4006:4023   */\n      swap1\n      pop\n        /* \"#utility.yul\":3838:4029   */\n      swap3\n      swap2\n      pop\n      pop\n      jump\t// out\n        /* \"#utility.yul\":4035:4131   */\n    tag_131:\n        /* \"#utility.yul\":4072:4079   */\n      0x00\n        /* \"#utility.yul\":4101:4125   */\n      tag_174\n        /* \"#utility.yul\":4119:4124   */\n      dup3\n        /* \"#utility.yul\":4101:4125   */\n      tag_175\n      jump\t// in\n    tag_174:\n        /* \"#utility.yul\":4090:4125   */\n      swap1\n      pop\n        /* \"#utility.yul\":4035:4131   */\n      swap2\n      swap1\n      pop\n      jump\t// out\n        /* \"#utility.yul\":4137:4214   */\n    tag_136:\n        /* \"#utility.yul\":4174:4181   */\n      0x00\n        /* \"#utility.yul\":4203:4208   */\n      dup2\n        /* \"#utility.yul\":4192:4208   */\n      swap1\n      pop\n        /* \"#utility.yul\":4137:4214   */\n      swap2\n      swap1\n      pop\n      jump\t// out\n        /* \"#utility.yul\":4220:4347   */\n    tag_177:\n        /* \"#utility.yul\":4265:4272   */\n      0x00\n        /* \"#utility.yul\":4294:4299   */\n      dup2\n        /* \"#utility.yul\":4283:4299   */\n      swap1\n      pop\n        /* \"#utility.yul\":4300:4341   */\n      tag_179\n        /* \"#utility.yul\":4335:4340   */\n      dup3\n        /* \"#utility.yul\":4300:4341   */\n      tag_180\n      jump\t// in\n    tag_179:\n        /* \"#utility.yul\":4220:4347   */\n      swap2\n      swap1\n      pop\n      jump\t// out\n        /* \"#utility.yul\":4353:4479   */\n    tag_175:\n        /* \"#utility.yul\":4390:4397   */\n      0x00\n        /* \"#utility.yul\":4430:4472   */\n      0xffffffffffffffffffffffffffffffffffffffff\n        /* \"#utility.yul\":4423:4428   */\n      dup3\n        /* \"#utility.yul\":4419:4473   */\n      and\n        /* \"#utility.yul\":4408:4473   */\n      swap1\n      pop\n        /* \"#utility.yul\":4353:4479   */\n      swap2\n      swap1\n      pop\n      jump\t// out\n        /* \"#utility.yul\":4485:4562   */\n    tag_145:\n        /* \"#utility.yul\":4522:4529   */\n      0x00\n        /* \"#utility.yul\":4551:4556   */\n      dup2\n        /* \"#utility.yul\":4540:4556   */\n      swap1\n      pop\n        /* \"#utility.yul\":4485:4562   */\n      swap2\n      swap1\n      pop\n      jump\t// out\n        /* \"#utility.yul\":4568:4695   */\n    tag_141:\n        /* \"#utility.yul\":4624:4633   */\n      0x00\n        /* \"#utility.yul\":4657:4689   */\n      tag_184\n        /* \"#utility.yul\":4683:4688   */\n      dup3\n        /* \"#utility.yul\":4657:4689   */\n      tag_177\n      jump\t// in\n    tag_184:\n        /* \"#utility.yul\":4644:4689   */\n      swap1\n      pop\n        /* \"#utility.yul\":4568:4695   */\n      swap2\n      swap1\n      pop\n      jump\t// out\n        /* \"#utility.yul\":4701:4780   */\n    tag_137:\n        /* \"#utility.yul\":4740:4747   */\n      0x00\n        /* \"#utility.yul\":4769:4774   */\n      dup2\n        /* \"#utility.yul\":4758:4774   */\n      swap1\n      pop\n        /* \"#utility.yul\":4701:4780   */\n      swap2\n      swap1\n      pop\n      jump\t// out\n        /* \"#utility.yul\":4786:4865   */\n    tag_150:\n        /* \"#utility.yul\":4825:4832   */\n      0x00\n        /* \"#utility.yul\":4854:4859   */\n      dup2\n        /* \"#utility.yul\":4843:4859   */\n      swap1\n      pop\n        /* \"#utility.yul\":4786:4865   */\n      swap2\n      swap1\n      pop\n      jump\t// out\n        /* \"#utility.yul\":4871:5051   */\n    tag_167:\n        /* \"#utility.yul\":4919:4996   */\n      0x4e487b7100000000000000000000000000000000000000000000000000000000\n        /* \"#utility.yul\":4916:4917   */\n      0x00\n        /* \"#utility.yul\":4909:4997   */\n      mstore\n        /* \"#utility.yul\":5016:5020   */\n      0x11\n        /* \"#utility.yul\":5013:5014   */\n      0x04\n        /* \"#utility.yul\":5006:5021   */\n      mstore\n        /* \"#utility.yul\":5040:5044   */\n      0x24\n        /* \"#utility.yul\":5037:5038   */\n      0x00\n        /* \"#utility.yul\":5030:5045   */\n      revert\n        /* \"#utility.yul\":5057:5237   */\n    tag_51:\n        /* \"#utility.yul\":5105:5182   */\n      0x4e487b7100000000000000000000000000000000000000000000000000000000\n        /* \"#utility.yul\":5102:5103   */\n      0x00\n        /* \"#utility.yul\":5095:5183   */\n      mstore\n        /* \"#utility.yul\":5202:5206   */\n      0x21\n        /* \"#utility.yul\":5199:5200   */\n      0x04\n        /* \"#utility.yul\":5192:5207   */\n      mstore\n        /* \"#utility.yul\":5226:5230   */\n      0x24\n        /* \"#utility.yul\":5223:5224   */\n      0x00\n        /* \"#utility.yul\":5216:5231   */\n      revert\n        /* \"#utility.yul\":5366:5483   */\n    tag_117:\n        /* \"#utility.yul\":5475:5476   */\n      0x00\n        /* \"#utility.yul\":5472:5473   */\n      dup1\n        /* \"#utility.yul\":5465:5477   */\n      revert\n        /* \"#utility.yul\":5489:5602   */\n    tag_180:\n        /* \"#utility.yul\":5570:5571   */\n      0x04\n        /* \"#utility.yul\":5563:5568   */\n      dup2\n        /* \"#utility.yul\":5560:5572   */\n      lt\n        /* \"#utility.yul\":5550:5596   */\n      tag_193\n      jumpi\n        /* \"#utility.yul\":5576:5594   */\n      tag_194\n      tag_51\n      jump\t// in\n    tag_194:\n        /* \"#utility.yul\":5550:5596   */\n    tag_193:\n        /* \"#utility.yul\":5489:5602   */\n      pop\n      jump\t// out\n        /* \"#utility.yul\":5608:5730   */\n    tag_105:\n        /* \"#utility.yul\":5681:5705   */\n      tag_196\n        /* \"#utility.yul\":5699:5704   */\n      dup2\n        /* \"#utility.yul\":5681:5705   */\n      tag_136\n      jump\t// in\n    tag_196:\n        /* \"#utility.yul\":5674:5679   */\n      dup2\n        /* \"#utility.yul\":5671:5706   */\n      eq\n        /* \"#utility.yul\":5661:5724   */\n      tag_197\n      jumpi\n        /* \"#utility.yul\":5720:5721   */\n      0x00\n        /* \"#utility.yul\":5717:5718   */\n      dup1\n        /* \"#utility.yul\":5710:5722   */\n      revert\n        /* \"#utility.yul\":5661:5724   */\n    tag_197:\n        /* \"#utility.yul\":5608:5730   */\n      pop\n      jump\t// out\n        /* \"#utility.yul\":5736:5843   */\n    tag_109:\n        /* \"#utility.yul\":5817:5818   */\n      0x04\n        /* \"#utility.yul\":5810:5815   */\n      dup2\n        /* \"#utility.yul\":5807:5819   */\n      lt\n        /* \"#utility.yul\":5797:5837   */\n      tag_199\n      jumpi\n        /* \"#utility.yul\":5833:5834   */\n      0x00\n        /* \"#utility.yul\":5830:5831   */\n      dup1\n        /* \"#utility.yul\":5823:5835   */\n      revert\n        /* \"#utility.yul\":5797:5837   */\n    tag_199:\n        /* \"#utility.yul\":5736:5843   */\n      pop\n      jump\t// out\n        /* \"#utility.yul\":5849:5971   */\n    tag_113:\n        /* \"#utility.yul\":5922:5946   */\n      tag_201\n        /* \"#utility.yul\":5940:5945   */\n      dup2\n        /* \"#utility.yul\":5922:5946   */\n      tag_145\n      jump\t// in\n    tag_201:\n        /* \"#utility.yul\":5915:5920   */\n      dup2\n        /* \"#utility.yul\":5912:5947   */\n      eq\n        /* \"#utility.yul\":5902:5965   */\n      tag_202\n      jumpi\n        /* \"#utility.yul\":5961:5962   */\n      0x00\n        /* \"#utility.yul\":5958:5959   */\n      dup1\n        /* \"#utility.yul\":5951:5963   */\n      revert\n        /* \"#utility.yul\":5902:5965   */\n    tag_202:\n        /* \"#utility.yul\":5849:5971   */\n      pop\n      jump\t// out\n\n    auxdata: 0xa2646970667358221220910a57464fe39dec1c2124729a4bbe579274fc13afc2abe0b5e0c28f9c50d1b064736f6c63430008070033\n}\n",
				"bytecode": {
					"linkReferences": {},
					"object": "608060405260008060006101000a81548160ff02191690836003811115610029576100286100b0565b5b0217905550600060035534801561003f57600080fd5b5033600060016101000a81548173ffffffffffffffffffffffffffffffffffffffff021916908373ffffffffffffffffffffffffffffffffffffffff16021790555060016000806101000a81548160ff021916908360038111156100a6576100a56100b0565b5b02179055506100df565b7f4e487b7100000000000000000000000000000000000000000000000000000000600052602160045260246000fd5b610af8806100ee6000396000f3fe60806040526004361061007b5760003560e01c806391f901571161004e57806391f9015714610100578063957bb1e01461012b578063c19d93fb14610147578063d57bde79146101725761007b565b8063268f1153146100805780632a24f46c146100a95780633ccfd60b146100c05780634036778f146100d7575b600080fd5b34801561008c57600080fd5b506100a760048036038101906100a291906107bf565b61019d565b005b3480156100b557600080fd5b506100be610261565b005b3480156100cc57600080fd5b506100d561030e565b005b3480156100e357600080fd5b506100fe60048036038101906100f991906107ec565b6103ee565b005b34801561010c57600080fd5b50610115610530565b60405161012291906108b3565b60405180910390f35b61014560048036038101906101409190610792565b610556565b005b34801561015357600080fd5b5061015c610604565b60405161016991906108ce565b60405180910390f35b34801561017e57600080fd5b50610187610615565b60405161019491906108e9565b60405180910390f35b600060019054906101000a900473ffffffffffffffffffffffffffffffffffffffff1673ffffffffffffffffffffffffffffffffffffffff163373ffffffffffffffffffffffffffffffffffffffff16146101f757600080fd5b60008054906101000a900460ff16600381111561021757610216610a3c565b5b81600381111561022a57610229610a3c565b5b101561023557600080fd5b806000806101000a81548160ff0219169083600381111561025957610258610a3c565b5b021790555050565b600380600381111561027657610275610a3c565b5b60008054906101000a900460ff16600381111561029657610295610a3c565b5b146102a057600080fd5b600060019054906101000a900473ffffffffffffffffffffffffffffffffffffffff1673ffffffffffffffffffffffffffffffffffffffff166108fc6003549081150290604051600060405180830381858888f1935050505015801561030a573d6000803e3d6000fd5b5050565b6000600460003373ffffffffffffffffffffffffffffffffffffffff1673ffffffffffffffffffffffffffffffffffffffff1681526020019081526020016000205490506000811161035f57600080fd5b6000600460003373ffffffffffffffffffffffffffffffffffffffff1673ffffffffffffffffffffffffffffffffffffffff168152602001908152602001600020819055503373ffffffffffffffffffffffffffffffffffffffff166108fc829081150290604051600060405180830381858888f193505050501580156103ea573d6000803e3d6000fd5b5050565b600280600381111561040357610402610a3c565b5b60008054906101000a900460ff16600381111561042357610422610a3c565b5b1461042d57600080fd5b600080600160003373ffffffffffffffffffffffffffffffffffffffff1673ffffffffffffffffffffffffffffffffffffffff16815260200190815260200160002090508484604051602001610484929190610887565b60405160208183030381529060405280519060200120816000015414156104e2578060010154826104b59190610904565b9150848160010154106104e1576104cc338661061b565b156104e05784826104dd919061095a565b91505b5b5b3373ffffffffffffffffffffffffffffffffffffffff166108fc839081150290604051600060405180830381858888f19350505050158015610528573d6000803e3d6000fd5b505050505050565b600260009054906101000a900473ffffffffffffffffffffffffffffffffffffffff1681565b600180600381111561056b5761056a610a3c565b5b60008054906101000a900460ff16600381111561058b5761058a610a3c565b5b1461059557600080fd5b604051806040016040528083815260200134815250600160003373ffffffffffffffffffffffffffffffffffffffff1673ffffffffffffffffffffffffffffffffffffffff16815260200190815260200160002060008201518160000155602082015181600101559050505050565b60008054906101000a900460ff1681565b60035481565b6000600354821161062f576000905061074d565b600073ffffffffffffffffffffffffffffffffffffffff16600260009054906101000a900473ffffffffffffffffffffffffffffffffffffffff1673ffffffffffffffffffffffffffffffffffffffff16146107005760035460046000600260009054906101000a900473ffffffffffffffffffffffffffffffffffffffff1673ffffffffffffffffffffffffffffffffffffffff1673ffffffffffffffffffffffffffffffffffffffff16815260200190815260200160002060008282546106f89190610904565b925050819055505b8160038190555082600260006101000a81548173ffffffffffffffffffffffffffffffffffffffff021916908373ffffffffffffffffffffffffffffffffffffffff160217905550600190505b92915050565b60008135905061076281610a84565b92915050565b60008135905061077781610a9b565b92915050565b60008135905061078c81610aab565b92915050565b6000602082840312156107a8576107a7610a6b565b5b60006107b684828501610753565b91505092915050565b6000602082840312156107d5576107d4610a6b565b5b60006107e384828501610768565b91505092915050565b6000806040838503121561080357610802610a6b565b5b60006108118582860161077d565b925050602061082285828601610753565b9150509250929050565b6108358161098e565b82525050565b61084c610847826109a0565b6109f9565b82525050565b61085b816109e7565b82525050565b61086a816109dd565b82525050565b61088161087c826109dd565b610a03565b82525050565b60006108938285610870565b6020820191506108a3828461083b565b6020820191508190509392505050565b60006020820190506108c8600083018461082c565b92915050565b60006020820190506108e36000830184610852565b92915050565b60006020820190506108fe6000830184610861565b92915050565b600061090f826109dd565b915061091a836109dd565b9250827fffffffffffffffffffffffffffffffffffffffffffffffffffffffffffffffff0382111561094f5761094e610a0d565b5b828201905092915050565b6000610965826109dd565b9150610970836109dd565b92508282101561098357610982610a0d565b5b828203905092915050565b6000610999826109bd565b9050919050565b6000819050919050565b60008190506109b882610a70565b919050565b600073ffffffffffffffffffffffffffffffffffffffff82169050919050565b6000819050919050565b60006109f2826109aa565b9050919050565b6000819050919050565b6000819050919050565b7f4e487b7100000000000000000000000000000000000000000000000000000000600052601160045260246000fd5b7f4e487b7100000000000000000000000000000000000000000000000000000000600052602160045260246000fd5b600080fd5b60048110610a8157610a80610a3c565b5b50565b610a8d816109a0565b8114610a9857600080fd5b50565b60048110610aa857600080fd5b50565b610ab4816109dd565b8114610abf57600080fd5b5056fea2646970667358221220910a57464fe39dec1c2124729a4bbe579274fc13afc2abe0b5e0c28f9c50d1b064736f6c63430008070033",
					"opcodes": "PUSH1 0x80 PUSH1 0x40 MSTORE PUSH1 0x0 DUP1 PUSH1 0x0 PUSH2 0x100 EXP DUP2 SLOAD DUP2 PUSH1 0xFF MUL NOT AND SWAP1 DUP4 PUSH1 0x3 DUP2 GT ISZERO PUSH2 0x29 JUMPI PUSH2 0x28 PUSH2 0xB0 JUMP JUMPDEST JUMPDEST MUL OR SWAP1 SSTORE POP PUSH1 0x0 PUSH1 0x3 SSTORE CALLVALUE DUP1 ISZERO PUSH2 0x3F JUMPI PUSH1 0x0 DUP1 REVERT JUMPDEST POP CALLER PUSH1 0x0 PUSH1 0x1 PUSH2 0x100 EXP DUP2 SLOAD DUP2 PUSH20 0xFFFFFFFFFFFFFFFFFFFFFFFFFFFFFFFFFFFFFFFF MUL NOT AND SWAP1 DUP4 PUSH20 0xFFFFFFFFFFFFFFFFFFFFFFFFFFFFFFFFFFFFFFFF AND MUL OR SWAP1 SSTORE POP PUSH1 0x1 PUSH1 0x0 DUP1 PUSH2 0x100 EXP DUP2 SLOAD DUP2 PUSH1 0xFF MUL NOT AND SWAP1 DUP4 PUSH1 0x3 DUP2 GT ISZERO PUSH2 0xA6 JUMPI PUSH2 0xA5 PUSH2 0xB0 JUMP JUMPDEST JUMPDEST MUL OR SWAP1 SSTORE POP PUSH2 0xDF JUMP JUMPDEST PUSH32 0x4E487B7100000000000000000000000000000000000000000000000000000000 PUSH1 0x0 MSTORE PUSH1 0x21 PUSH1 0x4 MSTORE PUSH1 0x24 PUSH1 0x0 REVERT JUMPDEST PUSH2 0xAF8 DUP1 PUSH2 0xEE PUSH1 0x0 CODECOPY PUSH1 0x0 RETURN INVALID PUSH1 0x80 PUSH1 0x40 MSTORE PUSH1 0x4 CALLDATASIZE LT PUSH2 0x7B JUMPI PUSH1 0x0 CALLDATALOAD PUSH1 0xE0 SHR DUP1 PUSH4 0x91F90157 GT PUSH2 0x4E JUMPI DUP1 PUSH4 0x91F90157 EQ PUSH2 0x100 JUMPI DUP1 PUSH4 0x957BB1E0 EQ PUSH2 0x12B JUMPI DUP1 PUSH4 0xC19D93FB EQ PUSH2 0x147 JUMPI DUP1 PUSH4 0xD57BDE79 EQ PUSH2 0x172 JUMPI PUSH2 0x7B JUMP JUMPDEST DUP1 PUSH4 0x268F1153 EQ PUSH2 0x80 JUMPI DUP1 PUSH4 0x2A24F46C EQ PUSH2 0xA9 JUMPI DUP1 PUSH4 0x3CCFD60B EQ PUSH2 0xC0 JUMPI DUP1 PUSH4 0x4036778F EQ PUSH2 0xD7 JUMPI JUMPDEST PUSH1 0x0 DUP1 REVERT JUMPDEST CALLVALUE DUP1 ISZERO PUSH2 0x8C JUMPI PUSH1 0x0 DUP1 REVERT JUMPDEST POP PUSH2 0xA7 PUSH1 0x4 DUP1 CALLDATASIZE SUB DUP2 ADD SWAP1 PUSH2 0xA2 SWAP2 SWAP1 PUSH2 0x7BF JUMP JUMPDEST PUSH2 0x19D JUMP JUMPDEST STOP JUMPDEST CALLVALUE DUP1 ISZERO PUSH2 0xB5 JUMPI PUSH1 0x0 DUP1 REVERT JUMPDEST POP PUSH2 0xBE PUSH2 0x261 JUMP JUMPDEST STOP JUMPDEST CALLVALUE DUP1 ISZERO PUSH2 0xCC JUMPI PUSH1 0x0 DUP1 REVERT JUMPDEST POP PUSH2 0xD5 PUSH2 0x30E JUMP JUMPDEST STOP JUMPDEST CALLVALUE DUP1 ISZERO PUSH2 0xE3 JUMPI PUSH1 0x0 DUP1 REVERT JUMPDEST POP PUSH2 0xFE PUSH1 0x4 DUP1 CALLDATASIZE SUB DUP2 ADD SWAP1 PUSH2 0xF9 SWAP2 SWAP1 PUSH2 0x7EC JUMP JUMPDEST PUSH2 0x3EE JUMP JUMPDEST STOP JUMPDEST CALLVALUE DUP1 ISZERO PUSH2 0x10C JUMPI PUSH1 0x0 DUP1 REVERT JUMPDEST POP PUSH2 0x115 PUSH2 0x530 JUMP JUMPDEST PUSH1 0x40 MLOAD PUSH2 0x122 SWAP2 SWAP1 PUSH2 0x8B3 JUMP JUMPDEST PUSH1 0x40 MLOAD DUP1 SWAP2 SUB SWAP1 RETURN JUMPDEST PUSH2 0x145 PUSH1 0x4 DUP1 CALLDATASIZE SUB DUP2 ADD SWAP1 PUSH2 0x140 SWAP2 SWAP1 PUSH2 0x792 JUMP JUMPDEST PUSH2 0x556 JUMP JUMPDEST STOP JUMPDEST CALLVALUE DUP1 ISZERO PUSH2 0x153 JUMPI PUSH1 0x0 DUP1 REVERT JUMPDEST POP PUSH2 0x15C PUSH2 0x604 JUMP JUMPDEST PUSH1 0x40 MLOAD PUSH2 0x169 SWAP2 SWAP1 PUSH2 0x8CE JUMP JUMPDEST PUSH1 0x40 MLOAD DUP1 SWAP2 SUB SWAP1 RETURN JUMPDEST CALLVALUE DUP1 ISZERO PUSH2 0x17E JUMPI PUSH1 0x0 DUP1 REVERT JUMPDEST POP PUSH2 0x187 PUSH2 0x615 JUMP JUMPDEST PUSH1 0x40 MLOAD PUSH2 0x194 SWAP2 SWAP1 PUSH2 0x8E9 JUMP JUMPDEST PUSH1 0x40 MLOAD DUP1 SWAP2 SUB SWAP1 RETURN JUMPDEST PUSH1 0x0 PUSH1 0x1 SWAP1 SLOAD SWAP1 PUSH2 0x100 EXP SWAP1 DIV PUSH20 0xFFFFFFFFFFFFFFFFFFFFFFFFFFFFFFFFFFFFFFFF AND PUSH20 0xFFFFFFFFFFFFFFFFFFFFFFFFFFFFFFFFFFFFFFFF AND CALLER PUSH20 0xFFFFFFFFFFFFFFFFFFFFFFFFFFFFFFFFFFFFFFFF AND EQ PUSH2 0x1F7 JUMPI PUSH1 0x0 DUP1 REVERT JUMPDEST PUSH1 0x0 DUP1 SLOAD SWAP1 PUSH2 0x100 EXP SWAP1 DIV PUSH1 0xFF AND PUSH1 0x3 DUP2 GT ISZERO PUSH2 0x217 JUMPI PUSH2 0x216 PUSH2 0xA3C JUMP JUMPDEST JUMPDEST DUP2 PUSH1 0x3 DUP2 GT ISZERO PUSH2 0x22A JUMPI PUSH2 0x229 PUSH2 0xA3C JUMP JUMPDEST JUMPDEST LT ISZERO PUSH2 0x235 JUMPI PUSH1 0x0 DUP1 REVERT JUMPDEST DUP1 PUSH1 0x0 DUP1 PUSH2 0x100 EXP DUP2 SLOAD DUP2 PUSH1 0xFF MUL NOT AND SWAP1 DUP4 PUSH1 0x3 DUP2 GT ISZERO PUSH2 0x259 JUMPI PUSH2 0x258 PUSH2 0xA3C JUMP JUMPDEST JUMPDEST MUL OR SWAP1 SSTORE POP POP JUMP JUMPDEST PUSH1 0x3 DUP1 PUSH1 0x3 DUP2 GT ISZERO PUSH2 0x276 JUMPI PUSH2 0x275 PUSH2 0xA3C JUMP JUMPDEST JUMPDEST PUSH1 0x0 DUP1 SLOAD SWAP1 PUSH2 0x100 EXP SWAP1 DIV PUSH1 0xFF AND PUSH1 0x3 DUP2 GT ISZERO PUSH2 0x296 JUMPI PUSH2 0x295 PUSH2 0xA3C JUMP JUMPDEST JUMPDEST EQ PUSH2 0x2A0 JUMPI PUSH1 0x0 DUP1 REVERT JUMPDEST PUSH1 0x0 PUSH1 0x1 SWAP1 SLOAD SWAP1 PUSH2 0x100 EXP SWAP1 DIV PUSH20 0xFFFFFFFFFFFFFFFFFFFFFFFFFFFFFFFFFFFFFFFF AND PUSH20 0xFFFFFFFFFFFFFFFFFFFFFFFFFFFFFFFFFFFFFFFF AND PUSH2 0x8FC PUSH1 0x3 SLOAD SWAP1 DUP2 ISZERO MUL SWAP1 PUSH1 0x40 MLOAD PUSH1 0x0 PUSH1 0x40 MLOAD DUP1 DUP4 SUB DUP2 DUP6 DUP9 DUP9 CALL SWAP4 POP POP POP POP ISZERO DUP1 ISZERO PUSH2 0x30A JUMPI RETURNDATASIZE PUSH1 0x0 DUP1 RETURNDATACOPY RETURNDATASIZE PUSH1 0x0 REVERT JUMPDEST POP POP JUMP JUMPDEST PUSH1 0x0 PUSH1 0x4 PUSH1 0x0 CALLER PUSH20 0xFFFFFFFFFFFFFFFFFFFFFFFFFFFFFFFFFFFFFFFF AND PUSH20 0xFFFFFFFFFFFFFFFFFFFFFFFFFFFFFFFFFFFFFFFF AND DUP2 MSTORE PUSH1 0x20 ADD SWAP1 DUP2 MSTORE PUSH1 0x20 ADD PUSH1 0x0 KECCAK256 SLOAD SWAP1 POP PUSH1 0x0 DUP2 GT PUSH2 0x35F JUMPI PUSH1 0x0 DUP1 REVERT JUMPDEST PUSH1 0x0 PUSH1 0x4 PUSH1 0x0 CALLER PUSH20 0xFFFFFFFFFFFFFFFFFFFFFFFFFFFFFFFFFFFFFFFF AND PUSH20 0xFFFFFFFFFFFFFFFFFFFFFFFFFFFFFFFFFFFFFFFF AND DUP2 MSTORE PUSH1 0x20 ADD SWAP1 DUP2 MSTORE PUSH1 0x20 ADD PUSH1 0x0 KECCAK256 DUP2 SWAP1 SSTORE POP CALLER PUSH20 0xFFFFFFFFFFFFFFFFFFFFFFFFFFFFFFFFFFFFFFFF AND PUSH2 0x8FC DUP3 SWAP1 DUP2 ISZERO MUL SWAP1 PUSH1 0x40 MLOAD PUSH1 0x0 PUSH1 0x40 MLOAD DUP1 DUP4 SUB DUP2 DUP6 DUP9 DUP9 CALL SWAP4 POP POP POP POP ISZERO DUP1 ISZERO PUSH2 0x3EA JUMPI RETURNDATASIZE PUSH1 0x0 DUP1 RETURNDATACOPY RETURNDATASIZE PUSH1 0x0 REVERT JUMPDEST POP POP JUMP JUMPDEST PUSH1 0x2 DUP1 PUSH1 0x3 DUP2 GT ISZERO PUSH2 0x403 JUMPI PUSH2 0x402 PUSH2 0xA3C JUMP JUMPDEST JUMPDEST PUSH1 0x0 DUP1 SLOAD SWAP1 PUSH2 0x100 EXP SWAP1 DIV PUSH1 0xFF AND PUSH1 0x3 DUP2 GT ISZERO PUSH2 0x423 JUMPI PUSH2 0x422 PUSH2 0xA3C JUMP JUMPDEST JUMPDEST EQ PUSH2 0x42D JUMPI PUSH1 0x0 DUP1 REVERT JUMPDEST PUSH1 0x0 DUP1 PUSH1 0x1 PUSH1 0x0 CALLER PUSH20 0xFFFFFFFFFFFFFFFFFFFFFFFFFFFFFFFFFFFFFFFF AND PUSH20 0xFFFFFFFFFFFFFFFFFFFFFFFFFFFFFFFFFFFFFFFF AND DUP2 MSTORE PUSH1 0x20 ADD SWAP1 DUP2 MSTORE PUSH1 0x20 ADD PUSH1 0x0 KECCAK256 SWAP1 POP DUP5 DUP5 PUSH1 0x40 MLOAD PUSH1 0x20 ADD PUSH2 0x484 SWAP3 SWAP2 SWAP1 PUSH2 0x887 JUMP JUMPDEST PUSH1 0x40 MLOAD PUSH1 0x20 DUP2 DUP4 SUB SUB DUP2 MSTORE SWAP1 PUSH1 0x40 MSTORE DUP1 MLOAD SWAP1 PUSH1 0x20 ADD KECCAK256 DUP2 PUSH1 0x0 ADD SLOAD EQ ISZERO PUSH2 0x4E2 JUMPI DUP1 PUSH1 0x1 ADD SLOAD DUP3 PUSH2 0x4B5 SWAP2 SWAP1 PUSH2 0x904 JUMP JUMPDEST SWAP2 POP DUP5 DUP2 PUSH1 0x1 ADD SLOAD LT PUSH2 0x4E1 JUMPI PUSH2 0x4CC CALLER DUP7 PUSH2 0x61B JUMP JUMPDEST ISZERO PUSH2 0x4E0 JUMPI DUP5 DUP3 PUSH2 0x4DD SWAP2 SWAP1 PUSH2 0x95A JUMP JUMPDEST SWAP2 POP JUMPDEST JUMPDEST JUMPDEST CALLER PUSH20 0xFFFFFFFFFFFFFFFFFFFFFFFFFFFFFFFFFFFFFFFF AND PUSH2 0x8FC DUP4 SWAP1 DUP2 ISZERO MUL SWAP1 PUSH1 0x40 MLOAD PUSH1 0x0 PUSH1 0x40 MLOAD DUP1 DUP4 SUB DUP2 DUP6 DUP9 DUP9 CALL SWAP4 POP POP POP POP ISZERO DUP1 ISZERO PUSH2 0x528 JUMPI RETURNDATASIZE PUSH1 0x0 DUP1 RETURNDATACOPY RETURNDATASIZE PUSH1 0x0 REVERT JUMPDEST POP POP POP POP POP POP JUMP JUMPDEST PUSH1 0x2 PUSH1 0x0 SWAP1 SLOAD SWAP1 PUSH2 0x100 EXP SWAP1 DIV PUSH20 0xFFFFFFFFFFFFFFFFFFFFFFFFFFFFFFFFFFFFFFFF AND DUP2 JUMP JUMPDEST PUSH1 0x1 DUP1 PUSH1 0x3 DUP2 GT ISZERO PUSH2 0x56B JUMPI PUSH2 0x56A PUSH2 0xA3C JUMP JUMPDEST JUMPDEST PUSH1 0x0 DUP1 SLOAD SWAP1 PUSH2 0x100 EXP SWAP1 DIV PUSH1 0xFF AND PUSH1 0x3 DUP2 GT ISZERO PUSH2 0x58B JUMPI PUSH2 0x58A PUSH2 0xA3C JUMP JUMPDEST JUMPDEST EQ PUSH2 0x595 JUMPI PUSH1 0x0 DUP1 REVERT JUMPDEST PUSH1 0x40 MLOAD DUP1 PUSH1 0x40 ADD PUSH1 0x40 MSTORE DUP1 DUP4 DUP2 MSTORE PUSH1 0x20 ADD CALLVALUE DUP2 MSTORE POP PUSH1 0x1 PUSH1 0x0 CALLER PUSH20 0xFFFFFFFFFFFFFFFFFFFFFFFFFFFFFFFFFFFFFFFF AND PUSH20 0xFFFFFFFFFFFFFFFFFFFFFFFFFFFFFFFFFFFFFFFF AND DUP2 MSTORE PUSH1 0x20 ADD SWAP1 DUP2 MSTORE PUSH1 0x20 ADD PUSH1 0x0 KECCAK256 PUSH1 0x0 DUP3 ADD MLOAD DUP2 PUSH1 0x0 ADD SSTORE PUSH1 0x20 DUP3 ADD MLOAD DUP2 PUSH1 0x1 ADD SSTORE SWAP1 POP POP POP POP JUMP JUMPDEST PUSH1 0x0 DUP1 SLOAD SWAP1 PUSH2 0x100 EXP SWAP1 DIV PUSH1 0xFF AND DUP2 JUMP JUMPDEST PUSH1 0x3 SLOAD DUP2 JUMP JUMPDEST PUSH1 0x0 PUSH1 0x3 SLOAD DUP3 GT PUSH2 0x62F JUMPI PUSH1 0x0 SWAP1 POP PUSH2 0x74D JUMP JUMPDEST PUSH1 0x0 PUSH20 0xFFFFFFFFFFFFFFFFFFFFFFFFFFFFFFFFFFFFFFFF AND PUSH1 0x2 PUSH1 0x0 SWAP1 SLOAD SWAP1 PUSH2 0x100 EXP SWAP1 DIV PUSH20 0xFFFFFFFFFFFFFFFFFFFFFFFFFFFFFFFFFFFFFFFF AND PUSH20 0xFFFFFFFFFFFFFFFFFFFFFFFFFFFFFFFFFFFFFFFF AND EQ PUSH2 0x700 JUMPI PUSH1 0x3 SLOAD PUSH1 0x4 PUSH1 0x0 PUSH1 0x2 PUSH1 0x0 SWAP1 SLOAD SWAP1 PUSH2 0x100 EXP SWAP1 DIV PUSH20 0xFFFFFFFFFFFFFFFFFFFFFFFFFFFFFFFFFFFFFFFF AND PUSH20 0xFFFFFFFFFFFFFFFFFFFFFFFFFFFFFFFFFFFFFFFF AND PUSH20 0xFFFFFFFFFFFFFFFFFFFFFFFFFFFFFFFFFFFFFFFF AND DUP2 MSTORE PUSH1 0x20 ADD SWAP1 DUP2 MSTORE PUSH1 0x20 ADD PUSH1 0x0 KECCAK256 PUSH1 0x0 DUP3 DUP3 SLOAD PUSH2 0x6F8 SWAP2 SWAP1 PUSH2 0x904 JUMP JUMPDEST SWAP3 POP POP DUP2 SWAP1 SSTORE POP JUMPDEST DUP2 PUSH1 0x3 DUP2 SWAP1 SSTORE POP DUP3 PUSH1 0x2 PUSH1 0x0 PUSH2 0x100 EXP DUP2 SLOAD DUP2 PUSH20 0xFFFFFFFFFFFFFFFFFFFFFFFFFFFFFFFFFFFFFFFF MUL NOT AND SWAP1 DUP4 PUSH20 0xFFFFFFFFFFFFFFFFFFFFFFFFFFFFFFFFFFFFFFFF AND MUL OR SWAP1 SSTORE POP PUSH1 0x1 SWAP1 POP JUMPDEST SWAP3 SWAP2 POP POP JUMP JUMPDEST PUSH1 0x0 DUP2 CALLDATALOAD SWAP1 POP PUSH2 0x762 DUP2 PUSH2 0xA84 JUMP JUMPDEST SWAP3 SWAP2 POP POP JUMP JUMPDEST PUSH1 0x0 DUP2 CALLDATALOAD SWAP1 POP PUSH2 0x777 DUP2 PUSH2 0xA9B JUMP JUMPDEST SWAP3 SWAP2 POP POP JUMP JUMPDEST PUSH1 0x0 DUP2 CALLDATALOAD SWAP1 POP PUSH2 0x78C DUP2 PUSH2 0xAAB JUMP JUMPDEST SWAP3 SWAP2 POP POP JUMP JUMPDEST PUSH1 0x0 PUSH1 0x20 DUP3 DUP5 SUB SLT ISZERO PUSH2 0x7A8 JUMPI PUSH2 0x7A7 PUSH2 0xA6B JUMP JUMPDEST JUMPDEST PUSH1 0x0 PUSH2 0x7B6 DUP5 DUP3 DUP6 ADD PUSH2 0x753 JUMP JUMPDEST SWAP2 POP POP SWAP3 SWAP2 POP POP JUMP JUMPDEST PUSH1 0x0 PUSH1 0x20 DUP3 DUP5 SUB SLT ISZERO PUSH2 0x7D5 JUMPI PUSH2 0x7D4 PUSH2 0xA6B JUMP JUMPDEST JUMPDEST PUSH1 0x0 PUSH2 0x7E3 DUP5 DUP3 DUP6 ADD PUSH2 0x768 JUMP JUMPDEST SWAP2 POP POP SWAP3 SWAP2 POP POP JUMP JUMPDEST PUSH1 0x0 DUP1 PUSH1 0x40 DUP4 DUP6 SUB SLT ISZERO PUSH2 0x803 JUMPI PUSH2 0x802 PUSH2 0xA6B JUMP JUMPDEST JUMPDEST PUSH1 0x0 PUSH2 0x811 DUP6 DUP3 DUP7 ADD PUSH2 0x77D JUMP JUMPDEST SWAP3 POP POP PUSH1 0x20 PUSH2 0x822 DUP6 DUP3 DUP7 ADD PUSH2 0x753 JUMP JUMPDEST SWAP2 POP POP SWAP3 POP SWAP3 SWAP1 POP JUMP JUMPDEST PUSH2 0x835 DUP2 PUSH2 0x98E JUMP JUMPDEST DUP3 MSTORE POP POP JUMP JUMPDEST PUSH2 0x84C PUSH2 0x847 DUP3 PUSH2 0x9A0 JUMP JUMPDEST PUSH2 0x9F9 JUMP JUMPDEST DUP3 MSTORE POP POP JUMP JUMPDEST PUSH2 0x85B DUP2 PUSH2 0x9E7 JUMP JUMPDEST DUP3 MSTORE POP POP JUMP JUMPDEST PUSH2 0x86A DUP2 PUSH2 0x9DD JUMP JUMPDEST DUP3 MSTORE POP POP JUMP JUMPDEST PUSH2 0x881 PUSH2 0x87C DUP3 PUSH2 0x9DD JUMP JUMPDEST PUSH2 0xA03 JUMP JUMPDEST DUP3 MSTORE POP POP JUMP JUMPDEST PUSH1 0x0 PUSH2 0x893 DUP3 DUP6 PUSH2 0x870 JUMP JUMPDEST PUSH1 0x20 DUP3 ADD SWAP2 POP PUSH2 0x8A3 DUP3 DUP5 PUSH2 0x83B JUMP JUMPDEST PUSH1 0x20 DUP3 ADD SWAP2 POP DUP2 SWAP1 POP SWAP4 SWAP3 POP POP POP JUMP JUMPDEST PUSH1 0x0 PUSH1 0x20 DUP3 ADD SWAP1 POP PUSH2 0x8C8 PUSH1 0x0 DUP4 ADD DUP5 PUSH2 0x82C JUMP JUMPDEST SWAP3 SWAP2 POP POP JUMP JUMPDEST PUSH1 0x0 PUSH1 0x20 DUP3 ADD SWAP1 POP PUSH2 0x8E3 PUSH1 0x0 DUP4 ADD DUP5 PUSH2 0x852 JUMP JUMPDEST SWAP3 SWAP2 POP POP JUMP JUMPDEST PUSH1 0x0 PUSH1 0x20 DUP3 ADD SWAP1 POP PUSH2 0x8FE PUSH1 0x0 DUP4 ADD DUP5 PUSH2 0x861 JUMP JUMPDEST SWAP3 SWAP2 POP POP JUMP JUMPDEST PUSH1 0x0 PUSH2 0x90F DUP3 PUSH2 0x9DD JUMP JUMPDEST SWAP2 POP PUSH2 0x91A DUP4 PUSH2 0x9DD JUMP JUMPDEST SWAP3 POP DUP3 PUSH32 0xFFFFFFFFFFFFFFFFFFFFFFFFFFFFFFFFFFFFFFFFFFFFFFFFFFFFFFFFFFFFFFFF SUB DUP3 GT ISZERO PUSH2 0x94F JUMPI PUSH2 0x94E PUSH2 0xA0D JUMP JUMPDEST JUMPDEST DUP3 DUP3 ADD SWAP1 POP SWAP3 SWAP2 POP POP JUMP JUMPDEST PUSH1 0x0 PUSH2 0x965 DUP3 PUSH2 0x9DD JUMP JUMPDEST SWAP2 POP PUSH2 0x970 DUP4 PUSH2 0x9DD JUMP JUMPDEST SWAP3 POP DUP3 DUP3 LT ISZERO PUSH2 0x983 JUMPI PUSH2 0x982 PUSH2 0xA0D JUMP JUMPDEST JUMPDEST DUP3 DUP3 SUB SWAP1 POP SWAP3 SWAP2 POP POP JUMP JUMPDEST PUSH1 0x0 PUSH2 0x999 DUP3 PUSH2 0x9BD JUMP JUMPDEST SWAP1 POP SWAP2 SWAP1 POP JUMP JUMPDEST PUSH1 0x0 DUP2 SWAP1 POP SWAP2 SWAP1 POP JUMP JUMPDEST PUSH1 0x0 DUP2 SWAP1 POP PUSH2 0x9B8 DUP3 PUSH2 0xA70 JUMP JUMPDEST SWAP2 SWAP1 POP JUMP JUMPDEST PUSH1 0x0 PUSH20 0xFFFFFFFFFFFFFFFFFFFFFFFFFFFFFFFFFFFFFFFF DUP3 AND SWAP1 POP SWAP2 SWAP1 POP JUMP JUMPDEST PUSH1 0x0 DUP2 SWAP1 POP SWAP2 SWAP1 POP JUMP JUMPDEST PUSH1 0x0 PUSH2 0x9F2 DUP3 PUSH2 0x9AA JUMP JUMPDEST SWAP1 POP SWAP2 SWAP1 POP JUMP JUMPDEST PUSH1 0x0 DUP2 SWAP1 POP SWAP2 SWAP1 POP JUMP JUMPDEST PUSH1 0x0 DUP2 SWAP1 POP SWAP2 SWAP1 POP JUMP JUMPDEST PUSH32 0x4E487B7100000000000000000000000000000000000000000000000000000000 PUSH1 0x0 MSTORE PUSH1 0x11 PUSH1 0x4 MSTORE PUSH1 0x24 PUSH1 0x0 REVERT JUMPDEST PUSH32 0x4E487B7100000000000000000000000000000000000000000000000000000000 PUSH1 0x0 MSTORE PUSH1 0x21 PUSH1 0x4 MSTORE PUSH1 0x24 PUSH1 0x0 REVERT JUMPDEST PUSH1 0x0 DUP1 REVERT JUMPDEST PUSH1 0x4 DUP2 LT PUSH2 0xA81 JUMPI PUSH2 0xA80 PUSH2 0xA3C JUMP JUMPDEST JUMPDEST POP JUMP JUMPDEST PUSH2 0xA8D DUP2 PUSH2 0x9A0 JUMP JUMPDEST DUP2 EQ PUSH2 0xA98 JUMPI PUSH1 0x0 DUP1 REVERT JUMPDEST POP JUMP JUMPDEST PUSH1 0x4 DUP2 LT PUSH2 0xAA8 JUMPI PUSH1 0x0 DUP1 REVERT JUMPDEST POP JUMP JUMPDEST PUSH2 0xAB4 DUP2 PUSH2 0x9DD JUMP JUMPDEST DUP2 EQ PUSH2 0xABF JUMPI PUSH1 0x0 DUP1 REVERT JUMPDEST POP JUMP INVALID LOG2 PUSH5 0x6970667358 0x22 SLT KECCAK256 SWAP2 EXP JUMPI CHAINID 0x4F 0xE3 SWAP14 0xEC SHR 0x21 0x24 PUSH19 0x9A4BBE579274FC13AFC2ABE0B5E0C28F9C50D1 0xB0 PUSH5 0x736F6C6343 STOP ADDMOD SMOD STOP CALLER "
				},
				"gasEstimates": {
					"creation": {
						"codeDepositCost": "561600",
						"executionCost": "78502",
						"totalCost": "640102"
					},
					"external": {
						"auctionEnd()": "infinite",
						"bid(bytes32)": "47016",
						"changeState(uint8)": "29082",
						"highestBid()": "2495",
						"highestBidder()": "2514",
						"reveal(uint256,bytes32)": "infinite",
						"state()": "2601",
						"withdraw()": "infinite"
					},
					"internal": {
						"placeBid(address,uint256)": "infinite"
					}
				},
				"methodIdentifiers": {
					"auctionEnd()": "2a24f46c",
					"bid(bytes32)": "957bb1e0",
					"changeState(uint8)": "268f1153",
					"highestBid()": "d57bde79",
					"highestBidder()": "91f90157",
					"reveal(uint256,bytes32)": "4036778f",
					"state()": "c19d93fb",
					"withdraw()": "3ccfd60b"
				}
			},
			"storageLayout": {
				"storage": [
					{
						"astId": 16,
						"contract": "contracts/exfile2.sol:BlindAuction",
						"label": "state",
						"offset": 0,
						"slot": "0",
						"type": "t_enum(Phase)11"
					},
					{
						"astId": 18,
						"contract": "contracts/exfile2.sol:BlindAuction",
						"label": "beneficiary",
						"offset": 1,
						"slot": "0",
						"type": "t_address_payable"
					},
					{
						"astId": 23,
						"contract": "contracts/exfile2.sol:BlindAuction",
						"label": "bids",
						"offset": 0,
						"slot": "1",
						"type": "t_mapping(t_address,t_struct(Bid)6_storage)"
					},
					{
						"astId": 25,
						"contract": "contracts/exfile2.sol:BlindAuction",
						"label": "highestBidder",
						"offset": 0,
						"slot": "2",
						"type": "t_address"
					},
					{
						"astId": 28,
						"contract": "contracts/exfile2.sol:BlindAuction",
						"label": "highestBid",
						"offset": 0,
						"slot": "3",
						"type": "t_uint256"
					},
					{
						"astId": 32,
						"contract": "contracts/exfile2.sol:BlindAuction",
						"label": "depositReturns",
						"offset": 0,
						"slot": "4",
						"type": "t_mapping(t_address,t_uint256)"
					}
				],
				"types": {
					"t_address": {
						"encoding": "inplace",
						"label": "address",
						"numberOfBytes": "20"
					},
					"t_address_payable": {
						"encoding": "inplace",
						"label": "address payable",
						"numberOfBytes": "20"
					},
					"t_bytes32": {
						"encoding": "inplace",
						"label": "bytes32",
						"numberOfBytes": "32"
					},
					"t_enum(Phase)11": {
						"encoding": "inplace",
						"label": "enum BlindAuction.Phase",
						"numberOfBytes": "1"
					},
					"t_mapping(t_address,t_struct(Bid)6_storage)": {
						"encoding": "mapping",
						"key": "t_address",
						"label": "mapping(address => struct BlindAuction.Bid)",
						"numberOfBytes": "32",
						"value": "t_struct(Bid)6_storage"
					},
					"t_mapping(t_address,t_uint256)": {
						"encoding": "mapping",
						"key": "t_address",
						"label": "mapping(address => uint256)",
						"numberOfBytes": "32",
						"value": "t_uint256"
					},
					"t_struct(Bid)6_storage": {
						"encoding": "inplace",
						"label": "struct BlindAuction.Bid",
						"members": [
							{
								"astId": 3,
								"contract": "contracts/exfile2.sol:BlindAuction",
								"label": "blindedBid",
								"offset": 0,
								"slot": "0",
								"type": "t_bytes32"
							},
							{
								"astId": 5,
								"contract": "contracts/exfile2.sol:BlindAuction",
								"label": "deposit",
								"offset": 0,
								"slot": "1",
								"type": "t_uint256"
							}
						],
						"numberOfBytes": "64"
					},
					"t_uint256": {
						"encoding": "inplace",
						"label": "uint256",
						"numberOfBytes": "32"
					}
				}
			},
			"userdoc": {
				"kind": "user",
				"methods": {},
				"version": 1
			}
		}
	}
}