{
	"contracts/exfile3.sol": {
		"BlindAuction": {
			"abi": [
				{
					"inputs": [],
					"stateMutability": "nonpayable",
					"type": "constructor"
				},
				{
					"anonymous": false,
					"inputs": [
						{
							"indexed": false,
							"internalType": "address",
							"name": "winner",
							"type": "address"
						},
						{
							"indexed": false,
							"internalType": "uint256",
							"name": "highestBid",
							"type": "uint256"
						}
					],
					"name": "AuctionEnded",
					"type": "event"
				},
				{
					"anonymous": false,
					"inputs": [],
					"name": "AuctionInit",
					"type": "event"
				},
				{
					"anonymous": false,
					"inputs": [],
					"name": "BiddingStarted",
					"type": "event"
				},
				{
					"anonymous": false,
					"inputs": [],
					"name": "RevealStarted",
					"type": "event"
				},
				{
					"inputs": [],
					"name": "advancePhase",
					"outputs": [],
					"stateMutability": "nonpayable",
					"type": "function"
				},
				{
					"inputs": [],
					"name": "auctionEnd",
					"outputs": [],
					"stateMutability": "nonpayable",
					"type": "function"
				},
				{
					"inputs": [
						{
							"internalType": "bytes32",
							"name": "blindBid",
							"type": "bytes32"
						}
					],
					"name": "bid",
					"outputs": [],
					"stateMutability": "payable",
					"type": "function"
				},
				{
					"inputs": [],
					"name": "currentPhase",
					"outputs": [
						{
							"internalType": "enum BlindAuction.Phase",
							"name": "",
							"type": "uint8"
						}
					],
					"stateMutability": "view",
					"type": "function"
				},
				{
					"inputs": [],
					"name": "highestBid",
					"outputs": [
						{
							"internalType": "uint256",
							"name": "",
							"type": "uint256"
						}
					],
					"stateMutability": "view",
					"type": "function"
				},
				{
					"inputs": [],
					"name": "highestBidder",
					"outputs": [
						{
							"internalType": "address",
							"name": "",
							"type": "address"
						}
					],
					"stateMutability": "view",
					"type": "function"
				},
				{
					"inputs": [
						{
							"internalType": "uint256",
							"name": "value",
							"type": "uint256"
						},
						{
							"internalType": "bytes32",
							"name": "secret",
							"type": "bytes32"
						}
					],
					"name": "reveal",
					"outputs": [],
					"stateMutability": "nonpayable",
					"type": "function"
				},
				{
					"inputs": [],
					"name": "withdraw",
					"outputs": [],
					"stateMutability": "nonpayable",
					"type": "function"
				}
			],
			"devdoc": {
				"kind": "dev",
				"methods": {},
				"version": 1
			},
			"evm": {
				"assembly": "    /* \"contracts/exfile3.sol\":26:3538  contract BlindAuction {\r... */\n  mstore(0x40, 0x80)\n    /* \"contracts/exfile3.sol\":390:391  0 */\n  0x00\n    /* \"contracts/exfile3.sol\":366:391  uint public highestBid =0 */\n  0x02\n  sstore\n    /* \"contracts/exfile3.sol\":552:562  Phase.Init */\n  0x00\n    /* \"contracts/exfile3.sol\":524:562  Phase public currentPhase = Phase.Init */\n  0x05\n  exp(0x0100, 0x00)\n  dup2\n  sload\n  dup2\n  0xff\n  mul\n  not\n  and\n  swap1\n  dup4\n  0x03\n  dup2\n  gt\n  iszero\n  tag_1\n  jumpi\n  tag_2\n  tag_3\n  jump\t// in\ntag_2:\ntag_1:\n  mul\n  or\n  swap1\n  sstore\n  pop\n    /* \"contracts/exfile3.sol\":983:1077  constructor() public {\r... */\n  callvalue\n  dup1\n  iszero\n  tag_4\n  jumpi\n  0x00\n  dup1\n  revert\ntag_4:\n  pop\n    /* \"contracts/exfile3.sol\":1035:1045  msg.sender */\n  caller\n    /* \"contracts/exfile3.sol\":1013:1024  beneficiary */\n  0x00\n  dup1\n    /* \"contracts/exfile3.sol\":1013:1046  beneficiary = payable(msg.sender) */\n  0x0100\n  exp\n  dup2\n  sload\n  dup2\n  0xffffffffffffffffffffffffffffffffffffffff\n  mul\n  not\n  and\n  swap1\n  dup4\n  0xffffffffffffffffffffffffffffffffffffffff\n  and\n  mul\n  or\n  swap1\n  sstore\n  pop\n    /* \"contracts/exfile3.sol\":1055:1069  advancePhase() */\n  tag_7\n    /* \"contracts/exfile3.sol\":1055:1067  advancePhase */\n  shl(0x20, tag_8)\n    /* \"contracts/exfile3.sol\":1055:1069  advancePhase() */\n  0x20\n  shr\n  jump\t// in\ntag_7:\n    /* \"contracts/exfile3.sol\":26:3538  contract BlindAuction {\r... */\n  jump(tag_9)\n    /* \"contracts/exfile3.sol\":1085:1757  function advancePhase() public onlyBeneficiary {\r... */\ntag_8:\n    /* \"contracts/exfile3.sol\":901:912  beneficiary */\n  0x00\n  dup1\n  sload\n  swap1\n  0x0100\n  exp\n  swap1\n  div\n  0xffffffffffffffffffffffffffffffffffffffff\n  and\n    /* \"contracts/exfile3.sol\":887:912  msg.sender == beneficiary */\n  0xffffffffffffffffffffffffffffffffffffffff\n  and\n    /* \"contracts/exfile3.sol\":887:897  msg.sender */\n  caller\n    /* \"contracts/exfile3.sol\":887:912  msg.sender == beneficiary */\n  0xffffffffffffffffffffffffffffffffffffffff\n  and\n  eq\n    /* \"contracts/exfile3.sol\":879:957  require(msg.sender == beneficiary, \"Only beneficiary can perform this action\") */\n  tag_11\n  jumpi\n  mload(0x40)\n  0x08c379a000000000000000000000000000000000000000000000000000000000\n  dup2\n  mstore\n  0x04\n  add\n  tag_12\n  swap1\n  tag_13\n  jump\t// in\ntag_12:\n  mload(0x40)\n  dup1\n  swap2\n  sub\n  swap1\n  revert\ntag_11:\n    /* \"contracts/exfile3.sol\":1221:1231  Phase.Done */\n  0x03\n    /* \"contracts/exfile3.sol\":1205:1231  currentPhase == Phase.Done */\n  dup1\n  dup2\n  gt\n  iszero\n  tag_15\n  jumpi\n  tag_16\n  tag_3\n  jump\t// in\ntag_16:\ntag_15:\n    /* \"contracts/exfile3.sol\":1205:1217  currentPhase */\n  0x05\n  0x00\n  swap1\n  sload\n  swap1\n  0x0100\n  exp\n  swap1\n  div\n  0xff\n  and\n    /* \"contracts/exfile3.sol\":1205:1231  currentPhase == Phase.Done */\n  0x03\n  dup2\n  gt\n  iszero\n  tag_17\n  jumpi\n  tag_18\n  tag_3\n  jump\t// in\ntag_18:\ntag_17:\n  eq\n    /* \"contracts/exfile3.sol\":1201:1501  if (currentPhase == Phase.Done) {\r... */\n  iszero\n  tag_19\n  jumpi\n    /* \"contracts/exfile3.sol\":1263:1273  Phase.Init */\n  0x00\n    /* \"contracts/exfile3.sol\":1248:1260  currentPhase */\n  0x05\n  0x00\n    /* \"contracts/exfile3.sol\":1248:1273  currentPhase = Phase.Init */\n  0x0100\n  exp\n  dup2\n  sload\n  dup2\n  0xff\n  mul\n  not\n  and\n  swap1\n  dup4\n  0x03\n  dup2\n  gt\n  iszero\n  tag_20\n  jumpi\n  tag_21\n  tag_3\n  jump\t// in\ntag_21:\ntag_20:\n  mul\n  or\n  swap1\n  sstore\n  pop\n    /* \"contracts/exfile3.sol\":1201:1501  if (currentPhase == Phase.Done) {\r... */\n  jump(tag_22)\ntag_19:\n    /* \"contracts/exfile3.sol\":1408:1422  uint nextPhase */\n  0x00\n    /* \"contracts/exfile3.sol\":1446:1447  1 */\n  0x01\n    /* \"contracts/exfile3.sol\":1430:1442  currentPhase */\n  0x05\n  0x00\n  swap1\n  sload\n  swap1\n  0x0100\n  exp\n  swap1\n  div\n  0xff\n  and\n    /* \"contracts/exfile3.sol\":1425:1443  uint(currentPhase) */\n  0x03\n  dup2\n  gt\n  iszero\n  tag_23\n  jumpi\n  tag_24\n  tag_3\n  jump\t// in\ntag_24:\ntag_23:\n    /* \"contracts/exfile3.sol\":1425:1447  uint(currentPhase) + 1 */\n  tag_25\n  swap2\n  swap1\n  tag_26\n  jump\t// in\ntag_25:\n    /* \"contracts/exfile3.sol\":1408:1447  uint nextPhase = uint(currentPhase) + 1 */\n  swap1\n  pop\n    /* \"contracts/exfile3.sol\":1479:1488  nextPhase */\n  dup1\n    /* \"contracts/exfile3.sol\":1473:1489  Phase(nextPhase) */\n  0x03\n  dup2\n  gt\n  iszero\n  tag_27\n  jumpi\n  tag_28\n  tag_3\n  jump\t// in\ntag_28:\ntag_27:\n    /* \"contracts/exfile3.sol\":1458:1470  currentPhase */\n  0x05\n  0x00\n    /* \"contracts/exfile3.sol\":1458:1489  currentPhase = Phase(nextPhase) */\n  0x0100\n  exp\n  dup2\n  sload\n  dup2\n  0xff\n  mul\n  not\n  and\n  swap1\n  dup4\n  0x03\n  dup2\n  gt\n  iszero\n  tag_29\n  jumpi\n  tag_30\n  tag_3\n  jump\t// in\ntag_30:\ntag_29:\n  mul\n  or\n  swap1\n  sstore\n  pop\n    /* \"contracts/exfile3.sol\":1291:1501  {\r... */\n  pop\n    /* \"contracts/exfile3.sol\":1201:1501  if (currentPhase == Phase.Done) {\r... */\ntag_22:\n    /* \"contracts/exfile3.sol\":1587:1599  Phase.Reveal */\n  0x02\n    /* \"contracts/exfile3.sol\":1571:1599  currentPhase == Phase.Reveal */\n  0x03\n  dup2\n  gt\n  iszero\n  tag_31\n  jumpi\n  tag_32\n  tag_3\n  jump\t// in\ntag_32:\ntag_31:\n    /* \"contracts/exfile3.sol\":1571:1583  currentPhase */\n  0x05\n  0x00\n  swap1\n  sload\n  swap1\n  0x0100\n  exp\n  swap1\n  div\n  0xff\n  and\n    /* \"contracts/exfile3.sol\":1571:1599  currentPhase == Phase.Reveal */\n  0x03\n  dup2\n  gt\n  iszero\n  tag_33\n  jumpi\n  tag_34\n  tag_3\n  jump\t// in\ntag_34:\ntag_33:\n  eq\n    /* \"contracts/exfile3.sol\":1567:1621  if (currentPhase == Phase.Reveal) emit RevealStarted() */\n  iszero\n  tag_35\n  jumpi\n    /* \"contracts/exfile3.sol\":1606:1621  RevealStarted() */\n  0x3bcc93d35219aa0512d7c0d1ca10b0231f473e3d5f9396877d1b7215ee0ab3d5\n  mload(0x40)\n  mload(0x40)\n  dup1\n  swap2\n  sub\n  swap1\n  log1\n    /* \"contracts/exfile3.sol\":1567:1621  if (currentPhase == Phase.Reveal) emit RevealStarted() */\ntag_35:\n    /* \"contracts/exfile3.sol\":1652:1665  Phase.Bidding */\n  0x01\n    /* \"contracts/exfile3.sol\":1636:1665  currentPhase == Phase.Bidding */\n  0x03\n  dup2\n  gt\n  iszero\n  tag_36\n  jumpi\n  tag_37\n  tag_3\n  jump\t// in\ntag_37:\ntag_36:\n    /* \"contracts/exfile3.sol\":1636:1648  currentPhase */\n  0x05\n  0x00\n  swap1\n  sload\n  swap1\n  0x0100\n  exp\n  swap1\n  div\n  0xff\n  and\n    /* \"contracts/exfile3.sol\":1636:1665  currentPhase == Phase.Bidding */\n  0x03\n  dup2\n  gt\n  iszero\n  tag_38\n  jumpi\n  tag_39\n  tag_3\n  jump\t// in\ntag_39:\ntag_38:\n  eq\n    /* \"contracts/exfile3.sol\":1632:1688  if (currentPhase == Phase.Bidding) emit BiddingStarted() */\n  iszero\n  tag_40\n  jumpi\n    /* \"contracts/exfile3.sol\":1672:1688  BiddingStarted() */\n  0x02c124e22ee7da1c9905bbb317cf67658c1cc3ea1c0953b1633f85d0b5c281d9\n  mload(0x40)\n  mload(0x40)\n  dup1\n  swap2\n  sub\n  swap1\n  log1\n    /* \"contracts/exfile3.sol\":1632:1688  if (currentPhase == Phase.Bidding) emit BiddingStarted() */\ntag_40:\n    /* \"contracts/exfile3.sol\":1719:1729  Phase.Init */\n  0x00\n    /* \"contracts/exfile3.sol\":1703:1729  currentPhase == Phase.Init */\n  0x03\n  dup2\n  gt\n  iszero\n  tag_41\n  jumpi\n  tag_42\n  tag_3\n  jump\t// in\ntag_42:\ntag_41:\n    /* \"contracts/exfile3.sol\":1703:1715  currentPhase */\n  0x05\n  0x00\n  swap1\n  sload\n  swap1\n  0x0100\n  exp\n  swap1\n  div\n  0xff\n  and\n    /* \"contracts/exfile3.sol\":1703:1729  currentPhase == Phase.Init */\n  0x03\n  dup2\n  gt\n  iszero\n  tag_43\n  jumpi\n  tag_44\n  tag_3\n  jump\t// in\ntag_44:\ntag_43:\n  eq\n    /* \"contracts/exfile3.sol\":1699:1749  if (currentPhase == Phase.Init) emit AuctionInit() */\n  iszero\n  tag_45\n  jumpi\n    /* \"contracts/exfile3.sol\":1736:1749  AuctionInit() */\n  0x8ad2842071cb64589c8e006941bc20b615aae08a93530e211ca7c9639bd26d97\n  mload(0x40)\n  mload(0x40)\n  dup1\n  swap2\n  sub\n  swap1\n  log1\n    /* \"contracts/exfile3.sol\":1699:1749  if (currentPhase == Phase.Init) emit AuctionInit() */\ntag_45:\n    /* \"contracts/exfile3.sol\":1085:1757  function advancePhase() public onlyBeneficiary {\r... */\n  jump\t// out\n    /* \"#utility.yul\":7:373   */\ntag_47:\n    /* \"#utility.yul\":149:152   */\n  0x00\n    /* \"#utility.yul\":170:237   */\n  tag_49\n    /* \"#utility.yul\":234:236   */\n  0x28\n    /* \"#utility.yul\":229:232   */\n  dup4\n    /* \"#utility.yul\":170:237   */\n  tag_50\n  jump\t// in\ntag_49:\n    /* \"#utility.yul\":163:237   */\n  swap2\n  pop\n    /* \"#utility.yul\":246:339   */\n  tag_51\n    /* \"#utility.yul\":335:338   */\n  dup3\n    /* \"#utility.yul\":246:339   */\n  tag_52\n  jump\t// in\ntag_51:\n    /* \"#utility.yul\":364:366   */\n  0x40\n    /* \"#utility.yul\":359:362   */\n  dup3\n    /* \"#utility.yul\":355:367   */\n  add\n    /* \"#utility.yul\":348:367   */\n  swap1\n  pop\n    /* \"#utility.yul\":7:373   */\n  swap2\n  swap1\n  pop\n  jump\t// out\n    /* \"#utility.yul\":379:798   */\ntag_13:\n    /* \"#utility.yul\":545:549   */\n  0x00\n    /* \"#utility.yul\":583:585   */\n  0x20\n    /* \"#utility.yul\":572:581   */\n  dup3\n    /* \"#utility.yul\":568:586   */\n  add\n    /* \"#utility.yul\":560:586   */\n  swap1\n  pop\n    /* \"#utility.yul\":632:641   */\n  dup2\n    /* \"#utility.yul\":626:630   */\n  dup2\n    /* \"#utility.yul\":622:642   */\n  sub\n    /* \"#utility.yul\":618:619   */\n  0x00\n    /* \"#utility.yul\":607:616   */\n  dup4\n    /* \"#utility.yul\":603:620   */\n  add\n    /* \"#utility.yul\":596:643   */\n  mstore\n    /* \"#utility.yul\":660:791   */\n  tag_54\n    /* \"#utility.yul\":786:790   */\n  dup2\n    /* \"#utility.yul\":660:791   */\n  tag_47\n  jump\t// in\ntag_54:\n    /* \"#utility.yul\":652:791   */\n  swap1\n  pop\n    /* \"#utility.yul\":379:798   */\n  swap2\n  swap1\n  pop\n  jump\t// out\n    /* \"#utility.yul\":804:973   */\ntag_50:\n    /* \"#utility.yul\":888:899   */\n  0x00\n    /* \"#utility.yul\":922:928   */\n  dup3\n    /* \"#utility.yul\":917:920   */\n  dup3\n    /* \"#utility.yul\":910:929   */\n  mstore\n    /* \"#utility.yul\":962:966   */\n  0x20\n    /* \"#utility.yul\":957:960   */\n  dup3\n    /* \"#utility.yul\":953:967   */\n  add\n    /* \"#utility.yul\":938:967   */\n  swap1\n  pop\n    /* \"#utility.yul\":804:973   */\n  swap3\n  swap2\n  pop\n  pop\n  jump\t// out\n    /* \"#utility.yul\":979:1284   */\ntag_26:\n    /* \"#utility.yul\":1019:1022   */\n  0x00\n    /* \"#utility.yul\":1038:1058   */\n  tag_57\n    /* \"#utility.yul\":1056:1057   */\n  dup3\n    /* \"#utility.yul\":1038:1058   */\n  tag_58\n  jump\t// in\ntag_57:\n    /* \"#utility.yul\":1033:1058   */\n  swap2\n  pop\n    /* \"#utility.yul\":1072:1092   */\n  tag_59\n    /* \"#utility.yul\":1090:1091   */\n  dup4\n    /* \"#utility.yul\":1072:1092   */\n  tag_58\n  jump\t// in\ntag_59:\n    /* \"#utility.yul\":1067:1092   */\n  swap3\n  pop\n    /* \"#utility.yul\":1226:1227   */\n  dup3\n    /* \"#utility.yul\":1158:1224   */\n  0xffffffffffffffffffffffffffffffffffffffffffffffffffffffffffffffff\n    /* \"#utility.yul\":1154:1228   */\n  sub\n    /* \"#utility.yul\":1151:1152   */\n  dup3\n    /* \"#utility.yul\":1148:1229   */\n  gt\n    /* \"#utility.yul\":1145:1252   */\n  iszero\n  tag_60\n  jumpi\n    /* \"#utility.yul\":1232:1250   */\n  tag_61\n  tag_62\n  jump\t// in\ntag_61:\n    /* \"#utility.yul\":1145:1252   */\ntag_60:\n    /* \"#utility.yul\":1276:1277   */\n  dup3\n    /* \"#utility.yul\":1273:1274   */\n  dup3\n    /* \"#utility.yul\":1269:1278   */\n  add\n    /* \"#utility.yul\":1262:1278   */\n  swap1\n  pop\n    /* \"#utility.yul\":979:1284   */\n  swap3\n  swap2\n  pop\n  pop\n  jump\t// out\n    /* \"#utility.yul\":1290:1367   */\ntag_58:\n    /* \"#utility.yul\":1327:1334   */\n  0x00\n    /* \"#utility.yul\":1356:1361   */\n  dup2\n    /* \"#utility.yul\":1345:1361   */\n  swap1\n  pop\n    /* \"#utility.yul\":1290:1367   */\n  swap2\n  swap1\n  pop\n  jump\t// out\n    /* \"#utility.yul\":1373:1553   */\ntag_62:\n    /* \"#utility.yul\":1421:1498   */\n  0x4e487b7100000000000000000000000000000000000000000000000000000000\n    /* \"#utility.yul\":1418:1419   */\n  0x00\n    /* \"#utility.yul\":1411:1499   */\n  mstore\n    /* \"#utility.yul\":1518:1522   */\n  0x11\n    /* \"#utility.yul\":1515:1516   */\n  0x04\n    /* \"#utility.yul\":1508:1523   */\n  mstore\n    /* \"#utility.yul\":1542:1546   */\n  0x24\n    /* \"#utility.yul\":1539:1540   */\n  0x00\n    /* \"#utility.yul\":1532:1547   */\n  revert\n    /* \"#utility.yul\":1559:1739   */\ntag_3:\n    /* \"#utility.yul\":1607:1684   */\n  0x4e487b7100000000000000000000000000000000000000000000000000000000\n    /* \"#utility.yul\":1604:1605   */\n  0x00\n    /* \"#utility.yul\":1597:1685   */\n  mstore\n    /* \"#utility.yul\":1704:1708   */\n  0x21\n    /* \"#utility.yul\":1701:1702   */\n  0x04\n    /* \"#utility.yul\":1694:1709   */\n  mstore\n    /* \"#utility.yul\":1728:1732   */\n  0x24\n    /* \"#utility.yul\":1725:1726   */\n  0x00\n    /* \"#utility.yul\":1718:1733   */\n  revert\n    /* \"#utility.yul\":1745:1972   */\ntag_52:\n    /* \"#utility.yul\":1885:1919   */\n  0x4f6e6c792062656e65666963696172792063616e20706572666f726d20746869\n    /* \"#utility.yul\":1881:1882   */\n  0x00\n    /* \"#utility.yul\":1873:1879   */\n  dup3\n    /* \"#utility.yul\":1869:1883   */\n  add\n    /* \"#utility.yul\":1862:1920   */\n  mstore\n    /* \"#utility.yul\":1954:1964   */\n  0x7320616374696f6e000000000000000000000000000000000000000000000000\n    /* \"#utility.yul\":1949:1951   */\n  0x20\n    /* \"#utility.yul\":1941:1947   */\n  dup3\n    /* \"#utility.yul\":1937:1952   */\n  add\n    /* \"#utility.yul\":1930:1965   */\n  mstore\n    /* \"#utility.yul\":1745:1972   */\n  pop\n  jump\t// out\n    /* \"contracts/exfile3.sol\":26:3538  contract BlindAuction {\r... */\ntag_9:\n  dataSize(sub_0)\n  dup1\n  dataOffset(sub_0)\n  0x00\n  codecopy\n  0x00\n  return\nstop\n\nsub_0: assembly {\n        /* \"contracts/exfile3.sol\":26:3538  contract BlindAuction {\r... */\n      mstore(0x40, 0x80)\n      jumpi(tag_1, lt(calldatasize, 0x04))\n      shr(0xe0, calldataload(0x00))\n      dup1\n      0x91f90157\n      gt\n      tag_10\n      jumpi\n      dup1\n      0x91f90157\n      eq\n      tag_6\n      jumpi\n      dup1\n      0x957bb1e0\n      eq\n      tag_7\n      jumpi\n      dup1\n      0xbe25a718\n      eq\n      tag_8\n      jumpi\n      dup1\n      0xd57bde79\n      eq\n      tag_9\n      jumpi\n      jump(tag_1)\n    tag_10:\n      dup1\n      0x055ad42e\n      eq\n      tag_2\n      jumpi\n      dup1\n      0x2a24f46c\n      eq\n      tag_3\n      jumpi\n      dup1\n      0x3ccfd60b\n      eq\n      tag_4\n      jumpi\n      dup1\n      0x4036778f\n      eq\n      tag_5\n      jumpi\n    tag_1:\n      0x00\n      dup1\n      revert\n        /* \"contracts/exfile3.sol\":524:562  Phase public currentPhase = Phase.Init */\n    tag_2:\n      callvalue\n      dup1\n      iszero\n      tag_11\n      jumpi\n      0x00\n      dup1\n      revert\n    tag_11:\n      pop\n      tag_12\n      tag_13\n      jump\t// in\n    tag_12:\n      mload(0x40)\n      tag_14\n      swap2\n      swap1\n      tag_15\n      jump\t// in\n    tag_14:\n      mload(0x40)\n      dup1\n      swap2\n      sub\n      swap1\n      return\n        /* \"contracts/exfile3.sol\":3377:3535  function auctionEnd() public validPhase(Phase.Done) {\r... */\n    tag_3:\n      callvalue\n      dup1\n      iszero\n      tag_16\n      jumpi\n      0x00\n      dup1\n      revert\n    tag_16:\n      pop\n      tag_17\n      tag_18\n      jump\t// in\n    tag_17:\n      stop\n        /* \"contracts/exfile3.sol\":3073:3293  function withdraw() public {\r... */\n    tag_4:\n      callvalue\n      dup1\n      iszero\n      tag_19\n      jumpi\n      0x00\n      dup1\n      revert\n    tag_19:\n      pop\n      tag_20\n      tag_21\n      jump\t// in\n    tag_20:\n      stop\n        /* \"contracts/exfile3.sol\":1967:2461  function reveal(uint value, bytes32 secret) public validPhase(Phase.Reveal) {\r... */\n    tag_5:\n      callvalue\n      dup1\n      iszero\n      tag_22\n      jumpi\n      0x00\n      dup1\n      revert\n    tag_22:\n      pop\n      tag_23\n      0x04\n      dup1\n      calldatasize\n      sub\n      dup2\n      add\n      swap1\n      tag_24\n      swap2\n      swap1\n      tag_25\n      jump\t// in\n    tag_24:\n      tag_26\n      jump\t// in\n    tag_23:\n      stop\n        /* \"contracts/exfile3.sol\":331:359  address public highestBidder */\n    tag_6:\n      callvalue\n      dup1\n      iszero\n      tag_27\n      jumpi\n      0x00\n      dup1\n      revert\n    tag_27:\n      pop\n      tag_28\n      tag_29\n      jump\t// in\n    tag_28:\n      mload(0x40)\n      tag_30\n      swap2\n      swap1\n      tag_31\n      jump\t// in\n    tag_30:\n      mload(0x40)\n      dup1\n      swap2\n      sub\n      swap1\n      return\n        /* \"contracts/exfile3.sol\":1765:1959  function bid(bytes32 blindBid) public payable validPhase(Phase.Bidding) {\r... */\n    tag_7:\n      tag_32\n      0x04\n      dup1\n      calldatasize\n      sub\n      dup2\n      add\n      swap1\n      tag_33\n      swap2\n      swap1\n      tag_34\n      jump\t// in\n    tag_33:\n      tag_35\n      jump\t// in\n    tag_32:\n      stop\n        /* \"contracts/exfile3.sol\":1085:1757  function advancePhase() public onlyBeneficiary {\r... */\n    tag_8:\n      callvalue\n      dup1\n      iszero\n      tag_36\n      jumpi\n      0x00\n      dup1\n      revert\n    tag_36:\n      pop\n      tag_37\n      tag_38\n      jump\t// in\n    tag_37:\n      stop\n        /* \"contracts/exfile3.sol\":366:391  uint public highestBid =0 */\n    tag_9:\n      callvalue\n      dup1\n      iszero\n      tag_39\n      jumpi\n      0x00\n      dup1\n      revert\n    tag_39:\n      pop\n      tag_40\n      tag_41\n      jump\t// in\n    tag_40:\n      mload(0x40)\n      tag_42\n      swap2\n      swap1\n      tag_43\n      jump\t// in\n    tag_42:\n      mload(0x40)\n      dup1\n      swap2\n      sub\n      swap1\n      return\n        /* \"contracts/exfile3.sol\":524:562  Phase public currentPhase = Phase.Init */\n    tag_13:\n      0x05\n      0x00\n      swap1\n      sload\n      swap1\n      0x0100\n      exp\n      swap1\n      div\n      0xff\n      and\n      dup2\n      jump\t// out\n        /* \"contracts/exfile3.sol\":3377:3535  function auctionEnd() public validPhase(Phase.Done) {\r... */\n    tag_18:\n        /* \"contracts/exfile3.sol\":3417:3427  Phase.Done */\n      0x03\n        /* \"contracts/exfile3.sol\":811:816  phase */\n      dup1\n        /* \"contracts/exfile3.sol\":795:816  currentPhase == phase */\n      0x03\n      dup2\n      gt\n      iszero\n      tag_45\n      jumpi\n      tag_46\n      tag_47\n      jump\t// in\n    tag_46:\n    tag_45:\n        /* \"contracts/exfile3.sol\":795:807  currentPhase */\n      0x05\n      0x00\n      swap1\n      sload\n      swap1\n      0x0100\n      exp\n      swap1\n      div\n      0xff\n      and\n        /* \"contracts/exfile3.sol\":795:816  currentPhase == phase */\n      0x03\n      dup2\n      gt\n      iszero\n      tag_48\n      jumpi\n      tag_49\n      tag_47\n      jump\t// in\n    tag_49:\n    tag_48:\n      eq\n        /* \"contracts/exfile3.sol\":787:817  require(currentPhase == phase) */\n      tag_50\n      jumpi\n      0x00\n      dup1\n      revert\n    tag_50:\n        /* \"contracts/exfile3.sol\":3440:3451  beneficiary */\n      0x00\n      dup1\n      sload\n      swap1\n      0x0100\n      exp\n      swap1\n      div\n      0xffffffffffffffffffffffffffffffffffffffff\n      and\n        /* \"contracts/exfile3.sol\":3440:3460  beneficiary.transfer */\n      0xffffffffffffffffffffffffffffffffffffffff\n      and\n        /* \"contracts/exfile3.sol\":3440:3472  beneficiary.transfer(highestBid) */\n      0x08fc\n        /* \"contracts/exfile3.sol\":3461:3471  highestBid */\n      sload(0x02)\n        /* \"contracts/exfile3.sol\":3440:3472  beneficiary.transfer(highestBid) */\n      swap1\n      dup2\n      iszero\n      mul\n      swap1\n      mload(0x40)\n      0x00\n      mload(0x40)\n      dup1\n      dup4\n      sub\n      dup2\n      dup6\n      dup9\n      dup9\n      call\n      swap4\n      pop\n      pop\n      pop\n      pop\n      iszero\n      dup1\n      iszero\n      tag_53\n      jumpi\n      returndatasize\n      0x00\n      dup1\n      returndatacopy\n      revert(0x00, returndatasize)\n    tag_53:\n      pop\n        /* \"contracts/exfile3.sol\":3488:3527  AuctionEnded(highestBidder, highestBid) */\n      0xdaec4582d5d9595688c8c98545fdd1c696d41c6aeaeb636737e84ed2f5c00eda\n        /* \"contracts/exfile3.sol\":3501:3514  highestBidder */\n      0x01\n      0x00\n      swap1\n      sload\n      swap1\n      0x0100\n      exp\n      swap1\n      div\n      0xffffffffffffffffffffffffffffffffffffffff\n      and\n        /* \"contracts/exfile3.sol\":3516:3526  highestBid */\n      sload(0x02)\n        /* \"contracts/exfile3.sol\":3488:3527  AuctionEnded(highestBidder, highestBid) */\n      mload(0x40)\n      tag_54\n      swap3\n      swap2\n      swap1\n      tag_55\n      jump\t// in\n    tag_54:\n      mload(0x40)\n      dup1\n      swap2\n      sub\n      swap1\n      log1\n        /* \"contracts/exfile3.sol\":3377:3535  function auctionEnd() public validPhase(Phase.Done) {\r... */\n      pop\n      jump\t// out\n        /* \"contracts/exfile3.sol\":3073:3293  function withdraw() public {\r... */\n    tag_21:\n        /* \"contracts/exfile3.sol\":3111:3122  uint amount */\n      0x00\n        /* \"contracts/exfile3.sol\":3125:3139  pendingReturns */\n      0x04\n        /* \"contracts/exfile3.sol\":3125:3151  pendingReturns[msg.sender] */\n      0x00\n        /* \"contracts/exfile3.sol\":3140:3150  msg.sender */\n      caller\n        /* \"contracts/exfile3.sol\":3125:3151  pendingReturns[msg.sender] */\n      0xffffffffffffffffffffffffffffffffffffffff\n      and\n      0xffffffffffffffffffffffffffffffffffffffff\n      and\n      dup2\n      mstore\n      0x20\n      add\n      swap1\n      dup2\n      mstore\n      0x20\n      add\n      0x00\n      keccak256\n      sload\n        /* \"contracts/exfile3.sol\":3111:3151  uint amount = pendingReturns[msg.sender] */\n      swap1\n      pop\n        /* \"contracts/exfile3.sol\":3175:3176  0 */\n      0x00\n        /* \"contracts/exfile3.sol\":3166:3172  amount */\n      dup2\n        /* \"contracts/exfile3.sol\":3166:3176  amount > 0 */\n      gt\n        /* \"contracts/exfile3.sol\":3162:3286  if (amount > 0) {\r... */\n      iszero\n      tag_57\n      jumpi\n        /* \"contracts/exfile3.sol\":3222:3223  0 */\n      0x00\n        /* \"contracts/exfile3.sol\":3193:3207  pendingReturns */\n      0x04\n        /* \"contracts/exfile3.sol\":3193:3219  pendingReturns[msg.sender] */\n      0x00\n        /* \"contracts/exfile3.sol\":3208:3218  msg.sender */\n      caller\n        /* \"contracts/exfile3.sol\":3193:3219  pendingReturns[msg.sender] */\n      0xffffffffffffffffffffffffffffffffffffffff\n      and\n      0xffffffffffffffffffffffffffffffffffffffff\n      and\n      dup2\n      mstore\n      0x20\n      add\n      swap1\n      dup2\n      mstore\n      0x20\n      add\n      0x00\n      keccak256\n        /* \"contracts/exfile3.sol\":3193:3223  pendingReturns[msg.sender] = 0 */\n      dup2\n      swap1\n      sstore\n      pop\n        /* \"contracts/exfile3.sol\":3246:3256  msg.sender */\n      caller\n        /* \"contracts/exfile3.sol\":3238:3266  payable(msg.sender).transfer */\n      0xffffffffffffffffffffffffffffffffffffffff\n      and\n        /* \"contracts/exfile3.sol\":3238:3274  payable(msg.sender).transfer(amount) */\n      0x08fc\n        /* \"contracts/exfile3.sol\":3267:3273  amount */\n      dup3\n        /* \"contracts/exfile3.sol\":3238:3274  payable(msg.sender).transfer(amount) */\n      swap1\n      dup2\n      iszero\n      mul\n      swap1\n      mload(0x40)\n      0x00\n      mload(0x40)\n      dup1\n      dup4\n      sub\n      dup2\n      dup6\n      dup9\n      dup9\n      call\n      swap4\n      pop\n      pop\n      pop\n      pop\n      iszero\n      dup1\n      iszero\n      tag_59\n      jumpi\n      returndatasize\n      0x00\n      dup1\n      returndatacopy\n      revert(0x00, returndatasize)\n    tag_59:\n      pop\n        /* \"contracts/exfile3.sol\":3162:3286  if (amount > 0) {\r... */\n    tag_57:\n        /* \"contracts/exfile3.sol\":3100:3293  {\r... */\n      pop\n        /* \"contracts/exfile3.sol\":3073:3293  function withdraw() public {\r... */\n      jump\t// out\n        /* \"contracts/exfile3.sol\":1967:2461  function reveal(uint value, bytes32 secret) public validPhase(Phase.Reveal) {\r... */\n    tag_26:\n        /* \"contracts/exfile3.sol\":2029:2041  Phase.Reveal */\n      0x02\n        /* \"contracts/exfile3.sol\":811:816  phase */\n      dup1\n        /* \"contracts/exfile3.sol\":795:816  currentPhase == phase */\n      0x03\n      dup2\n      gt\n      iszero\n      tag_61\n      jumpi\n      tag_62\n      tag_47\n      jump\t// in\n    tag_62:\n    tag_61:\n        /* \"contracts/exfile3.sol\":795:807  currentPhase */\n      0x05\n      0x00\n      swap1\n      sload\n      swap1\n      0x0100\n      exp\n      swap1\n      div\n      0xff\n      and\n        /* \"contracts/exfile3.sol\":795:816  currentPhase == phase */\n      0x03\n      dup2\n      gt\n      iszero\n      tag_63\n      jumpi\n      tag_64\n      tag_47\n      jump\t// in\n    tag_64:\n    tag_63:\n      eq\n        /* \"contracts/exfile3.sol\":787:817  require(currentPhase == phase) */\n      tag_65\n      jumpi\n      0x00\n      dup1\n      revert\n    tag_65:\n        /* \"contracts/exfile3.sol\":2054:2065  uint refund */\n      0x00\n        /* \"contracts/exfile3.sol\":2080:2102  Bid storage bidToCheck */\n      dup1\n        /* \"contracts/exfile3.sol\":2105:2109  bids */\n      0x03\n        /* \"contracts/exfile3.sol\":2105:2121  bids[msg.sender] */\n      0x00\n        /* \"contracts/exfile3.sol\":2110:2120  msg.sender */\n      caller\n        /* \"contracts/exfile3.sol\":2105:2121  bids[msg.sender] */\n      0xffffffffffffffffffffffffffffffffffffffff\n      and\n      0xffffffffffffffffffffffffffffffffffffffff\n      and\n      dup2\n      mstore\n      0x20\n      add\n      swap1\n      dup2\n      mstore\n      0x20\n      add\n      0x00\n      keccak256\n        /* \"contracts/exfile3.sol\":2080:2121  Bid storage bidToCheck = bids[msg.sender] */\n      swap1\n      pop\n        /* \"contracts/exfile3.sol\":2192:2197  value */\n      dup5\n        /* \"contracts/exfile3.sol\":2199:2205  secret */\n      dup5\n        /* \"contracts/exfile3.sol\":2175:2206  abi.encodePacked(value, secret) */\n      add(0x20, mload(0x40))\n      tag_67\n      swap3\n      swap2\n      swap1\n      tag_68\n      jump\t// in\n    tag_67:\n      mload(0x40)\n      0x20\n      dup2\n      dup4\n      sub\n      sub\n      dup2\n      mstore\n      swap1\n      0x40\n      mstore\n        /* \"contracts/exfile3.sol\":2165:2207  keccak256(abi.encodePacked(value, secret)) */\n      dup1\n      mload\n      swap1\n      0x20\n      add\n      keccak256\n        /* \"contracts/exfile3.sol\":2140:2150  bidToCheck */\n      dup2\n        /* \"contracts/exfile3.sol\":2140:2161  bidToCheck.blindedBid */\n      0x00\n      add\n      sload\n        /* \"contracts/exfile3.sol\":2140:2207  bidToCheck.blindedBid == keccak256(abi.encodePacked(value, secret)) */\n      eq\n        /* \"contracts/exfile3.sol\":2132:2228  require(bidToCheck.blindedBid == keccak256(abi.encodePacked(value, secret)), \"not matching bid\") */\n      tag_69\n      jumpi\n      mload(0x40)\n      0x08c379a000000000000000000000000000000000000000000000000000000000\n      dup2\n      mstore\n      0x04\n      add\n      tag_70\n      swap1\n      tag_71\n      jump\t// in\n    tag_70:\n      mload(0x40)\n      dup1\n      swap2\n      sub\n      swap1\n      revert\n    tag_69:\n        /* \"contracts/exfile3.sol\":2249:2259  bidToCheck */\n      dup1\n        /* \"contracts/exfile3.sol\":2249:2267  bidToCheck.deposit */\n      0x01\n      add\n      sload\n        /* \"contracts/exfile3.sol\":2239:2267  refund += bidToCheck.deposit */\n      dup3\n      tag_72\n      swap2\n      swap1\n      tag_73\n      jump\t// in\n    tag_72:\n      swap2\n      pop\n        /* \"contracts/exfile3.sol\":2304:2309  value */\n      dup5\n        /* \"contracts/exfile3.sol\":2282:2292  bidToCheck */\n      dup2\n        /* \"contracts/exfile3.sol\":2282:2300  bidToCheck.deposit */\n      0x01\n      add\n      sload\n        /* \"contracts/exfile3.sol\":2282:2309  bidToCheck.deposit >= value */\n      lt\n        /* \"contracts/exfile3.sol\":2278:2407  if (bidToCheck.deposit >= value) {\r... */\n      tag_74\n      jumpi\n        /* \"contracts/exfile3.sol\":2330:2357  placeBid(msg.sender, value) */\n      tag_75\n        /* \"contracts/exfile3.sol\":2339:2349  msg.sender */\n      caller\n        /* \"contracts/exfile3.sol\":2351:2356  value */\n      dup7\n        /* \"contracts/exfile3.sol\":2330:2338  placeBid */\n      tag_76\n        /* \"contracts/exfile3.sol\":2330:2357  placeBid(msg.sender, value) */\n      jump\t// in\n    tag_75:\n        /* \"contracts/exfile3.sol\":2326:2391  if (placeBid(msg.sender, value))\r... */\n      iszero\n      tag_77\n      jumpi\n        /* \"contracts/exfile3.sol\":2386:2391  value */\n      dup5\n        /* \"contracts/exfile3.sol\":2376:2391  refund -= value */\n      dup3\n      tag_78\n      swap2\n      swap1\n      tag_79\n      jump\t// in\n    tag_78:\n      swap2\n      pop\n        /* \"contracts/exfile3.sol\":2326:2391  if (placeBid(msg.sender, value))\r... */\n    tag_77:\n        /* \"contracts/exfile3.sol\":2278:2407  if (bidToCheck.deposit >= value) {\r... */\n    tag_74:\n        /* \"contracts/exfile3.sol\":2425:2435  msg.sender */\n      caller\n        /* \"contracts/exfile3.sol\":2417:2445  payable(msg.sender).transfer */\n      0xffffffffffffffffffffffffffffffffffffffff\n      and\n        /* \"contracts/exfile3.sol\":2417:2453  payable(msg.sender).transfer(refund) */\n      0x08fc\n        /* \"contracts/exfile3.sol\":2446:2452  refund */\n      dup4\n        /* \"contracts/exfile3.sol\":2417:2453  payable(msg.sender).transfer(refund) */\n      swap1\n      dup2\n      iszero\n      mul\n      swap1\n      mload(0x40)\n      0x00\n      mload(0x40)\n      dup1\n      dup4\n      sub\n      dup2\n      dup6\n      dup9\n      dup9\n      call\n      swap4\n      pop\n      pop\n      pop\n      pop\n      iszero\n      dup1\n      iszero\n      tag_81\n      jumpi\n      returndatasize\n      0x00\n      dup1\n      returndatacopy\n      revert(0x00, returndatasize)\n    tag_81:\n      pop\n        /* \"contracts/exfile3.sol\":2043:2461  {\r... */\n      pop\n      pop\n        /* \"contracts/exfile3.sol\":1967:2461  function reveal(uint value, bytes32 secret) public validPhase(Phase.Reveal) {\r... */\n      pop\n      pop\n      pop\n      jump\t// out\n        /* \"contracts/exfile3.sol\":331:359  address public highestBidder */\n    tag_29:\n      0x01\n      0x00\n      swap1\n      sload\n      swap1\n      0x0100\n      exp\n      swap1\n      div\n      0xffffffffffffffffffffffffffffffffffffffff\n      and\n      dup2\n      jump\t// out\n        /* \"contracts/exfile3.sol\":1765:1959  function bid(bytes32 blindBid) public payable validPhase(Phase.Bidding) {\r... */\n    tag_35:\n        /* \"contracts/exfile3.sol\":1822:1835  Phase.Bidding */\n      0x01\n        /* \"contracts/exfile3.sol\":811:816  phase */\n      dup1\n        /* \"contracts/exfile3.sol\":795:816  currentPhase == phase */\n      0x03\n      dup2\n      gt\n      iszero\n      tag_83\n      jumpi\n      tag_84\n      tag_47\n      jump\t// in\n    tag_84:\n    tag_83:\n        /* \"contracts/exfile3.sol\":795:807  currentPhase */\n      0x05\n      0x00\n      swap1\n      sload\n      swap1\n      0x0100\n      exp\n      swap1\n      div\n      0xff\n      and\n        /* \"contracts/exfile3.sol\":795:816  currentPhase == phase */\n      0x03\n      dup2\n      gt\n      iszero\n      tag_85\n      jumpi\n      tag_86\n      tag_47\n      jump\t// in\n    tag_86:\n    tag_85:\n      eq\n        /* \"contracts/exfile3.sol\":787:817  require(currentPhase == phase) */\n      tag_87\n      jumpi\n      0x00\n      dup1\n      revert\n    tag_87:\n        /* \"contracts/exfile3.sol\":1867:1951  Bid({\r... */\n      mload(0x40)\n      dup1\n      0x40\n      add\n      0x40\n      mstore\n      dup1\n        /* \"contracts/exfile3.sol\":1898:1906  blindBid */\n      dup4\n        /* \"contracts/exfile3.sol\":1867:1951  Bid({\r... */\n      dup2\n      mstore\n      0x20\n      add\n        /* \"contracts/exfile3.sol\":1930:1939  msg.value */\n      callvalue\n        /* \"contracts/exfile3.sol\":1867:1951  Bid({\r... */\n      dup2\n      mstore\n      pop\n        /* \"contracts/exfile3.sol\":1848:1852  bids */\n      0x03\n        /* \"contracts/exfile3.sol\":1848:1864  bids[msg.sender] */\n      0x00\n        /* \"contracts/exfile3.sol\":1853:1863  msg.sender */\n      caller\n        /* \"contracts/exfile3.sol\":1848:1864  bids[msg.sender] */\n      0xffffffffffffffffffffffffffffffffffffffff\n      and\n      0xffffffffffffffffffffffffffffffffffffffff\n      and\n      dup2\n      mstore\n      0x20\n      add\n      swap1\n      dup2\n      mstore\n      0x20\n      add\n      0x00\n      keccak256\n        /* \"contracts/exfile3.sol\":1848:1951  bids[msg.sender] = Bid({\r... */\n      0x00\n      dup3\n      add\n      mload\n      dup2\n      0x00\n      add\n      sstore\n      0x20\n      dup3\n      add\n      mload\n      dup2\n      0x01\n      add\n      sstore\n      swap1\n      pop\n      pop\n        /* \"contracts/exfile3.sol\":1765:1959  function bid(bytes32 blindBid) public payable validPhase(Phase.Bidding) {\r... */\n      pop\n      pop\n      jump\t// out\n        /* \"contracts/exfile3.sol\":1085:1757  function advancePhase() public onlyBeneficiary {\r... */\n    tag_38:\n        /* \"contracts/exfile3.sol\":901:912  beneficiary */\n      0x00\n      dup1\n      sload\n      swap1\n      0x0100\n      exp\n      swap1\n      div\n      0xffffffffffffffffffffffffffffffffffffffff\n      and\n        /* \"contracts/exfile3.sol\":887:912  msg.sender == beneficiary */\n      0xffffffffffffffffffffffffffffffffffffffff\n      and\n        /* \"contracts/exfile3.sol\":887:897  msg.sender */\n      caller\n        /* \"contracts/exfile3.sol\":887:912  msg.sender == beneficiary */\n      0xffffffffffffffffffffffffffffffffffffffff\n      and\n      eq\n        /* \"contracts/exfile3.sol\":879:957  require(msg.sender == beneficiary, \"Only beneficiary can perform this action\") */\n      tag_90\n      jumpi\n      mload(0x40)\n      0x08c379a000000000000000000000000000000000000000000000000000000000\n      dup2\n      mstore\n      0x04\n      add\n      tag_91\n      swap1\n      tag_92\n      jump\t// in\n    tag_91:\n      mload(0x40)\n      dup1\n      swap2\n      sub\n      swap1\n      revert\n    tag_90:\n        /* \"contracts/exfile3.sol\":1221:1231  Phase.Done */\n      0x03\n        /* \"contracts/exfile3.sol\":1205:1231  currentPhase == Phase.Done */\n      dup1\n      dup2\n      gt\n      iszero\n      tag_94\n      jumpi\n      tag_95\n      tag_47\n      jump\t// in\n    tag_95:\n    tag_94:\n        /* \"contracts/exfile3.sol\":1205:1217  currentPhase */\n      0x05\n      0x00\n      swap1\n      sload\n      swap1\n      0x0100\n      exp\n      swap1\n      div\n      0xff\n      and\n        /* \"contracts/exfile3.sol\":1205:1231  currentPhase == Phase.Done */\n      0x03\n      dup2\n      gt\n      iszero\n      tag_96\n      jumpi\n      tag_97\n      tag_47\n      jump\t// in\n    tag_97:\n    tag_96:\n      eq\n        /* \"contracts/exfile3.sol\":1201:1501  if (currentPhase == Phase.Done) {\r... */\n      iszero\n      tag_98\n      jumpi\n        /* \"contracts/exfile3.sol\":1263:1273  Phase.Init */\n      0x00\n        /* \"contracts/exfile3.sol\":1248:1260  currentPhase */\n      0x05\n      0x00\n        /* \"contracts/exfile3.sol\":1248:1273  currentPhase = Phase.Init */\n      0x0100\n      exp\n      dup2\n      sload\n      dup2\n      0xff\n      mul\n      not\n      and\n      swap1\n      dup4\n      0x03\n      dup2\n      gt\n      iszero\n      tag_99\n      jumpi\n      tag_100\n      tag_47\n      jump\t// in\n    tag_100:\n    tag_99:\n      mul\n      or\n      swap1\n      sstore\n      pop\n        /* \"contracts/exfile3.sol\":1201:1501  if (currentPhase == Phase.Done) {\r... */\n      jump(tag_101)\n    tag_98:\n        /* \"contracts/exfile3.sol\":1408:1422  uint nextPhase */\n      0x00\n        /* \"contracts/exfile3.sol\":1446:1447  1 */\n      0x01\n        /* \"contracts/exfile3.sol\":1430:1442  currentPhase */\n      0x05\n      0x00\n      swap1\n      sload\n      swap1\n      0x0100\n      exp\n      swap1\n      div\n      0xff\n      and\n        /* \"contracts/exfile3.sol\":1425:1443  uint(currentPhase) */\n      0x03\n      dup2\n      gt\n      iszero\n      tag_102\n      jumpi\n      tag_103\n      tag_47\n      jump\t// in\n    tag_103:\n    tag_102:\n        /* \"contracts/exfile3.sol\":1425:1447  uint(currentPhase) + 1 */\n      tag_104\n      swap2\n      swap1\n      tag_73\n      jump\t// in\n    tag_104:\n        /* \"contracts/exfile3.sol\":1408:1447  uint nextPhase = uint(currentPhase) + 1 */\n      swap1\n      pop\n        /* \"contracts/exfile3.sol\":1479:1488  nextPhase */\n      dup1\n        /* \"contracts/exfile3.sol\":1473:1489  Phase(nextPhase) */\n      0x03\n      dup2\n      gt\n      iszero\n      tag_105\n      jumpi\n      tag_106\n      tag_47\n      jump\t// in\n    tag_106:\n    tag_105:\n        /* \"contracts/exfile3.sol\":1458:1470  currentPhase */\n      0x05\n      0x00\n        /* \"contracts/exfile3.sol\":1458:1489  currentPhase = Phase(nextPhase) */\n      0x0100\n      exp\n      dup2\n      sload\n      dup2\n      0xff\n      mul\n      not\n      and\n      swap1\n      dup4\n      0x03\n      dup2\n      gt\n      iszero\n      tag_107\n      jumpi\n      tag_108\n      tag_47\n      jump\t// in\n    tag_108:\n    tag_107:\n      mul\n      or\n      swap1\n      sstore\n      pop\n        /* \"contracts/exfile3.sol\":1291:1501  {\r... */\n      pop\n        /* \"contracts/exfile3.sol\":1201:1501  if (currentPhase == Phase.Done) {\r... */\n    tag_101:\n        /* \"contracts/exfile3.sol\":1587:1599  Phase.Reveal */\n      0x02\n        /* \"contracts/exfile3.sol\":1571:1599  currentPhase == Phase.Reveal */\n      0x03\n      dup2\n      gt\n      iszero\n      tag_109\n      jumpi\n      tag_110\n      tag_47\n      jump\t// in\n    tag_110:\n    tag_109:\n        /* \"contracts/exfile3.sol\":1571:1583  currentPhase */\n      0x05\n      0x00\n      swap1\n      sload\n      swap1\n      0x0100\n      exp\n      swap1\n      div\n      0xff\n      and\n        /* \"contracts/exfile3.sol\":1571:1599  currentPhase == Phase.Reveal */\n      0x03\n      dup2\n      gt\n      iszero\n      tag_111\n      jumpi\n      tag_112\n      tag_47\n      jump\t// in\n    tag_112:\n    tag_111:\n      eq\n        /* \"contracts/exfile3.sol\":1567:1621  if (currentPhase == Phase.Reveal) emit RevealStarted() */\n      iszero\n      tag_113\n      jumpi\n        /* \"contracts/exfile3.sol\":1606:1621  RevealStarted() */\n      0x3bcc93d35219aa0512d7c0d1ca10b0231f473e3d5f9396877d1b7215ee0ab3d5\n      mload(0x40)\n      mload(0x40)\n      dup1\n      swap2\n      sub\n      swap1\n      log1\n        /* \"contracts/exfile3.sol\":1567:1621  if (currentPhase == Phase.Reveal) emit RevealStarted() */\n    tag_113:\n        /* \"contracts/exfile3.sol\":1652:1665  Phase.Bidding */\n      0x01\n        /* \"contracts/exfile3.sol\":1636:1665  currentPhase == Phase.Bidding */\n      0x03\n      dup2\n      gt\n      iszero\n      tag_114\n      jumpi\n      tag_115\n      tag_47\n      jump\t// in\n    tag_115:\n    tag_114:\n        /* \"contracts/exfile3.sol\":1636:1648  currentPhase */\n      0x05\n      0x00\n      swap1\n      sload\n      swap1\n      0x0100\n      exp\n      swap1\n      div\n      0xff\n      and\n        /* \"contracts/exfile3.sol\":1636:1665  currentPhase == Phase.Bidding */\n      0x03\n      dup2\n      gt\n      iszero\n      tag_116\n      jumpi\n      tag_117\n      tag_47\n      jump\t// in\n    tag_117:\n    tag_116:\n      eq\n        /* \"contracts/exfile3.sol\":1632:1688  if (currentPhase == Phase.Bidding) emit BiddingStarted() */\n      iszero\n      tag_118\n      jumpi\n        /* \"contracts/exfile3.sol\":1672:1688  BiddingStarted() */\n      0x02c124e22ee7da1c9905bbb317cf67658c1cc3ea1c0953b1633f85d0b5c281d9\n      mload(0x40)\n      mload(0x40)\n      dup1\n      swap2\n      sub\n      swap1\n      log1\n        /* \"contracts/exfile3.sol\":1632:1688  if (currentPhase == Phase.Bidding) emit BiddingStarted() */\n    tag_118:\n        /* \"contracts/exfile3.sol\":1719:1729  Phase.Init */\n      0x00\n        /* \"contracts/exfile3.sol\":1703:1729  currentPhase == Phase.Init */\n      0x03\n      dup2\n      gt\n      iszero\n      tag_119\n      jumpi\n      tag_120\n      tag_47\n      jump\t// in\n    tag_120:\n    tag_119:\n        /* \"contracts/exfile3.sol\":1703:1715  currentPhase */\n      0x05\n      0x00\n      swap1\n      sload\n      swap1\n      0x0100\n      exp\n      swap1\n      div\n      0xff\n      and\n        /* \"contracts/exfile3.sol\":1703:1729  currentPhase == Phase.Init */\n      0x03\n      dup2\n      gt\n      iszero\n      tag_121\n      jumpi\n      tag_122\n      tag_47\n      jump\t// in\n    tag_122:\n    tag_121:\n      eq\n        /* \"contracts/exfile3.sol\":1699:1749  if (currentPhase == Phase.Init) emit AuctionInit() */\n      iszero\n      tag_123\n      jumpi\n        /* \"contracts/exfile3.sol\":1736:1749  AuctionInit() */\n      0x8ad2842071cb64589c8e006941bc20b615aae08a93530e211ca7c9639bd26d97\n      mload(0x40)\n      mload(0x40)\n      dup1\n      swap2\n      sub\n      swap1\n      log1\n        /* \"contracts/exfile3.sol\":1699:1749  if (currentPhase == Phase.Init) emit AuctionInit() */\n    tag_123:\n        /* \"contracts/exfile3.sol\":1085:1757  function advancePhase() public onlyBeneficiary {\r... */\n      jump\t// out\n        /* \"contracts/exfile3.sol\":366:391  uint public highestBid =0 */\n    tag_41:\n      sload(0x02)\n      dup2\n      jump\t// out\n        /* \"contracts/exfile3.sol\":2617:3030  function placeBid(address bidder, uint value) internal returns (bool success) {\r... */\n    tag_76:\n        /* \"contracts/exfile3.sol\":2681:2693  bool success */\n      0x00\n        /* \"contracts/exfile3.sol\":2719:2729  highestBid */\n      sload(0x02)\n        /* \"contracts/exfile3.sol\":2710:2715  value */\n      dup3\n        /* \"contracts/exfile3.sol\":2710:2729  value <= highestBid */\n      gt\n        /* \"contracts/exfile3.sol\":2706:2770  if (value <= highestBid) {\r... */\n      tag_125\n      jumpi\n        /* \"contracts/exfile3.sol\":2753:2758  false */\n      0x00\n        /* \"contracts/exfile3.sol\":2746:2758  return false */\n      swap1\n      pop\n      jump(tag_124)\n        /* \"contracts/exfile3.sol\":2706:2770  if (value <= highestBid) {\r... */\n    tag_125:\n        /* \"contracts/exfile3.sol\":2809:2810  0 */\n      0x00\n        /* \"contracts/exfile3.sol\":2784:2811  highestBidder != address(0) */\n      0xffffffffffffffffffffffffffffffffffffffff\n      and\n        /* \"contracts/exfile3.sol\":2784:2797  highestBidder */\n      0x01\n      0x00\n      swap1\n      sload\n      swap1\n      0x0100\n      exp\n      swap1\n      div\n      0xffffffffffffffffffffffffffffffffffffffff\n      and\n        /* \"contracts/exfile3.sol\":2784:2811  highestBidder != address(0) */\n      0xffffffffffffffffffffffffffffffffffffffff\n      and\n      eq\n        /* \"contracts/exfile3.sol\":2780:2937  if (highestBidder != address(0)) {\r... */\n      tag_126\n      jumpi\n        /* \"contracts/exfile3.sol\":2915:2925  highestBid */\n      sload(0x02)\n        /* \"contracts/exfile3.sol\":2882:2896  pendingReturns */\n      0x04\n        /* \"contracts/exfile3.sol\":2882:2911  pendingReturns[highestBidder] */\n      0x00\n        /* \"contracts/exfile3.sol\":2897:2910  highestBidder */\n      0x01\n      0x00\n      swap1\n      sload\n      swap1\n      0x0100\n      exp\n      swap1\n      div\n      0xffffffffffffffffffffffffffffffffffffffff\n      and\n        /* \"contracts/exfile3.sol\":2882:2911  pendingReturns[highestBidder] */\n      0xffffffffffffffffffffffffffffffffffffffff\n      and\n      0xffffffffffffffffffffffffffffffffffffffff\n      and\n      dup2\n      mstore\n      0x20\n      add\n      swap1\n      dup2\n      mstore\n      0x20\n      add\n      0x00\n      keccak256\n      0x00\n        /* \"contracts/exfile3.sol\":2882:2925  pendingReturns[highestBidder] += highestBid */\n      dup3\n      dup3\n      sload\n      tag_127\n      swap2\n      swap1\n      tag_73\n      jump\t// in\n    tag_127:\n      swap3\n      pop\n      pop\n      dup2\n      swap1\n      sstore\n      pop\n        /* \"contracts/exfile3.sol\":2780:2937  if (highestBidder != address(0)) {\r... */\n    tag_126:\n        /* \"contracts/exfile3.sol\":2962:2967  value */\n      dup2\n        /* \"contracts/exfile3.sol\":2949:2959  highestBid */\n      0x02\n        /* \"contracts/exfile3.sol\":2949:2967  highestBid = value */\n      dup2\n      swap1\n      sstore\n      pop\n        /* \"contracts/exfile3.sol\":2994:3000  bidder */\n      dup3\n        /* \"contracts/exfile3.sol\":2978:2991  highestBidder */\n      0x01\n      0x00\n        /* \"contracts/exfile3.sol\":2978:3000  highestBidder = bidder */\n      0x0100\n      exp\n      dup2\n      sload\n      dup2\n      0xffffffffffffffffffffffffffffffffffffffff\n      mul\n      not\n      and\n      swap1\n      dup4\n      0xffffffffffffffffffffffffffffffffffffffff\n      and\n      mul\n      or\n      swap1\n      sstore\n      pop\n        /* \"contracts/exfile3.sol\":3018:3022  true */\n      0x01\n        /* \"contracts/exfile3.sol\":3011:3022  return true */\n      swap1\n      pop\n        /* \"contracts/exfile3.sol\":2617:3030  function placeBid(address bidder, uint value) internal returns (bool success) {\r... */\n    tag_124:\n      swap3\n      swap2\n      pop\n      pop\n      jump\t// out\n        /* \"#utility.yul\":7:146   */\n    tag_129:\n        /* \"#utility.yul\":53:58   */\n      0x00\n        /* \"#utility.yul\":91:97   */\n      dup2\n        /* \"#utility.yul\":78:98   */\n      calldataload\n        /* \"#utility.yul\":69:98   */\n      swap1\n      pop\n        /* \"#utility.yul\":107:140   */\n      tag_131\n        /* \"#utility.yul\":134:139   */\n      dup2\n        /* \"#utility.yul\":107:140   */\n      tag_132\n      jump\t// in\n    tag_131:\n        /* \"#utility.yul\":7:146   */\n      swap3\n      swap2\n      pop\n      pop\n      jump\t// out\n        /* \"#utility.yul\":152:291   */\n    tag_133:\n        /* \"#utility.yul\":198:203   */\n      0x00\n        /* \"#utility.yul\":236:242   */\n      dup2\n        /* \"#utility.yul\":223:243   */\n      calldataload\n        /* \"#utility.yul\":214:243   */\n      swap1\n      pop\n        /* \"#utility.yul\":252:285   */\n      tag_135\n        /* \"#utility.yul\":279:284   */\n      dup2\n        /* \"#utility.yul\":252:285   */\n      tag_136\n      jump\t// in\n    tag_135:\n        /* \"#utility.yul\":152:291   */\n      swap3\n      swap2\n      pop\n      pop\n      jump\t// out\n        /* \"#utility.yul\":297:626   */\n    tag_34:\n        /* \"#utility.yul\":356:362   */\n      0x00\n        /* \"#utility.yul\":405:407   */\n      0x20\n        /* \"#utility.yul\":393:402   */\n      dup3\n        /* \"#utility.yul\":384:391   */\n      dup5\n        /* \"#utility.yul\":380:403   */\n      sub\n        /* \"#utility.yul\":376:408   */\n      slt\n        /* \"#utility.yul\":373:492   */\n      iszero\n      tag_138\n      jumpi\n        /* \"#utility.yul\":411:490   */\n      tag_139\n      tag_140\n      jump\t// in\n    tag_139:\n        /* \"#utility.yul\":373:492   */\n    tag_138:\n        /* \"#utility.yul\":531:532   */\n      0x00\n        /* \"#utility.yul\":556:609   */\n      tag_141\n        /* \"#utility.yul\":601:608   */\n      dup5\n        /* \"#utility.yul\":592:598   */\n      dup3\n        /* \"#utility.yul\":581:590   */\n      dup6\n        /* \"#utility.yul\":577:599   */\n      add\n        /* \"#utility.yul\":556:609   */\n      tag_129\n      jump\t// in\n    tag_141:\n        /* \"#utility.yul\":546:609   */\n      swap2\n      pop\n        /* \"#utility.yul\":502:619   */\n      pop\n        /* \"#utility.yul\":297:626   */\n      swap3\n      swap2\n      pop\n      pop\n      jump\t// out\n        /* \"#utility.yul\":632:1106   */\n    tag_25:\n        /* \"#utility.yul\":700:706   */\n      0x00\n        /* \"#utility.yul\":708:714   */\n      dup1\n        /* \"#utility.yul\":757:759   */\n      0x40\n        /* \"#utility.yul\":745:754   */\n      dup4\n        /* \"#utility.yul\":736:743   */\n      dup6\n        /* \"#utility.yul\":732:755   */\n      sub\n        /* \"#utility.yul\":728:760   */\n      slt\n        /* \"#utility.yul\":725:844   */\n      iszero\n      tag_143\n      jumpi\n        /* \"#utility.yul\":763:842   */\n      tag_144\n      tag_140\n      jump\t// in\n    tag_144:\n        /* \"#utility.yul\":725:844   */\n    tag_143:\n        /* \"#utility.yul\":883:884   */\n      0x00\n        /* \"#utility.yul\":908:961   */\n      tag_145\n        /* \"#utility.yul\":953:960   */\n      dup6\n        /* \"#utility.yul\":944:950   */\n      dup3\n        /* \"#utility.yul\":933:942   */\n      dup7\n        /* \"#utility.yul\":929:951   */\n      add\n        /* \"#utility.yul\":908:961   */\n      tag_133\n      jump\t// in\n    tag_145:\n        /* \"#utility.yul\":898:961   */\n      swap3\n      pop\n        /* \"#utility.yul\":854:971   */\n      pop\n        /* \"#utility.yul\":1010:1012   */\n      0x20\n        /* \"#utility.yul\":1036:1089   */\n      tag_146\n        /* \"#utility.yul\":1081:1088   */\n      dup6\n        /* \"#utility.yul\":1072:1078   */\n      dup3\n        /* \"#utility.yul\":1061:1070   */\n      dup7\n        /* \"#utility.yul\":1057:1079   */\n      add\n        /* \"#utility.yul\":1036:1089   */\n      tag_129\n      jump\t// in\n    tag_146:\n        /* \"#utility.yul\":1026:1089   */\n      swap2\n      pop\n        /* \"#utility.yul\":981:1099   */\n      pop\n        /* \"#utility.yul\":632:1106   */\n      swap3\n      pop\n      swap3\n      swap1\n      pop\n      jump\t// out\n        /* \"#utility.yul\":1112:1230   */\n    tag_147:\n        /* \"#utility.yul\":1199:1223   */\n      tag_149\n        /* \"#utility.yul\":1217:1222   */\n      dup2\n        /* \"#utility.yul\":1199:1223   */\n      tag_150\n      jump\t// in\n    tag_149:\n        /* \"#utility.yul\":1194:1197   */\n      dup3\n        /* \"#utility.yul\":1187:1224   */\n      mstore\n        /* \"#utility.yul\":1112:1230   */\n      pop\n      pop\n      jump\t// out\n        /* \"#utility.yul\":1236:1393   */\n    tag_151:\n        /* \"#utility.yul\":1341:1386   */\n      tag_153\n        /* \"#utility.yul\":1361:1385   */\n      tag_154\n        /* \"#utility.yul\":1379:1384   */\n      dup3\n        /* \"#utility.yul\":1361:1385   */\n      tag_155\n      jump\t// in\n    tag_154:\n        /* \"#utility.yul\":1341:1386   */\n      tag_156\n      jump\t// in\n    tag_153:\n        /* \"#utility.yul\":1336:1339   */\n      dup3\n        /* \"#utility.yul\":1329:1387   */\n      mstore\n        /* \"#utility.yul\":1236:1393   */\n      pop\n      pop\n      jump\t// out\n        /* \"#utility.yul\":1399:1542   */\n    tag_157:\n        /* \"#utility.yul\":1492:1535   */\n      tag_159\n        /* \"#utility.yul\":1529:1534   */\n      dup2\n        /* \"#utility.yul\":1492:1535   */\n      tag_160\n      jump\t// in\n    tag_159:\n        /* \"#utility.yul\":1487:1490   */\n      dup3\n        /* \"#utility.yul\":1480:1536   */\n      mstore\n        /* \"#utility.yul\":1399:1542   */\n      pop\n      pop\n      jump\t// out\n        /* \"#utility.yul\":1548:1914   */\n    tag_161:\n        /* \"#utility.yul\":1690:1693   */\n      0x00\n        /* \"#utility.yul\":1711:1778   */\n      tag_163\n        /* \"#utility.yul\":1775:1777   */\n      0x10\n        /* \"#utility.yul\":1770:1773   */\n      dup4\n        /* \"#utility.yul\":1711:1778   */\n      tag_164\n      jump\t// in\n    tag_163:\n        /* \"#utility.yul\":1704:1778   */\n      swap2\n      pop\n        /* \"#utility.yul\":1787:1880   */\n      tag_165\n        /* \"#utility.yul\":1876:1879   */\n      dup3\n        /* \"#utility.yul\":1787:1880   */\n      tag_166\n      jump\t// in\n    tag_165:\n        /* \"#utility.yul\":1905:1907   */\n      0x20\n        /* \"#utility.yul\":1900:1903   */\n      dup3\n        /* \"#utility.yul\":1896:1908   */\n      add\n        /* \"#utility.yul\":1889:1908   */\n      swap1\n      pop\n        /* \"#utility.yul\":1548:1914   */\n      swap2\n      swap1\n      pop\n      jump\t// out\n        /* \"#utility.yul\":1920:2286   */\n    tag_167:\n        /* \"#utility.yul\":2062:2065   */\n      0x00\n        /* \"#utility.yul\":2083:2150   */\n      tag_169\n        /* \"#utility.yul\":2147:2149   */\n      0x28\n        /* \"#utility.yul\":2142:2145   */\n      dup4\n        /* \"#utility.yul\":2083:2150   */\n      tag_164\n      jump\t// in\n    tag_169:\n        /* \"#utility.yul\":2076:2150   */\n      swap2\n      pop\n        /* \"#utility.yul\":2159:2252   */\n      tag_170\n        /* \"#utility.yul\":2248:2251   */\n      dup3\n        /* \"#utility.yul\":2159:2252   */\n      tag_171\n      jump\t// in\n    tag_170:\n        /* \"#utility.yul\":2277:2279   */\n      0x40\n        /* \"#utility.yul\":2272:2275   */\n      dup3\n        /* \"#utility.yul\":2268:2280   */\n      add\n        /* \"#utility.yul\":2261:2280   */\n      swap1\n      pop\n        /* \"#utility.yul\":1920:2286   */\n      swap2\n      swap1\n      pop\n      jump\t// out\n        /* \"#utility.yul\":2292:2410   */\n    tag_172:\n        /* \"#utility.yul\":2379:2403   */\n      tag_174\n        /* \"#utility.yul\":2397:2402   */\n      dup2\n        /* \"#utility.yul\":2379:2403   */\n      tag_175\n      jump\t// in\n    tag_174:\n        /* \"#utility.yul\":2374:2377   */\n      dup3\n        /* \"#utility.yul\":2367:2404   */\n      mstore\n        /* \"#utility.yul\":2292:2410   */\n      pop\n      pop\n      jump\t// out\n        /* \"#utility.yul\":2416:2573   */\n    tag_176:\n        /* \"#utility.yul\":2521:2566   */\n      tag_178\n        /* \"#utility.yul\":2541:2565   */\n      tag_179\n        /* \"#utility.yul\":2559:2564   */\n      dup3\n        /* \"#utility.yul\":2541:2565   */\n      tag_175\n      jump\t// in\n    tag_179:\n        /* \"#utility.yul\":2521:2566   */\n      tag_180\n      jump\t// in\n    tag_178:\n        /* \"#utility.yul\":2516:2519   */\n      dup3\n        /* \"#utility.yul\":2509:2567   */\n      mstore\n        /* \"#utility.yul\":2416:2573   */\n      pop\n      pop\n      jump\t// out\n        /* \"#utility.yul\":2579:2976   */\n    tag_68:\n        /* \"#utility.yul\":2719:2722   */\n      0x00\n        /* \"#utility.yul\":2734:2809   */\n      tag_182\n        /* \"#utility.yul\":2805:2808   */\n      dup3\n        /* \"#utility.yul\":2796:2802   */\n      dup6\n        /* \"#utility.yul\":2734:2809   */\n      tag_176\n      jump\t// in\n    tag_182:\n        /* \"#utility.yul\":2834:2836   */\n      0x20\n        /* \"#utility.yul\":2829:2832   */\n      dup3\n        /* \"#utility.yul\":2825:2837   */\n      add\n        /* \"#utility.yul\":2818:2837   */\n      swap2\n      pop\n        /* \"#utility.yul\":2847:2922   */\n      tag_183\n        /* \"#utility.yul\":2918:2921   */\n      dup3\n        /* \"#utility.yul\":2909:2915   */\n      dup5\n        /* \"#utility.yul\":2847:2922   */\n      tag_151\n      jump\t// in\n    tag_183:\n        /* \"#utility.yul\":2947:2949   */\n      0x20\n        /* \"#utility.yul\":2942:2945   */\n      dup3\n        /* \"#utility.yul\":2938:2950   */\n      add\n        /* \"#utility.yul\":2931:2950   */\n      swap2\n      pop\n        /* \"#utility.yul\":2967:2970   */\n      dup2\n        /* \"#utility.yul\":2960:2970   */\n      swap1\n      pop\n        /* \"#utility.yul\":2579:2976   */\n      swap4\n      swap3\n      pop\n      pop\n      pop\n      jump\t// out\n        /* \"#utility.yul\":2982:3204   */\n    tag_31:\n        /* \"#utility.yul\":3075:3079   */\n      0x00\n        /* \"#utility.yul\":3113:3115   */\n      0x20\n        /* \"#utility.yul\":3102:3111   */\n      dup3\n        /* \"#utility.yul\":3098:3116   */\n      add\n        /* \"#utility.yul\":3090:3116   */\n      swap1\n      pop\n        /* \"#utility.yul\":3126:3197   */\n      tag_185\n        /* \"#utility.yul\":3194:3195   */\n      0x00\n        /* \"#utility.yul\":3183:3192   */\n      dup4\n        /* \"#utility.yul\":3179:3196   */\n      add\n        /* \"#utility.yul\":3170:3176   */\n      dup5\n        /* \"#utility.yul\":3126:3197   */\n      tag_147\n      jump\t// in\n    tag_185:\n        /* \"#utility.yul\":2982:3204   */\n      swap3\n      swap2\n      pop\n      pop\n      jump\t// out\n        /* \"#utility.yul\":3210:3542   */\n    tag_55:\n        /* \"#utility.yul\":3331:3335   */\n      0x00\n        /* \"#utility.yul\":3369:3371   */\n      0x40\n        /* \"#utility.yul\":3358:3367   */\n      dup3\n        /* \"#utility.yul\":3354:3372   */\n      add\n        /* \"#utility.yul\":3346:3372   */\n      swap1\n      pop\n        /* \"#utility.yul\":3382:3453   */\n      tag_187\n        /* \"#utility.yul\":3450:3451   */\n      0x00\n        /* \"#utility.yul\":3439:3448   */\n      dup4\n        /* \"#utility.yul\":3435:3452   */\n      add\n        /* \"#utility.yul\":3426:3432   */\n      dup6\n        /* \"#utility.yul\":3382:3453   */\n      tag_147\n      jump\t// in\n    tag_187:\n        /* \"#utility.yul\":3463:3535   */\n      tag_188\n        /* \"#utility.yul\":3531:3533   */\n      0x20\n        /* \"#utility.yul\":3520:3529   */\n      dup4\n        /* \"#utility.yul\":3516:3534   */\n      add\n        /* \"#utility.yul\":3507:3513   */\n      dup5\n        /* \"#utility.yul\":3463:3535   */\n      tag_172\n      jump\t// in\n    tag_188:\n        /* \"#utility.yul\":3210:3542   */\n      swap4\n      swap3\n      pop\n      pop\n      pop\n      jump\t// out\n        /* \"#utility.yul\":3548:3782   */\n    tag_15:\n        /* \"#utility.yul\":3647:3651   */\n      0x00\n        /* \"#utility.yul\":3685:3687   */\n      0x20\n        /* \"#utility.yul\":3674:3683   */\n      dup3\n        /* \"#utility.yul\":3670:3688   */\n      add\n        /* \"#utility.yul\":3662:3688   */\n      swap1\n      pop\n        /* \"#utility.yul\":3698:3775   */\n      tag_190\n        /* \"#utility.yul\":3772:3773   */\n      0x00\n        /* \"#utility.yul\":3761:3770   */\n      dup4\n        /* \"#utility.yul\":3757:3774   */\n      add\n        /* \"#utility.yul\":3748:3754   */\n      dup5\n        /* \"#utility.yul\":3698:3775   */\n      tag_157\n      jump\t// in\n    tag_190:\n        /* \"#utility.yul\":3548:3782   */\n      swap3\n      swap2\n      pop\n      pop\n      jump\t// out\n        /* \"#utility.yul\":3788:4207   */\n    tag_71:\n        /* \"#utility.yul\":3954:3958   */\n      0x00\n        /* \"#utility.yul\":3992:3994   */\n      0x20\n        /* \"#utility.yul\":3981:3990   */\n      dup3\n        /* \"#utility.yul\":3977:3995   */\n      add\n        /* \"#utility.yul\":3969:3995   */\n      swap1\n      pop\n        /* \"#utility.yul\":4041:4050   */\n      dup2\n        /* \"#utility.yul\":4035:4039   */\n      dup2\n        /* \"#utility.yul\":4031:4051   */\n      sub\n        /* \"#utility.yul\":4027:4028   */\n      0x00\n        /* \"#utility.yul\":4016:4025   */\n      dup4\n        /* \"#utility.yul\":4012:4029   */\n      add\n        /* \"#utility.yul\":4005:4052   */\n      mstore\n        /* \"#utility.yul\":4069:4200   */\n      tag_192\n        /* \"#utility.yul\":4195:4199   */\n      dup2\n        /* \"#utility.yul\":4069:4200   */\n      tag_161\n      jump\t// in\n    tag_192:\n        /* \"#utility.yul\":4061:4200   */\n      swap1\n      pop\n        /* \"#utility.yul\":3788:4207   */\n      swap2\n      swap1\n      pop\n      jump\t// out\n        /* \"#utility.yul\":4213:4632   */\n    tag_92:\n        /* \"#utility.yul\":4379:4383   */\n      0x00\n        /* \"#utility.yul\":4417:4419   */\n      0x20\n        /* \"#utility.yul\":4406:4415   */\n      dup3\n        /* \"#utility.yul\":4402:4420   */\n      add\n        /* \"#utility.yul\":4394:4420   */\n      swap1\n      pop\n        /* \"#utility.yul\":4466:4475   */\n      dup2\n        /* \"#utility.yul\":4460:4464   */\n      dup2\n        /* \"#utility.yul\":4456:4476   */\n      sub\n        /* \"#utility.yul\":4452:4453   */\n      0x00\n        /* \"#utility.yul\":4441:4450   */\n      dup4\n        /* \"#utility.yul\":4437:4454   */\n      add\n        /* \"#utility.yul\":4430:4477   */\n      mstore\n        /* \"#utility.yul\":4494:4625   */\n      tag_194\n        /* \"#utility.yul\":4620:4624   */\n      dup2\n        /* \"#utility.yul\":4494:4625   */\n      tag_167\n      jump\t// in\n    tag_194:\n        /* \"#utility.yul\":4486:4625   */\n      swap1\n      pop\n        /* \"#utility.yul\":4213:4632   */\n      swap2\n      swap1\n      pop\n      jump\t// out\n        /* \"#utility.yul\":4638:4860   */\n    tag_43:\n        /* \"#utility.yul\":4731:4735   */\n      0x00\n        /* \"#utility.yul\":4769:4771   */\n      0x20\n        /* \"#utility.yul\":4758:4767   */\n      dup3\n        /* \"#utility.yul\":4754:4772   */\n      add\n        /* \"#utility.yul\":4746:4772   */\n      swap1\n      pop\n        /* \"#utility.yul\":4782:4853   */\n      tag_196\n        /* \"#utility.yul\":4850:4851   */\n      0x00\n        /* \"#utility.yul\":4839:4848   */\n      dup4\n        /* \"#utility.yul\":4835:4852   */\n      add\n        /* \"#utility.yul\":4826:4832   */\n      dup5\n        /* \"#utility.yul\":4782:4853   */\n      tag_172\n      jump\t// in\n    tag_196:\n        /* \"#utility.yul\":4638:4860   */\n      swap3\n      swap2\n      pop\n      pop\n      jump\t// out\n        /* \"#utility.yul\":4947:5116   */\n    tag_164:\n        /* \"#utility.yul\":5031:5042   */\n      0x00\n        /* \"#utility.yul\":5065:5071   */\n      dup3\n        /* \"#utility.yul\":5060:5063   */\n      dup3\n        /* \"#utility.yul\":5053:5072   */\n      mstore\n        /* \"#utility.yul\":5105:5109   */\n      0x20\n        /* \"#utility.yul\":5100:5103   */\n      dup3\n        /* \"#utility.yul\":5096:5110   */\n      add\n        /* \"#utility.yul\":5081:5110   */\n      swap1\n      pop\n        /* \"#utility.yul\":4947:5116   */\n      swap3\n      swap2\n      pop\n      pop\n      jump\t// out\n        /* \"#utility.yul\":5122:5427   */\n    tag_73:\n        /* \"#utility.yul\":5162:5165   */\n      0x00\n        /* \"#utility.yul\":5181:5201   */\n      tag_201\n        /* \"#utility.yul\":5199:5200   */\n      dup3\n        /* \"#utility.yul\":5181:5201   */\n      tag_175\n      jump\t// in\n    tag_201:\n        /* \"#utility.yul\":5176:5201   */\n      swap2\n      pop\n        /* \"#utility.yul\":5215:5235   */\n      tag_202\n        /* \"#utility.yul\":5233:5234   */\n      dup4\n        /* \"#utility.yul\":5215:5235   */\n      tag_175\n      jump\t// in\n    tag_202:\n        /* \"#utility.yul\":5210:5235   */\n      swap3\n      pop\n        /* \"#utility.yul\":5369:5370   */\n      dup3\n        /* \"#utility.yul\":5301:5367   */\n      0xffffffffffffffffffffffffffffffffffffffffffffffffffffffffffffffff\n        /* \"#utility.yul\":5297:5371   */\n      sub\n        /* \"#utility.yul\":5294:5295   */\n      dup3\n        /* \"#utility.yul\":5291:5372   */\n      gt\n        /* \"#utility.yul\":5288:5395   */\n      iszero\n      tag_203\n      jumpi\n        /* \"#utility.yul\":5375:5393   */\n      tag_204\n      tag_205\n      jump\t// in\n    tag_204:\n        /* \"#utility.yul\":5288:5395   */\n    tag_203:\n        /* \"#utility.yul\":5419:5420   */\n      dup3\n        /* \"#utility.yul\":5416:5417   */\n      dup3\n        /* \"#utility.yul\":5412:5421   */\n      add\n        /* \"#utility.yul\":5405:5421   */\n      swap1\n      pop\n        /* \"#utility.yul\":5122:5427   */\n      swap3\n      swap2\n      pop\n      pop\n      jump\t// out\n        /* \"#utility.yul\":5433:5624   */\n    tag_79:\n        /* \"#utility.yul\":5473:5477   */\n      0x00\n        /* \"#utility.yul\":5493:5513   */\n      tag_207\n        /* \"#utility.yul\":5511:5512   */\n      dup3\n        /* \"#utility.yul\":5493:5513   */\n      tag_175\n      jump\t// in\n    tag_207:\n        /* \"#utility.yul\":5488:5513   */\n      swap2\n      pop\n        /* \"#utility.yul\":5527:5547   */\n      tag_208\n        /* \"#utility.yul\":5545:5546   */\n      dup4\n        /* \"#utility.yul\":5527:5547   */\n      tag_175\n      jump\t// in\n    tag_208:\n        /* \"#utility.yul\":5522:5547   */\n      swap3\n      pop\n        /* \"#utility.yul\":5566:5567   */\n      dup3\n        /* \"#utility.yul\":5563:5564   */\n      dup3\n        /* \"#utility.yul\":5560:5568   */\n      lt\n        /* \"#utility.yul\":5557:5591   */\n      iszero\n      tag_209\n      jumpi\n        /* \"#utility.yul\":5571:5589   */\n      tag_210\n      tag_205\n      jump\t// in\n    tag_210:\n        /* \"#utility.yul\":5557:5591   */\n    tag_209:\n        /* \"#utility.yul\":5616:5617   */\n      dup3\n        /* \"#utility.yul\":5613:5614   */\n      dup3\n        /* \"#utility.yul\":5609:5618   */\n      sub\n        /* \"#utility.yul\":5601:5618   */\n      swap1\n      pop\n        /* \"#utility.yul\":5433:5624   */\n      swap3\n      swap2\n      pop\n      pop\n      jump\t// out\n        /* \"#utility.yul\":5630:5726   */\n    tag_150:\n        /* \"#utility.yul\":5667:5674   */\n      0x00\n        /* \"#utility.yul\":5696:5720   */\n      tag_212\n        /* \"#utility.yul\":5714:5719   */\n      dup3\n        /* \"#utility.yul\":5696:5720   */\n      tag_213\n      jump\t// in\n    tag_212:\n        /* \"#utility.yul\":5685:5720   */\n      swap1\n      pop\n        /* \"#utility.yul\":5630:5726   */\n      swap2\n      swap1\n      pop\n      jump\t// out\n        /* \"#utility.yul\":5732:5809   */\n    tag_155:\n        /* \"#utility.yul\":5769:5776   */\n      0x00\n        /* \"#utility.yul\":5798:5803   */\n      dup2\n        /* \"#utility.yul\":5787:5803   */\n      swap1\n      pop\n        /* \"#utility.yul\":5732:5809   */\n      swap2\n      swap1\n      pop\n      jump\t// out\n        /* \"#utility.yul\":5815:5942   */\n    tag_215:\n        /* \"#utility.yul\":5860:5867   */\n      0x00\n        /* \"#utility.yul\":5889:5894   */\n      dup2\n        /* \"#utility.yul\":5878:5894   */\n      swap1\n      pop\n        /* \"#utility.yul\":5895:5936   */\n      tag_217\n        /* \"#utility.yul\":5930:5935   */\n      dup3\n        /* \"#utility.yul\":5895:5936   */\n      tag_218\n      jump\t// in\n    tag_217:\n        /* \"#utility.yul\":5815:5942   */\n      swap2\n      swap1\n      pop\n      jump\t// out\n        /* \"#utility.yul\":5948:6074   */\n    tag_213:\n        /* \"#utility.yul\":5985:5992   */\n      0x00\n        /* \"#utility.yul\":6025:6067   */\n      0xffffffffffffffffffffffffffffffffffffffff\n        /* \"#utility.yul\":6018:6023   */\n      dup3\n        /* \"#utility.yul\":6014:6068   */\n      and\n        /* \"#utility.yul\":6003:6068   */\n      swap1\n      pop\n        /* \"#utility.yul\":5948:6074   */\n      swap2\n      swap1\n      pop\n      jump\t// out\n        /* \"#utility.yul\":6080:6157   */\n    tag_175:\n        /* \"#utility.yul\":6117:6124   */\n      0x00\n        /* \"#utility.yul\":6146:6151   */\n      dup2\n        /* \"#utility.yul\":6135:6151   */\n      swap1\n      pop\n        /* \"#utility.yul\":6080:6157   */\n      swap2\n      swap1\n      pop\n      jump\t// out\n        /* \"#utility.yul\":6163:6290   */\n    tag_160:\n        /* \"#utility.yul\":6219:6228   */\n      0x00\n        /* \"#utility.yul\":6252:6284   */\n      tag_222\n        /* \"#utility.yul\":6278:6283   */\n      dup3\n        /* \"#utility.yul\":6252:6284   */\n      tag_215\n      jump\t// in\n    tag_222:\n        /* \"#utility.yul\":6239:6284   */\n      swap1\n      pop\n        /* \"#utility.yul\":6163:6290   */\n      swap2\n      swap1\n      pop\n      jump\t// out\n        /* \"#utility.yul\":6296:6375   */\n    tag_156:\n        /* \"#utility.yul\":6335:6342   */\n      0x00\n        /* \"#utility.yul\":6364:6369   */\n      dup2\n        /* \"#utility.yul\":6353:6369   */\n      swap1\n      pop\n        /* \"#utility.yul\":6296:6375   */\n      swap2\n      swap1\n      pop\n      jump\t// out\n        /* \"#utility.yul\":6381:6460   */\n    tag_180:\n        /* \"#utility.yul\":6420:6427   */\n      0x00\n        /* \"#utility.yul\":6449:6454   */\n      dup2\n        /* \"#utility.yul\":6438:6454   */\n      swap1\n      pop\n        /* \"#utility.yul\":6381:6460   */\n      swap2\n      swap1\n      pop\n      jump\t// out\n        /* \"#utility.yul\":6466:6646   */\n    tag_205:\n        /* \"#utility.yul\":6514:6591   */\n      0x4e487b7100000000000000000000000000000000000000000000000000000000\n        /* \"#utility.yul\":6511:6512   */\n      0x00\n        /* \"#utility.yul\":6504:6592   */\n      mstore\n        /* \"#utility.yul\":6611:6615   */\n      0x11\n        /* \"#utility.yul\":6608:6609   */\n      0x04\n        /* \"#utility.yul\":6601:6616   */\n      mstore\n        /* \"#utility.yul\":6635:6639   */\n      0x24\n        /* \"#utility.yul\":6632:6633   */\n      0x00\n        /* \"#utility.yul\":6625:6640   */\n      revert\n        /* \"#utility.yul\":6652:6832   */\n    tag_47:\n        /* \"#utility.yul\":6700:6777   */\n      0x4e487b7100000000000000000000000000000000000000000000000000000000\n        /* \"#utility.yul\":6697:6698   */\n      0x00\n        /* \"#utility.yul\":6690:6778   */\n      mstore\n        /* \"#utility.yul\":6797:6801   */\n      0x21\n        /* \"#utility.yul\":6794:6795   */\n      0x04\n        /* \"#utility.yul\":6787:6802   */\n      mstore\n        /* \"#utility.yul\":6821:6825   */\n      0x24\n        /* \"#utility.yul\":6818:6819   */\n      0x00\n        /* \"#utility.yul\":6811:6826   */\n      revert\n        /* \"#utility.yul\":6961:7078   */\n    tag_140:\n        /* \"#utility.yul\":7070:7071   */\n      0x00\n        /* \"#utility.yul\":7067:7068   */\n      dup1\n        /* \"#utility.yul\":7060:7072   */\n      revert\n        /* \"#utility.yul\":7084:7250   */\n    tag_166:\n        /* \"#utility.yul\":7224:7242   */\n      0x6e6f74206d61746368696e672062696400000000000000000000000000000000\n        /* \"#utility.yul\":7220:7221   */\n      0x00\n        /* \"#utility.yul\":7212:7218   */\n      dup3\n        /* \"#utility.yul\":7208:7222   */\n      add\n        /* \"#utility.yul\":7201:7243   */\n      mstore\n        /* \"#utility.yul\":7084:7250   */\n      pop\n      jump\t// out\n        /* \"#utility.yul\":7256:7483   */\n    tag_171:\n        /* \"#utility.yul\":7396:7430   */\n      0x4f6e6c792062656e65666963696172792063616e20706572666f726d20746869\n        /* \"#utility.yul\":7392:7393   */\n      0x00\n        /* \"#utility.yul\":7384:7390   */\n      dup3\n        /* \"#utility.yul\":7380:7394   */\n      add\n        /* \"#utility.yul\":7373:7431   */\n      mstore\n        /* \"#utility.yul\":7465:7475   */\n      0x7320616374696f6e000000000000000000000000000000000000000000000000\n        /* \"#utility.yul\":7460:7462   */\n      0x20\n        /* \"#utility.yul\":7452:7458   */\n      dup3\n        /* \"#utility.yul\":7448:7463   */\n      add\n        /* \"#utility.yul\":7441:7476   */\n      mstore\n        /* \"#utility.yul\":7256:7483   */\n      pop\n      jump\t// out\n        /* \"#utility.yul\":7489:7602   */\n    tag_218:\n        /* \"#utility.yul\":7570:7571   */\n      0x04\n        /* \"#utility.yul\":7563:7568   */\n      dup2\n        /* \"#utility.yul\":7560:7572   */\n      lt\n        /* \"#utility.yul\":7550:7596   */\n      tag_233\n      jumpi\n        /* \"#utility.yul\":7576:7594   */\n      tag_234\n      tag_47\n      jump\t// in\n    tag_234:\n        /* \"#utility.yul\":7550:7596   */\n    tag_233:\n        /* \"#utility.yul\":7489:7602   */\n      pop\n      jump\t// out\n        /* \"#utility.yul\":7608:7730   */\n    tag_132:\n        /* \"#utility.yul\":7681:7705   */\n      tag_236\n        /* \"#utility.yul\":7699:7704   */\n      dup2\n        /* \"#utility.yul\":7681:7705   */\n      tag_155\n      jump\t// in\n    tag_236:\n        /* \"#utility.yul\":7674:7679   */\n      dup2\n        /* \"#utility.yul\":7671:7706   */\n      eq\n        /* \"#utility.yul\":7661:7724   */\n      tag_237\n      jumpi\n        /* \"#utility.yul\":7720:7721   */\n      0x00\n        /* \"#utility.yul\":7717:7718   */\n      dup1\n        /* \"#utility.yul\":7710:7722   */\n      revert\n        /* \"#utility.yul\":7661:7724   */\n    tag_237:\n        /* \"#utility.yul\":7608:7730   */\n      pop\n      jump\t// out\n        /* \"#utility.yul\":7736:7858   */\n    tag_136:\n        /* \"#utility.yul\":7809:7833   */\n      tag_239\n        /* \"#utility.yul\":7827:7832   */\n      dup2\n        /* \"#utility.yul\":7809:7833   */\n      tag_175\n      jump\t// in\n    tag_239:\n        /* \"#utility.yul\":7802:7807   */\n      dup2\n        /* \"#utility.yul\":7799:7834   */\n      eq\n        /* \"#utility.yul\":7789:7852   */\n      tag_240\n      jumpi\n        /* \"#utility.yul\":7848:7849   */\n      0x00\n        /* \"#utility.yul\":7845:7846   */\n      dup1\n        /* \"#utility.yul\":7838:7850   */\n      revert\n        /* \"#utility.yul\":7789:7852   */\n    tag_240:\n        /* \"#utility.yul\":7736:7858   */\n      pop\n      jump\t// out\n\n    auxdata: 0xa26469706673582212203103698afc1685ab3ef8fedd2ed1ce087426d306642188ac7e86b4dfa457213364736f6c63430008070033\n}\n",
				"bytecode": {
					"linkReferences": {},
					"object": "608060405260006002556000600560006101000a81548160ff021916908360038111156200003257620000316200045f565b5b02179055503480156200004457600080fd5b50336000806101000a81548173ffffffffffffffffffffffffffffffffffffffff021916908373ffffffffffffffffffffffffffffffffffffffff160217905550620000956200009b60201b60201c565b620004dd565b60008054906101000a900473ffffffffffffffffffffffffffffffffffffffff1673ffffffffffffffffffffffffffffffffffffffff163373ffffffffffffffffffffffffffffffffffffffff16146200012c576040517f08c379a0000000000000000000000000000000000000000000000000000000008152600401620001239062000396565b60405180910390fd5b6003808111156200014257620001416200045f565b5b600560009054906101000a900460ff1660038111156200016757620001666200045f565b5b1415620001a2576000600560006101000a81548160ff021916908360038111156200019757620001966200045f565b5b02179055506200021d565b60006001600560009054906101000a900460ff166003811115620001cb57620001ca6200045f565b5b620001d79190620003c9565b9050806003811115620001ef57620001ee6200045f565b5b600560006101000a81548160ff021916908360038111156200021657620002156200045f565b5b0217905550505b600260038111156200023457620002336200045f565b5b600560009054906101000a900460ff1660038111156200025957620002586200045f565b5b14156200028d577f3bcc93d35219aa0512d7c0d1ca10b0231f473e3d5f9396877d1b7215ee0ab3d560405160405180910390a15b60016003811115620002a457620002a36200045f565b5b600560009054906101000a900460ff166003811115620002c957620002c86200045f565b5b1415620002fd577f02c124e22ee7da1c9905bbb317cf67658c1cc3ea1c0953b1633f85d0b5c281d960405160405180910390a15b600060038111156200031457620003136200045f565b5b600560009054906101000a900460ff1660038111156200033957620003386200045f565b5b14156200036d577f8ad2842071cb64589c8e006941bc20b615aae08a93530e211ca7c9639bd26d9760405160405180910390a15b565b60006200037e602883620003b8565b91506200038b826200048e565b604082019050919050565b60006020820190508181036000830152620003b1816200036f565b9050919050565b600082825260208201905092915050565b6000620003d68262000426565b9150620003e38362000426565b9250827fffffffffffffffffffffffffffffffffffffffffffffffffffffffffffffffff038211156200041b576200041a62000430565b5b828201905092915050565b6000819050919050565b7f4e487b7100000000000000000000000000000000000000000000000000000000600052601160045260246000fd5b7f4e487b7100000000000000000000000000000000000000000000000000000000600052602160045260246000fd5b7f4f6e6c792062656e65666963696172792063616e20706572666f726d2074686960008201527f7320616374696f6e000000000000000000000000000000000000000000000000602082015250565b610e4780620004ed6000396000f3fe60806040526004361061007b5760003560e01c806391f901571161004e57806391f9015714610102578063957bb1e01461012d578063be25a71814610149578063d57bde79146101605761007b565b8063055ad42e146100805780632a24f46c146100ab5780633ccfd60b146100c25780634036778f146100d9575b600080fd5b34801561008c57600080fd5b5061009561018b565b6040516100a29190610b64565b60405180910390f35b3480156100b757600080fd5b506100c061019e565b005b3480156100ce57600080fd5b506100d76102a8565b005b3480156100e557600080fd5b5061010060048036038101906100fb9190610a13565b610385565b005b34801561010e57600080fd5b50610117610502565b6040516101249190610b20565b60405180910390f35b610147600480360381019061014291906109e6565b610528565b005b34801561015557600080fd5b5061015e6105d8565b005b34801561016c57600080fd5b5061017561087e565b6040516101829190610bbf565b60405180910390f35b600560009054906101000a900460ff1681565b60038060038111156101b3576101b2610d23565b5b600560009054906101000a900460ff1660038111156101d5576101d4610d23565b5b146101df57600080fd5b60008054906101000a900473ffffffffffffffffffffffffffffffffffffffff1673ffffffffffffffffffffffffffffffffffffffff166108fc6002549081150290604051600060405180830381858888f19350505050158015610247573d6000803e3d6000fd5b507fdaec4582d5d9595688c8c98545fdd1c696d41c6aeaeb636737e84ed2f5c00eda600160009054906101000a900473ffffffffffffffffffffffffffffffffffffffff1660025460405161029d929190610b3b565b60405180910390a150565b6000600460003373ffffffffffffffffffffffffffffffffffffffff1673ffffffffffffffffffffffffffffffffffffffff1681526020019081526020016000205490506000811115610382576000600460003373ffffffffffffffffffffffffffffffffffffffff1673ffffffffffffffffffffffffffffffffffffffff168152602001908152602001600020819055503373ffffffffffffffffffffffffffffffffffffffff166108fc829081150290604051600060405180830381858888f19350505050158015610380573d6000803e3d6000fd5b505b50565b600280600381111561039a57610399610d23565b5b600560009054906101000a900460ff1660038111156103bc576103bb610d23565b5b146103c657600080fd5b600080600360003373ffffffffffffffffffffffffffffffffffffffff1673ffffffffffffffffffffffffffffffffffffffff1681526020019081526020016000209050848460405160200161041d929190610af4565b60405160208183030381529060405280519060200120816000015414610478576040517f08c379a000000000000000000000000000000000000000000000000000000000815260040161046f90610b7f565b60405180910390fd5b8060010154826104889190610beb565b9150848160010154106104b45761049f3386610884565b156104b35784826104b09190610c41565b91505b5b3373ffffffffffffffffffffffffffffffffffffffff166108fc839081150290604051600060405180830381858888f193505050501580156104fa573d6000803e3d6000fd5b505050505050565b600160009054906101000a900473ffffffffffffffffffffffffffffffffffffffff1681565b600180600381111561053d5761053c610d23565b5b600560009054906101000a900460ff16600381111561055f5761055e610d23565b5b1461056957600080fd5b604051806040016040528083815260200134815250600360003373ffffffffffffffffffffffffffffffffffffffff1673ffffffffffffffffffffffffffffffffffffffff16815260200190815260200160002060008201518160000155602082015181600101559050505050565b60008054906101000a900473ffffffffffffffffffffffffffffffffffffffff1673ffffffffffffffffffffffffffffffffffffffff163373ffffffffffffffffffffffffffffffffffffffff1614610666576040517f08c379a000000000000000000000000000000000000000000000000000000000815260040161065d90610b9f565b60405180910390fd5b60038081111561067957610678610d23565b5b600560009054906101000a900460ff16600381111561069b5761069a610d23565b5b14156106d1576000600560006101000a81548160ff021916908360038111156106c7576106c6610d23565b5b0217905550610741565b60006001600560009054906101000a900460ff1660038111156106f7576106f6610d23565b5b6107019190610beb565b905080600381111561071657610715610d23565b5b600560006101000a81548160ff0219169083600381111561073a57610739610d23565b5b0217905550505b6002600381111561075557610754610d23565b5b600560009054906101000a900460ff16600381111561077757610776610d23565b5b14156107aa577f3bcc93d35219aa0512d7c0d1ca10b0231f473e3d5f9396877d1b7215ee0ab3d560405160405180910390a15b600160038111156107be576107bd610d23565b5b600560009054906101000a900460ff1660038111156107e0576107df610d23565b5b1415610813577f02c124e22ee7da1c9905bbb317cf67658c1cc3ea1c0953b1633f85d0b5c281d960405160405180910390a15b6000600381111561082757610826610d23565b5b600560009054906101000a900460ff16600381111561084957610848610d23565b5b141561087c577f8ad2842071cb64589c8e006941bc20b615aae08a93530e211ca7c9639bd26d9760405160405180910390a15b565b60025481565b6000600254821161089857600090506109b6565b600073ffffffffffffffffffffffffffffffffffffffff16600160009054906101000a900473ffffffffffffffffffffffffffffffffffffffff1673ffffffffffffffffffffffffffffffffffffffff16146109695760025460046000600160009054906101000a900473ffffffffffffffffffffffffffffffffffffffff1673ffffffffffffffffffffffffffffffffffffffff1673ffffffffffffffffffffffffffffffffffffffff16815260200190815260200160002060008282546109619190610beb565b925050819055505b8160028190555082600160006101000a81548173ffffffffffffffffffffffffffffffffffffffff021916908373ffffffffffffffffffffffffffffffffffffffff160217905550600190505b92915050565b6000813590506109cb81610de3565b92915050565b6000813590506109e081610dfa565b92915050565b6000602082840312156109fc576109fb610d52565b5b6000610a0a848285016109bc565b91505092915050565b60008060408385031215610a2a57610a29610d52565b5b6000610a38858286016109d1565b9250506020610a49858286016109bc565b9150509250929050565b610a5c81610c75565b82525050565b610a73610a6e82610c87565b610ce0565b82525050565b610a8281610cce565b82525050565b6000610a95601083610bda565b9150610aa082610d57565b602082019050919050565b6000610ab8602883610bda565b9150610ac382610d80565b604082019050919050565b610ad781610cc4565b82525050565b610aee610ae982610cc4565b610cea565b82525050565b6000610b008285610add565b602082019150610b108284610a62565b6020820191508190509392505050565b6000602082019050610b356000830184610a53565b92915050565b6000604082019050610b506000830185610a53565b610b5d6020830184610ace565b9392505050565b6000602082019050610b796000830184610a79565b92915050565b60006020820190508181036000830152610b9881610a88565b9050919050565b60006020820190508181036000830152610bb881610aab565b9050919050565b6000602082019050610bd46000830184610ace565b92915050565b600082825260208201905092915050565b6000610bf682610cc4565b9150610c0183610cc4565b9250827fffffffffffffffffffffffffffffffffffffffffffffffffffffffffffffffff03821115610c3657610c35610cf4565b5b828201905092915050565b6000610c4c82610cc4565b9150610c5783610cc4565b925082821015610c6a57610c69610cf4565b5b828203905092915050565b6000610c8082610ca4565b9050919050565b6000819050919050565b6000819050610c9f82610dcf565b919050565b600073ffffffffffffffffffffffffffffffffffffffff82169050919050565b6000819050919050565b6000610cd982610c91565b9050919050565b6000819050919050565b6000819050919050565b7f4e487b7100000000000000000000000000000000000000000000000000000000600052601160045260246000fd5b7f4e487b7100000000000000000000000000000000000000000000000000000000600052602160045260246000fd5b600080fd5b7f6e6f74206d61746368696e672062696400000000000000000000000000000000600082015250565b7f4f6e6c792062656e65666963696172792063616e20706572666f726d2074686960008201527f7320616374696f6e000000000000000000000000000000000000000000000000602082015250565b60048110610de057610ddf610d23565b5b50565b610dec81610c87565b8114610df757600080fd5b50565b610e0381610cc4565b8114610e0e57600080fd5b5056fea26469706673582212203103698afc1685ab3ef8fedd2ed1ce087426d306642188ac7e86b4dfa457213364736f6c63430008070033",
					"opcodes": "PUSH1 0x80 PUSH1 0x40 MSTORE PUSH1 0x0 PUSH1 0x2 SSTORE PUSH1 0x0 PUSH1 0x5 PUSH1 0x0 PUSH2 0x100 EXP DUP2 SLOAD DUP2 PUSH1 0xFF MUL NOT AND SWAP1 DUP4 PUSH1 0x3 DUP2 GT ISZERO PUSH3 0x32 JUMPI PUSH3 0x31 PUSH3 0x45F JUMP JUMPDEST JUMPDEST MUL OR SWAP1 SSTORE POP CALLVALUE DUP1 ISZERO PUSH3 0x44 JUMPI PUSH1 0x0 DUP1 REVERT JUMPDEST POP CALLER PUSH1 0x0 DUP1 PUSH2 0x100 EXP DUP2 SLOAD DUP2 PUSH20 0xFFFFFFFFFFFFFFFFFFFFFFFFFFFFFFFFFFFFFFFF MUL NOT AND SWAP1 DUP4 PUSH20 0xFFFFFFFFFFFFFFFFFFFFFFFFFFFFFFFFFFFFFFFF AND MUL OR SWAP1 SSTORE POP PUSH3 0x95 PUSH3 0x9B PUSH1 0x20 SHL PUSH1 0x20 SHR JUMP JUMPDEST PUSH3 0x4DD JUMP JUMPDEST PUSH1 0x0 DUP1 SLOAD SWAP1 PUSH2 0x100 EXP SWAP1 DIV PUSH20 0xFFFFFFFFFFFFFFFFFFFFFFFFFFFFFFFFFFFFFFFF AND PUSH20 0xFFFFFFFFFFFFFFFFFFFFFFFFFFFFFFFFFFFFFFFF AND CALLER PUSH20 0xFFFFFFFFFFFFFFFFFFFFFFFFFFFFFFFFFFFFFFFF AND EQ PUSH3 0x12C JUMPI PUSH1 0x40 MLOAD PUSH32 0x8C379A000000000000000000000000000000000000000000000000000000000 DUP2 MSTORE PUSH1 0x4 ADD PUSH3 0x123 SWAP1 PUSH3 0x396 JUMP JUMPDEST PUSH1 0x40 MLOAD DUP1 SWAP2 SUB SWAP1 REVERT JUMPDEST PUSH1 0x3 DUP1 DUP2 GT ISZERO PUSH3 0x142 JUMPI PUSH3 0x141 PUSH3 0x45F JUMP JUMPDEST JUMPDEST PUSH1 0x5 PUSH1 0x0 SWAP1 SLOAD SWAP1 PUSH2 0x100 EXP SWAP1 DIV PUSH1 0xFF AND PUSH1 0x3 DUP2 GT ISZERO PUSH3 0x167 JUMPI PUSH3 0x166 PUSH3 0x45F JUMP JUMPDEST JUMPDEST EQ ISZERO PUSH3 0x1A2 JUMPI PUSH1 0x0 PUSH1 0x5 PUSH1 0x0 PUSH2 0x100 EXP DUP2 SLOAD DUP2 PUSH1 0xFF MUL NOT AND SWAP1 DUP4 PUSH1 0x3 DUP2 GT ISZERO PUSH3 0x197 JUMPI PUSH3 0x196 PUSH3 0x45F JUMP JUMPDEST JUMPDEST MUL OR SWAP1 SSTORE POP PUSH3 0x21D JUMP JUMPDEST PUSH1 0x0 PUSH1 0x1 PUSH1 0x5 PUSH1 0x0 SWAP1 SLOAD SWAP1 PUSH2 0x100 EXP SWAP1 DIV PUSH1 0xFF AND PUSH1 0x3 DUP2 GT ISZERO PUSH3 0x1CB JUMPI PUSH3 0x1CA PUSH3 0x45F JUMP JUMPDEST JUMPDEST PUSH3 0x1D7 SWAP2 SWAP1 PUSH3 0x3C9 JUMP JUMPDEST SWAP1 POP DUP1 PUSH1 0x3 DUP2 GT ISZERO PUSH3 0x1EF JUMPI PUSH3 0x1EE PUSH3 0x45F JUMP JUMPDEST JUMPDEST PUSH1 0x5 PUSH1 0x0 PUSH2 0x100 EXP DUP2 SLOAD DUP2 PUSH1 0xFF MUL NOT AND SWAP1 DUP4 PUSH1 0x3 DUP2 GT ISZERO PUSH3 0x216 JUMPI PUSH3 0x215 PUSH3 0x45F JUMP JUMPDEST JUMPDEST MUL OR SWAP1 SSTORE POP POP JUMPDEST PUSH1 0x2 PUSH1 0x3 DUP2 GT ISZERO PUSH3 0x234 JUMPI PUSH3 0x233 PUSH3 0x45F JUMP JUMPDEST JUMPDEST PUSH1 0x5 PUSH1 0x0 SWAP1 SLOAD SWAP1 PUSH2 0x100 EXP SWAP1 DIV PUSH1 0xFF AND PUSH1 0x3 DUP2 GT ISZERO PUSH3 0x259 JUMPI PUSH3 0x258 PUSH3 0x45F JUMP JUMPDEST JUMPDEST EQ ISZERO PUSH3 0x28D JUMPI PUSH32 0x3BCC93D35219AA0512D7C0D1CA10B0231F473E3D5F9396877D1B7215EE0AB3D5 PUSH1 0x40 MLOAD PUSH1 0x40 MLOAD DUP1 SWAP2 SUB SWAP1 LOG1 JUMPDEST PUSH1 0x1 PUSH1 0x3 DUP2 GT ISZERO PUSH3 0x2A4 JUMPI PUSH3 0x2A3 PUSH3 0x45F JUMP JUMPDEST JUMPDEST PUSH1 0x5 PUSH1 0x0 SWAP1 SLOAD SWAP1 PUSH2 0x100 EXP SWAP1 DIV PUSH1 0xFF AND PUSH1 0x3 DUP2 GT ISZERO PUSH3 0x2C9 JUMPI PUSH3 0x2C8 PUSH3 0x45F JUMP JUMPDEST JUMPDEST EQ ISZERO PUSH3 0x2FD JUMPI PUSH32 0x2C124E22EE7DA1C9905BBB317CF67658C1CC3EA1C0953B1633F85D0B5C281D9 PUSH1 0x40 MLOAD PUSH1 0x40 MLOAD DUP1 SWAP2 SUB SWAP1 LOG1 JUMPDEST PUSH1 0x0 PUSH1 0x3 DUP2 GT ISZERO PUSH3 0x314 JUMPI PUSH3 0x313 PUSH3 0x45F JUMP JUMPDEST JUMPDEST PUSH1 0x5 PUSH1 0x0 SWAP1 SLOAD SWAP1 PUSH2 0x100 EXP SWAP1 DIV PUSH1 0xFF AND PUSH1 0x3 DUP2 GT ISZERO PUSH3 0x339 JUMPI PUSH3 0x338 PUSH3 0x45F JUMP JUMPDEST JUMPDEST EQ ISZERO PUSH3 0x36D JUMPI PUSH32 0x8AD2842071CB64589C8E006941BC20B615AAE08A93530E211CA7C9639BD26D97 PUSH1 0x40 MLOAD PUSH1 0x40 MLOAD DUP1 SWAP2 SUB SWAP1 LOG1 JUMPDEST JUMP JUMPDEST PUSH1 0x0 PUSH3 0x37E PUSH1 0x28 DUP4 PUSH3 0x3B8 JUMP JUMPDEST SWAP2 POP PUSH3 0x38B DUP3 PUSH3 0x48E JUMP JUMPDEST PUSH1 0x40 DUP3 ADD SWAP1 POP SWAP2 SWAP1 POP JUMP JUMPDEST PUSH1 0x0 PUSH1 0x20 DUP3 ADD SWAP1 POP DUP2 DUP2 SUB PUSH1 0x0 DUP4 ADD MSTORE PUSH3 0x3B1 DUP2 PUSH3 0x36F JUMP JUMPDEST SWAP1 POP SWAP2 SWAP1 POP JUMP JUMPDEST PUSH1 0x0 DUP3 DUP3 MSTORE PUSH1 0x20 DUP3 ADD SWAP1 POP SWAP3 SWAP2 POP POP JUMP JUMPDEST PUSH1 0x0 PUSH3 0x3D6 DUP3 PUSH3 0x426 JUMP JUMPDEST SWAP2 POP PUSH3 0x3E3 DUP4 PUSH3 0x426 JUMP JUMPDEST SWAP3 POP DUP3 PUSH32 0xFFFFFFFFFFFFFFFFFFFFFFFFFFFFFFFFFFFFFFFFFFFFFFFFFFFFFFFFFFFFFFFF SUB DUP3 GT ISZERO PUSH3 0x41B JUMPI PUSH3 0x41A PUSH3 0x430 JUMP JUMPDEST JUMPDEST DUP3 DUP3 ADD SWAP1 POP SWAP3 SWAP2 POP POP JUMP JUMPDEST PUSH1 0x0 DUP2 SWAP1 POP SWAP2 SWAP1 POP JUMP JUMPDEST PUSH32 0x4E487B7100000000000000000000000000000000000000000000000000000000 PUSH1 0x0 MSTORE PUSH1 0x11 PUSH1 0x4 MSTORE PUSH1 0x24 PUSH1 0x0 REVERT JUMPDEST PUSH32 0x4E487B7100000000000000000000000000000000000000000000000000000000 PUSH1 0x0 MSTORE PUSH1 0x21 PUSH1 0x4 MSTORE PUSH1 0x24 PUSH1 0x0 REVERT JUMPDEST PUSH32 0x4F6E6C792062656E65666963696172792063616E20706572666F726D20746869 PUSH1 0x0 DUP3 ADD MSTORE PUSH32 0x7320616374696F6E000000000000000000000000000000000000000000000000 PUSH1 0x20 DUP3 ADD MSTORE POP JUMP JUMPDEST PUSH2 0xE47 DUP1 PUSH3 0x4ED PUSH1 0x0 CODECOPY PUSH1 0x0 RETURN INVALID PUSH1 0x80 PUSH1 0x40 MSTORE PUSH1 0x4 CALLDATASIZE LT PUSH2 0x7B JUMPI PUSH1 0x0 CALLDATALOAD PUSH1 0xE0 SHR DUP1 PUSH4 0x91F90157 GT PUSH2 0x4E JUMPI DUP1 PUSH4 0x91F90157 EQ PUSH2 0x102 JUMPI DUP1 PUSH4 0x957BB1E0 EQ PUSH2 0x12D JUMPI DUP1 PUSH4 0xBE25A718 EQ PUSH2 0x149 JUMPI DUP1 PUSH4 0xD57BDE79 EQ PUSH2 0x160 JUMPI PUSH2 0x7B JUMP JUMPDEST DUP1 PUSH4 0x55AD42E EQ PUSH2 0x80 JUMPI DUP1 PUSH4 0x2A24F46C EQ PUSH2 0xAB JUMPI DUP1 PUSH4 0x3CCFD60B EQ PUSH2 0xC2 JUMPI DUP1 PUSH4 0x4036778F EQ PUSH2 0xD9 JUMPI JUMPDEST PUSH1 0x0 DUP1 REVERT JUMPDEST CALLVALUE DUP1 ISZERO PUSH2 0x8C JUMPI PUSH1 0x0 DUP1 REVERT JUMPDEST POP PUSH2 0x95 PUSH2 0x18B JUMP JUMPDEST PUSH1 0x40 MLOAD PUSH2 0xA2 SWAP2 SWAP1 PUSH2 0xB64 JUMP JUMPDEST PUSH1 0x40 MLOAD DUP1 SWAP2 SUB SWAP1 RETURN JUMPDEST CALLVALUE DUP1 ISZERO PUSH2 0xB7 JUMPI PUSH1 0x0 DUP1 REVERT JUMPDEST POP PUSH2 0xC0 PUSH2 0x19E JUMP JUMPDEST STOP JUMPDEST CALLVALUE DUP1 ISZERO PUSH2 0xCE JUMPI PUSH1 0x0 DUP1 REVERT JUMPDEST POP PUSH2 0xD7 PUSH2 0x2A8 JUMP JUMPDEST STOP JUMPDEST CALLVALUE DUP1 ISZERO PUSH2 0xE5 JUMPI PUSH1 0x0 DUP1 REVERT JUMPDEST POP PUSH2 0x100 PUSH1 0x4 DUP1 CALLDATASIZE SUB DUP2 ADD SWAP1 PUSH2 0xFB SWAP2 SWAP1 PUSH2 0xA13 JUMP JUMPDEST PUSH2 0x385 JUMP JUMPDEST STOP JUMPDEST CALLVALUE DUP1 ISZERO PUSH2 0x10E JUMPI PUSH1 0x0 DUP1 REVERT JUMPDEST POP PUSH2 0x117 PUSH2 0x502 JUMP JUMPDEST PUSH1 0x40 MLOAD PUSH2 0x124 SWAP2 SWAP1 PUSH2 0xB20 JUMP JUMPDEST PUSH1 0x40 MLOAD DUP1 SWAP2 SUB SWAP1 RETURN JUMPDEST PUSH2 0x147 PUSH1 0x4 DUP1 CALLDATASIZE SUB DUP2 ADD SWAP1 PUSH2 0x142 SWAP2 SWAP1 PUSH2 0x9E6 JUMP JUMPDEST PUSH2 0x528 JUMP JUMPDEST STOP JUMPDEST CALLVALUE DUP1 ISZERO PUSH2 0x155 JUMPI PUSH1 0x0 DUP1 REVERT JUMPDEST POP PUSH2 0x15E PUSH2 0x5D8 JUMP JUMPDEST STOP JUMPDEST CALLVALUE DUP1 ISZERO PUSH2 0x16C JUMPI PUSH1 0x0 DUP1 REVERT JUMPDEST POP PUSH2 0x175 PUSH2 0x87E JUMP JUMPDEST PUSH1 0x40 MLOAD PUSH2 0x182 SWAP2 SWAP1 PUSH2 0xBBF JUMP JUMPDEST PUSH1 0x40 MLOAD DUP1 SWAP2 SUB SWAP1 RETURN JUMPDEST PUSH1 0x5 PUSH1 0x0 SWAP1 SLOAD SWAP1 PUSH2 0x100 EXP SWAP1 DIV PUSH1 0xFF AND DUP2 JUMP JUMPDEST PUSH1 0x3 DUP1 PUSH1 0x3 DUP2 GT ISZERO PUSH2 0x1B3 JUMPI PUSH2 0x1B2 PUSH2 0xD23 JUMP JUMPDEST JUMPDEST PUSH1 0x5 PUSH1 0x0 SWAP1 SLOAD SWAP1 PUSH2 0x100 EXP SWAP1 DIV PUSH1 0xFF AND PUSH1 0x3 DUP2 GT ISZERO PUSH2 0x1D5 JUMPI PUSH2 0x1D4 PUSH2 0xD23 JUMP JUMPDEST JUMPDEST EQ PUSH2 0x1DF JUMPI PUSH1 0x0 DUP1 REVERT JUMPDEST PUSH1 0x0 DUP1 SLOAD SWAP1 PUSH2 0x100 EXP SWAP1 DIV PUSH20 0xFFFFFFFFFFFFFFFFFFFFFFFFFFFFFFFFFFFFFFFF AND PUSH20 0xFFFFFFFFFFFFFFFFFFFFFFFFFFFFFFFFFFFFFFFF AND PUSH2 0x8FC PUSH1 0x2 SLOAD SWAP1 DUP2 ISZERO MUL SWAP1 PUSH1 0x40 MLOAD PUSH1 0x0 PUSH1 0x40 MLOAD DUP1 DUP4 SUB DUP2 DUP6 DUP9 DUP9 CALL SWAP4 POP POP POP POP ISZERO DUP1 ISZERO PUSH2 0x247 JUMPI RETURNDATASIZE PUSH1 0x0 DUP1 RETURNDATACOPY RETURNDATASIZE PUSH1 0x0 REVERT JUMPDEST POP PUSH32 0xDAEC4582D5D9595688C8C98545FDD1C696D41C6AEAEB636737E84ED2F5C00EDA PUSH1 0x1 PUSH1 0x0 SWAP1 SLOAD SWAP1 PUSH2 0x100 EXP SWAP1 DIV PUSH20 0xFFFFFFFFFFFFFFFFFFFFFFFFFFFFFFFFFFFFFFFF AND PUSH1 0x2 SLOAD PUSH1 0x40 MLOAD PUSH2 0x29D SWAP3 SWAP2 SWAP1 PUSH2 0xB3B JUMP JUMPDEST PUSH1 0x40 MLOAD DUP1 SWAP2 SUB SWAP1 LOG1 POP JUMP JUMPDEST PUSH1 0x0 PUSH1 0x4 PUSH1 0x0 CALLER PUSH20 0xFFFFFFFFFFFFFFFFFFFFFFFFFFFFFFFFFFFFFFFF AND PUSH20 0xFFFFFFFFFFFFFFFFFFFFFFFFFFFFFFFFFFFFFFFF AND DUP2 MSTORE PUSH1 0x20 ADD SWAP1 DUP2 MSTORE PUSH1 0x20 ADD PUSH1 0x0 KECCAK256 SLOAD SWAP1 POP PUSH1 0x0 DUP2 GT ISZERO PUSH2 0x382 JUMPI PUSH1 0x0 PUSH1 0x4 PUSH1 0x0 CALLER PUSH20 0xFFFFFFFFFFFFFFFFFFFFFFFFFFFFFFFFFFFFFFFF AND PUSH20 0xFFFFFFFFFFFFFFFFFFFFFFFFFFFFFFFFFFFFFFFF AND DUP2 MSTORE PUSH1 0x20 ADD SWAP1 DUP2 MSTORE PUSH1 0x20 ADD PUSH1 0x0 KECCAK256 DUP2 SWAP1 SSTORE POP CALLER PUSH20 0xFFFFFFFFFFFFFFFFFFFFFFFFFFFFFFFFFFFFFFFF AND PUSH2 0x8FC DUP3 SWAP1 DUP2 ISZERO MUL SWAP1 PUSH1 0x40 MLOAD PUSH1 0x0 PUSH1 0x40 MLOAD DUP1 DUP4 SUB DUP2 DUP6 DUP9 DUP9 CALL SWAP4 POP POP POP POP ISZERO DUP1 ISZERO PUSH2 0x380 JUMPI RETURNDATASIZE PUSH1 0x0 DUP1 RETURNDATACOPY RETURNDATASIZE PUSH1 0x0 REVERT JUMPDEST POP JUMPDEST POP JUMP JUMPDEST PUSH1 0x2 DUP1 PUSH1 0x3 DUP2 GT ISZERO PUSH2 0x39A JUMPI PUSH2 0x399 PUSH2 0xD23 JUMP JUMPDEST JUMPDEST PUSH1 0x5 PUSH1 0x0 SWAP1 SLOAD SWAP1 PUSH2 0x100 EXP SWAP1 DIV PUSH1 0xFF AND PUSH1 0x3 DUP2 GT ISZERO PUSH2 0x3BC JUMPI PUSH2 0x3BB PUSH2 0xD23 JUMP JUMPDEST JUMPDEST EQ PUSH2 0x3C6 JUMPI PUSH1 0x0 DUP1 REVERT JUMPDEST PUSH1 0x0 DUP1 PUSH1 0x3 PUSH1 0x0 CALLER PUSH20 0xFFFFFFFFFFFFFFFFFFFFFFFFFFFFFFFFFFFFFFFF AND PUSH20 0xFFFFFFFFFFFFFFFFFFFFFFFFFFFFFFFFFFFFFFFF AND DUP2 MSTORE PUSH1 0x20 ADD SWAP1 DUP2 MSTORE PUSH1 0x20 ADD PUSH1 0x0 KECCAK256 SWAP1 POP DUP5 DUP5 PUSH1 0x40 MLOAD PUSH1 0x20 ADD PUSH2 0x41D SWAP3 SWAP2 SWAP1 PUSH2 0xAF4 JUMP JUMPDEST PUSH1 0x40 MLOAD PUSH1 0x20 DUP2 DUP4 SUB SUB DUP2 MSTORE SWAP1 PUSH1 0x40 MSTORE DUP1 MLOAD SWAP1 PUSH1 0x20 ADD KECCAK256 DUP2 PUSH1 0x0 ADD SLOAD EQ PUSH2 0x478 JUMPI PUSH1 0x40 MLOAD PUSH32 0x8C379A000000000000000000000000000000000000000000000000000000000 DUP2 MSTORE PUSH1 0x4 ADD PUSH2 0x46F SWAP1 PUSH2 0xB7F JUMP JUMPDEST PUSH1 0x40 MLOAD DUP1 SWAP2 SUB SWAP1 REVERT JUMPDEST DUP1 PUSH1 0x1 ADD SLOAD DUP3 PUSH2 0x488 SWAP2 SWAP1 PUSH2 0xBEB JUMP JUMPDEST SWAP2 POP DUP5 DUP2 PUSH1 0x1 ADD SLOAD LT PUSH2 0x4B4 JUMPI PUSH2 0x49F CALLER DUP7 PUSH2 0x884 JUMP JUMPDEST ISZERO PUSH2 0x4B3 JUMPI DUP5 DUP3 PUSH2 0x4B0 SWAP2 SWAP1 PUSH2 0xC41 JUMP JUMPDEST SWAP2 POP JUMPDEST JUMPDEST CALLER PUSH20 0xFFFFFFFFFFFFFFFFFFFFFFFFFFFFFFFFFFFFFFFF AND PUSH2 0x8FC DUP4 SWAP1 DUP2 ISZERO MUL SWAP1 PUSH1 0x40 MLOAD PUSH1 0x0 PUSH1 0x40 MLOAD DUP1 DUP4 SUB DUP2 DUP6 DUP9 DUP9 CALL SWAP4 POP POP POP POP ISZERO DUP1 ISZERO PUSH2 0x4FA JUMPI RETURNDATASIZE PUSH1 0x0 DUP1 RETURNDATACOPY RETURNDATASIZE PUSH1 0x0 REVERT JUMPDEST POP POP POP POP POP POP JUMP JUMPDEST PUSH1 0x1 PUSH1 0x0 SWAP1 SLOAD SWAP1 PUSH2 0x100 EXP SWAP1 DIV PUSH20 0xFFFFFFFFFFFFFFFFFFFFFFFFFFFFFFFFFFFFFFFF AND DUP2 JUMP JUMPDEST PUSH1 0x1 DUP1 PUSH1 0x3 DUP2 GT ISZERO PUSH2 0x53D JUMPI PUSH2 0x53C PUSH2 0xD23 JUMP JUMPDEST JUMPDEST PUSH1 0x5 PUSH1 0x0 SWAP1 SLOAD SWAP1 PUSH2 0x100 EXP SWAP1 DIV PUSH1 0xFF AND PUSH1 0x3 DUP2 GT ISZERO PUSH2 0x55F JUMPI PUSH2 0x55E PUSH2 0xD23 JUMP JUMPDEST JUMPDEST EQ PUSH2 0x569 JUMPI PUSH1 0x0 DUP1 REVERT JUMPDEST PUSH1 0x40 MLOAD DUP1 PUSH1 0x40 ADD PUSH1 0x40 MSTORE DUP1 DUP4 DUP2 MSTORE PUSH1 0x20 ADD CALLVALUE DUP2 MSTORE POP PUSH1 0x3 PUSH1 0x0 CALLER PUSH20 0xFFFFFFFFFFFFFFFFFFFFFFFFFFFFFFFFFFFFFFFF AND PUSH20 0xFFFFFFFFFFFFFFFFFFFFFFFFFFFFFFFFFFFFFFFF AND DUP2 MSTORE PUSH1 0x20 ADD SWAP1 DUP2 MSTORE PUSH1 0x20 ADD PUSH1 0x0 KECCAK256 PUSH1 0x0 DUP3 ADD MLOAD DUP2 PUSH1 0x0 ADD SSTORE PUSH1 0x20 DUP3 ADD MLOAD DUP2 PUSH1 0x1 ADD SSTORE SWAP1 POP POP POP POP JUMP JUMPDEST PUSH1 0x0 DUP1 SLOAD SWAP1 PUSH2 0x100 EXP SWAP1 DIV PUSH20 0xFFFFFFFFFFFFFFFFFFFFFFFFFFFFFFFFFFFFFFFF AND PUSH20 0xFFFFFFFFFFFFFFFFFFFFFFFFFFFFFFFFFFFFFFFF AND CALLER PUSH20 0xFFFFFFFFFFFFFFFFFFFFFFFFFFFFFFFFFFFFFFFF AND EQ PUSH2 0x666 JUMPI PUSH1 0x40 MLOAD PUSH32 0x8C379A000000000000000000000000000000000000000000000000000000000 DUP2 MSTORE PUSH1 0x4 ADD PUSH2 0x65D SWAP1 PUSH2 0xB9F JUMP JUMPDEST PUSH1 0x40 MLOAD DUP1 SWAP2 SUB SWAP1 REVERT JUMPDEST PUSH1 0x3 DUP1 DUP2 GT ISZERO PUSH2 0x679 JUMPI PUSH2 0x678 PUSH2 0xD23 JUMP JUMPDEST JUMPDEST PUSH1 0x5 PUSH1 0x0 SWAP1 SLOAD SWAP1 PUSH2 0x100 EXP SWAP1 DIV PUSH1 0xFF AND PUSH1 0x3 DUP2 GT ISZERO PUSH2 0x69B JUMPI PUSH2 0x69A PUSH2 0xD23 JUMP JUMPDEST JUMPDEST EQ ISZERO PUSH2 0x6D1 JUMPI PUSH1 0x0 PUSH1 0x5 PUSH1 0x0 PUSH2 0x100 EXP DUP2 SLOAD DUP2 PUSH1 0xFF MUL NOT AND SWAP1 DUP4 PUSH1 0x3 DUP2 GT ISZERO PUSH2 0x6C7 JUMPI PUSH2 0x6C6 PUSH2 0xD23 JUMP JUMPDEST JUMPDEST MUL OR SWAP1 SSTORE POP PUSH2 0x741 JUMP JUMPDEST PUSH1 0x0 PUSH1 0x1 PUSH1 0x5 PUSH1 0x0 SWAP1 SLOAD SWAP1 PUSH2 0x100 EXP SWAP1 DIV PUSH1 0xFF AND PUSH1 0x3 DUP2 GT ISZERO PUSH2 0x6F7 JUMPI PUSH2 0x6F6 PUSH2 0xD23 JUMP JUMPDEST JUMPDEST PUSH2 0x701 SWAP2 SWAP1 PUSH2 0xBEB JUMP JUMPDEST SWAP1 POP DUP1 PUSH1 0x3 DUP2 GT ISZERO PUSH2 0x716 JUMPI PUSH2 0x715 PUSH2 0xD23 JUMP JUMPDEST JUMPDEST PUSH1 0x5 PUSH1 0x0 PUSH2 0x100 EXP DUP2 SLOAD DUP2 PUSH1 0xFF MUL NOT AND SWAP1 DUP4 PUSH1 0x3 DUP2 GT ISZERO PUSH2 0x73A JUMPI PUSH2 0x739 PUSH2 0xD23 JUMP JUMPDEST JUMPDEST MUL OR SWAP1 SSTORE POP POP JUMPDEST PUSH1 0x2 PUSH1 0x3 DUP2 GT ISZERO PUSH2 0x755 JUMPI PUSH2 0x754 PUSH2 0xD23 JUMP JUMPDEST JUMPDEST PUSH1 0x5 PUSH1 0x0 SWAP1 SLOAD SWAP1 PUSH2 0x100 EXP SWAP1 DIV PUSH1 0xFF AND PUSH1 0x3 DUP2 GT ISZERO PUSH2 0x777 JUMPI PUSH2 0x776 PUSH2 0xD23 JUMP JUMPDEST JUMPDEST EQ ISZERO PUSH2 0x7AA JUMPI PUSH32 0x3BCC93D35219AA0512D7C0D1CA10B0231F473E3D5F9396877D1B7215EE0AB3D5 PUSH1 0x40 MLOAD PUSH1 0x40 MLOAD DUP1 SWAP2 SUB SWAP1 LOG1 JUMPDEST PUSH1 0x1 PUSH1 0x3 DUP2 GT ISZERO PUSH2 0x7BE JUMPI PUSH2 0x7BD PUSH2 0xD23 JUMP JUMPDEST JUMPDEST PUSH1 0x5 PUSH1 0x0 SWAP1 SLOAD SWAP1 PUSH2 0x100 EXP SWAP1 DIV PUSH1 0xFF AND PUSH1 0x3 DUP2 GT ISZERO PUSH2 0x7E0 JUMPI PUSH2 0x7DF PUSH2 0xD23 JUMP JUMPDEST JUMPDEST EQ ISZERO PUSH2 0x813 JUMPI PUSH32 0x2C124E22EE7DA1C9905BBB317CF67658C1CC3EA1C0953B1633F85D0B5C281D9 PUSH1 0x40 MLOAD PUSH1 0x40 MLOAD DUP1 SWAP2 SUB SWAP1 LOG1 JUMPDEST PUSH1 0x0 PUSH1 0x3 DUP2 GT ISZERO PUSH2 0x827 JUMPI PUSH2 0x826 PUSH2 0xD23 JUMP JUMPDEST JUMPDEST PUSH1 0x5 PUSH1 0x0 SWAP1 SLOAD SWAP1 PUSH2 0x100 EXP SWAP1 DIV PUSH1 0xFF AND PUSH1 0x3 DUP2 GT ISZERO PUSH2 0x849 JUMPI PUSH2 0x848 PUSH2 0xD23 JUMP JUMPDEST JUMPDEST EQ ISZERO PUSH2 0x87C JUMPI PUSH32 0x8AD2842071CB64589C8E006941BC20B615AAE08A93530E211CA7C9639BD26D97 PUSH1 0x40 MLOAD PUSH1 0x40 MLOAD DUP1 SWAP2 SUB SWAP1 LOG1 JUMPDEST JUMP JUMPDEST PUSH1 0x2 SLOAD DUP2 JUMP JUMPDEST PUSH1 0x0 PUSH1 0x2 SLOAD DUP3 GT PUSH2 0x898 JUMPI PUSH1 0x0 SWAP1 POP PUSH2 0x9B6 JUMP JUMPDEST PUSH1 0x0 PUSH20 0xFFFFFFFFFFFFFFFFFFFFFFFFFFFFFFFFFFFFFFFF AND PUSH1 0x1 PUSH1 0x0 SWAP1 SLOAD SWAP1 PUSH2 0x100 EXP SWAP1 DIV PUSH20 0xFFFFFFFFFFFFFFFFFFFFFFFFFFFFFFFFFFFFFFFF AND PUSH20 0xFFFFFFFFFFFFFFFFFFFFFFFFFFFFFFFFFFFFFFFF AND EQ PUSH2 0x969 JUMPI PUSH1 0x2 SLOAD PUSH1 0x4 PUSH1 0x0 PUSH1 0x1 PUSH1 0x0 SWAP1 SLOAD SWAP1 PUSH2 0x100 EXP SWAP1 DIV PUSH20 0xFFFFFFFFFFFFFFFFFFFFFFFFFFFFFFFFFFFFFFFF AND PUSH20 0xFFFFFFFFFFFFFFFFFFFFFFFFFFFFFFFFFFFFFFFF AND PUSH20 0xFFFFFFFFFFFFFFFFFFFFFFFFFFFFFFFFFFFFFFFF AND DUP2 MSTORE PUSH1 0x20 ADD SWAP1 DUP2 MSTORE PUSH1 0x20 ADD PUSH1 0x0 KECCAK256 PUSH1 0x0 DUP3 DUP3 SLOAD PUSH2 0x961 SWAP2 SWAP1 PUSH2 0xBEB JUMP JUMPDEST SWAP3 POP POP DUP2 SWAP1 SSTORE POP JUMPDEST DUP2 PUSH1 0x2 DUP2 SWAP1 SSTORE POP DUP3 PUSH1 0x1 PUSH1 0x0 PUSH2 0x100 EXP DUP2 SLOAD DUP2 PUSH20 0xFFFFFFFFFFFFFFFFFFFFFFFFFFFFFFFFFFFFFFFF MUL NOT AND SWAP1 DUP4 PUSH20 0xFFFFFFFFFFFFFFFFFFFFFFFFFFFFFFFFFFFFFFFF AND MUL OR SWAP1 SSTORE POP PUSH1 0x1 SWAP1 POP JUMPDEST SWAP3 SWAP2 POP POP JUMP JUMPDEST PUSH1 0x0 DUP2 CALLDATALOAD SWAP1 POP PUSH2 0x9CB DUP2 PUSH2 0xDE3 JUMP JUMPDEST SWAP3 SWAP2 POP POP JUMP JUMPDEST PUSH1 0x0 DUP2 CALLDATALOAD SWAP1 POP PUSH2 0x9E0 DUP2 PUSH2 0xDFA JUMP JUMPDEST SWAP3 SWAP2 POP POP JUMP JUMPDEST PUSH1 0x0 PUSH1 0x20 DUP3 DUP5 SUB SLT ISZERO PUSH2 0x9FC JUMPI PUSH2 0x9FB PUSH2 0xD52 JUMP JUMPDEST JUMPDEST PUSH1 0x0 PUSH2 0xA0A DUP5 DUP3 DUP6 ADD PUSH2 0x9BC JUMP JUMPDEST SWAP2 POP POP SWAP3 SWAP2 POP POP JUMP JUMPDEST PUSH1 0x0 DUP1 PUSH1 0x40 DUP4 DUP6 SUB SLT ISZERO PUSH2 0xA2A JUMPI PUSH2 0xA29 PUSH2 0xD52 JUMP JUMPDEST JUMPDEST PUSH1 0x0 PUSH2 0xA38 DUP6 DUP3 DUP7 ADD PUSH2 0x9D1 JUMP JUMPDEST SWAP3 POP POP PUSH1 0x20 PUSH2 0xA49 DUP6 DUP3 DUP7 ADD PUSH2 0x9BC JUMP JUMPDEST SWAP2 POP POP SWAP3 POP SWAP3 SWAP1 POP JUMP JUMPDEST PUSH2 0xA5C DUP2 PUSH2 0xC75 JUMP JUMPDEST DUP3 MSTORE POP POP JUMP JUMPDEST PUSH2 0xA73 PUSH2 0xA6E DUP3 PUSH2 0xC87 JUMP JUMPDEST PUSH2 0xCE0 JUMP JUMPDEST DUP3 MSTORE POP POP JUMP JUMPDEST PUSH2 0xA82 DUP2 PUSH2 0xCCE JUMP JUMPDEST DUP3 MSTORE POP POP JUMP JUMPDEST PUSH1 0x0 PUSH2 0xA95 PUSH1 0x10 DUP4 PUSH2 0xBDA JUMP JUMPDEST SWAP2 POP PUSH2 0xAA0 DUP3 PUSH2 0xD57 JUMP JUMPDEST PUSH1 0x20 DUP3 ADD SWAP1 POP SWAP2 SWAP1 POP JUMP JUMPDEST PUSH1 0x0 PUSH2 0xAB8 PUSH1 0x28 DUP4 PUSH2 0xBDA JUMP JUMPDEST SWAP2 POP PUSH2 0xAC3 DUP3 PUSH2 0xD80 JUMP JUMPDEST PUSH1 0x40 DUP3 ADD SWAP1 POP SWAP2 SWAP1 POP JUMP JUMPDEST PUSH2 0xAD7 DUP2 PUSH2 0xCC4 JUMP JUMPDEST DUP3 MSTORE POP POP JUMP JUMPDEST PUSH2 0xAEE PUSH2 0xAE9 DUP3 PUSH2 0xCC4 JUMP JUMPDEST PUSH2 0xCEA JUMP JUMPDEST DUP3 MSTORE POP POP JUMP JUMPDEST PUSH1 0x0 PUSH2 0xB00 DUP3 DUP6 PUSH2 0xADD JUMP JUMPDEST PUSH1 0x20 DUP3 ADD SWAP2 POP PUSH2 0xB10 DUP3 DUP5 PUSH2 0xA62 JUMP JUMPDEST PUSH1 0x20 DUP3 ADD SWAP2 POP DUP2 SWAP1 POP SWAP4 SWAP3 POP POP POP JUMP JUMPDEST PUSH1 0x0 PUSH1 0x20 DUP3 ADD SWAP1 POP PUSH2 0xB35 PUSH1 0x0 DUP4 ADD DUP5 PUSH2 0xA53 JUMP JUMPDEST SWAP3 SWAP2 POP POP JUMP JUMPDEST PUSH1 0x0 PUSH1 0x40 DUP3 ADD SWAP1 POP PUSH2 0xB50 PUSH1 0x0 DUP4 ADD DUP6 PUSH2 0xA53 JUMP JUMPDEST PUSH2 0xB5D PUSH1 0x20 DUP4 ADD DUP5 PUSH2 0xACE JUMP JUMPDEST SWAP4 SWAP3 POP POP POP JUMP JUMPDEST PUSH1 0x0 PUSH1 0x20 DUP3 ADD SWAP1 POP PUSH2 0xB79 PUSH1 0x0 DUP4 ADD DUP5 PUSH2 0xA79 JUMP JUMPDEST SWAP3 SWAP2 POP POP JUMP JUMPDEST PUSH1 0x0 PUSH1 0x20 DUP3 ADD SWAP1 POP DUP2 DUP2 SUB PUSH1 0x0 DUP4 ADD MSTORE PUSH2 0xB98 DUP2 PUSH2 0xA88 JUMP JUMPDEST SWAP1 POP SWAP2 SWAP1 POP JUMP JUMPDEST PUSH1 0x0 PUSH1 0x20 DUP3 ADD SWAP1 POP DUP2 DUP2 SUB PUSH1 0x0 DUP4 ADD MSTORE PUSH2 0xBB8 DUP2 PUSH2 0xAAB JUMP JUMPDEST SWAP1 POP SWAP2 SWAP1 POP JUMP JUMPDEST PUSH1 0x0 PUSH1 0x20 DUP3 ADD SWAP1 POP PUSH2 0xBD4 PUSH1 0x0 DUP4 ADD DUP5 PUSH2 0xACE JUMP JUMPDEST SWAP3 SWAP2 POP POP JUMP JUMPDEST PUSH1 0x0 DUP3 DUP3 MSTORE PUSH1 0x20 DUP3 ADD SWAP1 POP SWAP3 SWAP2 POP POP JUMP JUMPDEST PUSH1 0x0 PUSH2 0xBF6 DUP3 PUSH2 0xCC4 JUMP JUMPDEST SWAP2 POP PUSH2 0xC01 DUP4 PUSH2 0xCC4 JUMP JUMPDEST SWAP3 POP DUP3 PUSH32 0xFFFFFFFFFFFFFFFFFFFFFFFFFFFFFFFFFFFFFFFFFFFFFFFFFFFFFFFFFFFFFFFF SUB DUP3 GT ISZERO PUSH2 0xC36 JUMPI PUSH2 0xC35 PUSH2 0xCF4 JUMP JUMPDEST JUMPDEST DUP3 DUP3 ADD SWAP1 POP SWAP3 SWAP2 POP POP JUMP JUMPDEST PUSH1 0x0 PUSH2 0xC4C DUP3 PUSH2 0xCC4 JUMP JUMPDEST SWAP2 POP PUSH2 0xC57 DUP4 PUSH2 0xCC4 JUMP JUMPDEST SWAP3 POP DUP3 DUP3 LT ISZERO PUSH2 0xC6A JUMPI PUSH2 0xC69 PUSH2 0xCF4 JUMP JUMPDEST JUMPDEST DUP3 DUP3 SUB SWAP1 POP SWAP3 SWAP2 POP POP JUMP JUMPDEST PUSH1 0x0 PUSH2 0xC80 DUP3 PUSH2 0xCA4 JUMP JUMPDEST SWAP1 POP SWAP2 SWAP1 POP JUMP JUMPDEST PUSH1 0x0 DUP2 SWAP1 POP SWAP2 SWAP1 POP JUMP JUMPDEST PUSH1 0x0 DUP2 SWAP1 POP PUSH2 0xC9F DUP3 PUSH2 0xDCF JUMP JUMPDEST SWAP2 SWAP1 POP JUMP JUMPDEST PUSH1 0x0 PUSH20 0xFFFFFFFFFFFFFFFFFFFFFFFFFFFFFFFFFFFFFFFF DUP3 AND SWAP1 POP SWAP2 SWAP1 POP JUMP JUMPDEST PUSH1 0x0 DUP2 SWAP1 POP SWAP2 SWAP1 POP JUMP JUMPDEST PUSH1 0x0 PUSH2 0xCD9 DUP3 PUSH2 0xC91 JUMP JUMPDEST SWAP1 POP SWAP2 SWAP1 POP JUMP JUMPDEST PUSH1 0x0 DUP2 SWAP1 POP SWAP2 SWAP1 POP JUMP JUMPDEST PUSH1 0x0 DUP2 SWAP1 POP SWAP2 SWAP1 POP JUMP JUMPDEST PUSH32 0x4E487B7100000000000000000000000000000000000000000000000000000000 PUSH1 0x0 MSTORE PUSH1 0x11 PUSH1 0x4 MSTORE PUSH1 0x24 PUSH1 0x0 REVERT JUMPDEST PUSH32 0x4E487B7100000000000000000000000000000000000000000000000000000000 PUSH1 0x0 MSTORE PUSH1 0x21 PUSH1 0x4 MSTORE PUSH1 0x24 PUSH1 0x0 REVERT JUMPDEST PUSH1 0x0 DUP1 REVERT JUMPDEST PUSH32 0x6E6F74206D61746368696E672062696400000000000000000000000000000000 PUSH1 0x0 DUP3 ADD MSTORE POP JUMP JUMPDEST PUSH32 0x4F6E6C792062656E65666963696172792063616E20706572666F726D20746869 PUSH1 0x0 DUP3 ADD MSTORE PUSH32 0x7320616374696F6E000000000000000000000000000000000000000000000000 PUSH1 0x20 DUP3 ADD MSTORE POP JUMP JUMPDEST PUSH1 0x4 DUP2 LT PUSH2 0xDE0 JUMPI PUSH2 0xDDF PUSH2 0xD23 JUMP JUMPDEST JUMPDEST POP JUMP JUMPDEST PUSH2 0xDEC DUP2 PUSH2 0xC87 JUMP JUMPDEST DUP2 EQ PUSH2 0xDF7 JUMPI PUSH1 0x0 DUP1 REVERT JUMPDEST POP JUMP JUMPDEST PUSH2 0xE03 DUP2 PUSH2 0xCC4 JUMP JUMPDEST DUP2 EQ PUSH2 0xE0E JUMPI PUSH1 0x0 DUP1 REVERT JUMPDEST POP JUMP INVALID LOG2 PUSH5 0x6970667358 0x22 SLT KECCAK256 BALANCE SUB PUSH10 0x8AFC1685AB3EF8FEDD2E 0xD1 0xCE ADDMOD PUSH21 0x26D306642188AC7E86B4DFA457213364736F6C6343 STOP ADDMOD SMOD STOP CALLER "
				},
				"gasEstimates": {
					"creation": {
						"codeDepositCost": "731000",
						"executionCost": "infinite",
						"totalCost": "infinite"
					},
					"external": {
						"advancePhase()": "infinite",
						"auctionEnd()": "infinite",
						"bid(bytes32)": "47019",
						"currentPhase()": "2561",
						"highestBid()": "2495",
						"highestBidder()": "2514",
						"reveal(uint256,bytes32)": "infinite",
						"withdraw()": "infinite"
					},
					"internal": {
						"placeBid(address,uint256)": "infinite"
					}
				},
				"methodIdentifiers": {
					"advancePhase()": "be25a718",
					"auctionEnd()": "2a24f46c",
					"bid(bytes32)": "957bb1e0",
					"currentPhase()": "055ad42e",
					"highestBid()": "d57bde79",
					"highestBidder()": "91f90157",
					"reveal(uint256,bytes32)": "4036778f",
					"withdraw()": "3ccfd60b"
				}
			},
			"storageLayout": {
				"storage": [
					{
						"astId": 13,
						"contract": "contracts/exfile3.sol:BlindAuction",
						"label": "beneficiary",
						"offset": 0,
						"slot": "0",
						"type": "t_address_payable"
					},
					{
						"astId": 15,
						"contract": "contracts/exfile3.sol:BlindAuction",
						"label": "highestBidder",
						"offset": 0,
						"slot": "1",
						"type": "t_address"
					},
					{
						"astId": 18,
						"contract": "contracts/exfile3.sol:BlindAuction",
						"label": "highestBid",
						"offset": 0,
						"slot": "2",
						"type": "t_uint256"
					},
					{
						"astId": 23,
						"contract": "contracts/exfile3.sol:BlindAuction",
						"label": "bids",
						"offset": 0,
						"slot": "3",
						"type": "t_mapping(t_address,t_struct(Bid)6_storage)"
					},
					{
						"astId": 27,
						"contract": "contracts/exfile3.sol:BlindAuction",
						"label": "pendingReturns",
						"offset": 0,
						"slot": "4",
						"type": "t_mapping(t_address,t_uint256)"
					},
					{
						"astId": 32,
						"contract": "contracts/exfile3.sol:BlindAuction",
						"label": "currentPhase",
						"offset": 0,
						"slot": "5",
						"type": "t_enum(Phase)11"
					}
				],
				"types": {
					"t_address": {
						"encoding": "inplace",
						"label": "address",
						"numberOfBytes": "20"
					},
					"t_address_payable": {
						"encoding": "inplace",
						"label": "address payable",
						"numberOfBytes": "20"
					},
					"t_bytes32": {
						"encoding": "inplace",
						"label": "bytes32",
						"numberOfBytes": "32"
					},
					"t_enum(Phase)11": {
						"encoding": "inplace",
						"label": "enum BlindAuction.Phase",
						"numberOfBytes": "1"
					},
					"t_mapping(t_address,t_struct(Bid)6_storage)": {
						"encoding": "mapping",
						"key": "t_address",
						"label": "mapping(address => struct BlindAuction.Bid)",
						"numberOfBytes": "32",
						"value": "t_struct(Bid)6_storage"
					},
					"t_mapping(t_address,t_uint256)": {
						"encoding": "mapping",
						"key": "t_address",
						"label": "mapping(address => uint256)",
						"numberOfBytes": "32",
						"value": "t_uint256"
					},
					"t_struct(Bid)6_storage": {
						"encoding": "inplace",
						"label": "struct BlindAuction.Bid",
						"members": [
							{
								"astId": 3,
								"contract": "contracts/exfile3.sol:BlindAuction",
								"label": "blindedBid",
								"offset": 0,
								"slot": "0",
								"type": "t_bytes32"
							},
							{
								"astId": 5,
								"contract": "contracts/exfile3.sol:BlindAuction",
								"label": "deposit",
								"offset": 0,
								"slot": "1",
								"type": "t_uint256"
							}
						],
						"numberOfBytes": "64"
					},
					"t_uint256": {
						"encoding": "inplace",
						"label": "uint256",
						"numberOfBytes": "32"
					}
				}
			},
			"userdoc": {
				"kind": "user",
				"methods": {},
				"version": 1
			}
		}
	}
}