{
	"data": {
		"bytecode": {
			"linkReferences": {},
			"object": "60806040523480156200001157600080fd5b5060405162001f2e38038062001f2e833981810160405281019062000037919062000146565b836000806101000a81548173ffffffffffffffffffffffffffffffffffffffff021916908373ffffffffffffffffffffffffffffffffffffffff16021790555082600160006101000a81548173ffffffffffffffffffffffffffffffffffffffff021916908373ffffffffffffffffffffffffffffffffffffffff1602179055508142620000c69190620001b8565b60028190555080600254620000dc9190620001b8565b60038190555081600354620000f29190620001b8565b60048190555080600454620001089190620001b8565b60058190555050505050620002bb565b600081519050620001298162000287565b92915050565b6000815190506200014081620002a1565b92915050565b6000806000806080858703121562000163576200016262000282565b5b6000620001738782880162000118565b9450506020620001868782880162000118565b935050604062000199878288016200012f565b9250506060620001ac878288016200012f565b91505092959194509250565b6000620001c58262000249565b9150620001d28362000249565b9250827fffffffffffffffffffffffffffffffffffffffffffffffffffffffffffffffff038211156200020a576200020962000253565b5b828201905092915050565b6000620002228262000229565b9050919050565b600073ffffffffffffffffffffffffffffffffffffffff82169050919050565b6000819050919050565b7f4e487b7100000000000000000000000000000000000000000000000000000000600052601160045260246000fd5b600080fd5b620002928162000215565b81146200029e57600080fd5b50565b620002ac8162000249565b8114620002b857600080fd5b50565b611c6380620002cb6000396000f3fe6080604052600436106101145760003560e01c80637f386b6c116100a057806391f901571161006457806391f901571461036a578063ba65743814610395578063c6c2d436146103d2578063cd772f5c146103fd578063d57bde791461041957610114565b80637f386b6c146102975780637f5121a6146102c25780638094854e146102eb5780638da5cb5b1461031457806391a16c9d1461033f57610114565b80631b55d216116100e75780631b55d216146101d657806328ebf295146102015780633ccfd60b1461022c5780634b6e66e31461024357806373150adf1461026c57610114565b806301495c1c14610119578063093755ad1461015757806312fa6feb146101805780631afb8302146101ab575b600080fd5b34801561012557600080fd5b50610140600480360381019061013b9190611337565b610444565b60405161014e9291906117a5565b60405180910390f35b34801561016357600080fd5b5061017e60048036038101906101799190611465565b610485565b005b34801561018c57600080fd5b50610195610791565b6040516101a2919061176f565b60405180910390f35b3480156101b757600080fd5b506101c06107a4565b6040516101cd919061186e565b60405180910390f35b3480156101e257600080fd5b506101eb6107aa565b6040516101f8919061186e565b60405180910390f35b34801561020d57600080fd5b506102166107b0565b604051610223919061186e565b60405180910390f35b34801561023857600080fd5b50610241610860565b005b34801561024f57600080fd5b5061026a60048036038101906102659190611377565b61093d565b005b34801561027857600080fd5b50610281610be1565b60405161028e919061186e565b60405180910390f35b3480156102a357600080fd5b506102ac610be7565b6040516102b9919061186e565b60405180910390f35b3480156102ce57600080fd5b506102e960048036038101906102e491906114ff565b610bed565b005b3480156102f757600080fd5b50610312600480360381019061030d9190611465565b610d2b565b005b34801561032057600080fd5b50610329610ed3565b60405161033691906116bd565b60405180910390f35b34801561034b57600080fd5b50610354610ef9565b604051610361919061186e565b60405180910390f35b34801561037657600080fd5b5061037f610eff565b60405161038c91906116a2565b60405180910390f35b3480156103a157600080fd5b506103bc60048036038101906103b791906114bf565b610f25565b6040516103c9919061178a565b60405180910390f35b3480156103de57600080fd5b506103e7610f58565b6040516103f4919061186e565b60405180910390f35b61041760048036038101906104129190611425565b610f5e565b005b34801561042557600080fd5b5061042e61109b565b60405161043b919061186e565b60405180910390f35b600a602052816000526040600020818154811061046057600080fd5b9060005260206000209060020201600091509150508060000154908060010154905082565b4260045411156104ca576040517f08c379a00000000000000000000000000000000000000000000000000000000081526004016104c1906117ce565b60405180910390fd5b600960009054906101000a900460ff161561051a576040517f08c379a00000000000000000000000000000000000000000000000000000000081526004016105119061180e565b60405180910390fd5b600f54600c6000838152602001908152602001600020819055506000600160009054906101000a900473ffffffffffffffffffffffffffffffffffffffff1673ffffffffffffffffffffffffffffffffffffffff16636352211e836040518263ffffffff1660e01b8152600401610591919061186e565b60206040518083038186803b1580156105a957600080fd5b505afa1580156105bd573d6000803e3d6000fd5b505050506040513d601f19601f820116820180604052508101906105e1919061130a565b905060008054906101000a900473ffffffffffffffffffffffffffffffffffffffff1673ffffffffffffffffffffffffffffffffffffffff166323b872dd3383600c6000878152602001908152602001600020546040518463ffffffff1660e01b8152600401610653939291906116d8565b602060405180830381600087803b15801561066d57600080fd5b505af1158015610681573d6000803e3d6000fd5b505050506040513d601f19601f820116820180604052508101906106a591906113f8565b50600160009054906101000a900473ffffffffffffffffffffffffffffffffffffffff1673ffffffffffffffffffffffffffffffffffffffff166323b872dd8233856040518463ffffffff1660e01b815260040161070593929190611738565b600060405180830381600087803b15801561071f57600080fd5b505af1158015610733573d6000803e3d6000fd5b505050507f6ad529f1aff95cafe09f17262e41a7875599959eb0d9a8660097ecd657bb291e33600f5460405161076a92919061170f565b60405180910390a16001600960006101000a81548160ff0219169083151502179055505050565b600960009054906101000a900460ff1681565b60055481565b600d5481565b60006002548042116108045742816107c891906118f0565b6040517f2a35a3240000000000000000000000000000000000000000000000000000000081526004016107fb919061186e565b60405180910390fd5b60035480421061085657428161081a91906118f0565b6040517f691e568200000000000000000000000000000000000000000000000000000000815260040161084d919061186e565b60405180910390fd5b600d549250505090565b6000600b60003373ffffffffffffffffffffffffffffffffffffffff1673ffffffffffffffffffffffffffffffffffffffff168152602001908152602001600020549050600081111561093a576000600b60003373ffffffffffffffffffffffffffffffffffffffff1673ffffffffffffffffffffffffffffffffffffffff168152602001908152602001600020819055503373ffffffffffffffffffffffffffffffffffffffff166108fc829081150290604051600060405180830381858888f19350505050158015610938573d6000803e3d6000fd5b505b50565b60045480421161098f57428161095391906118f0565b6040517f2a35a324000000000000000000000000000000000000000000000000000000008152600401610986919061186e565b60405180910390fd5b6005548042106109e15742816109a591906118f0565b6040517f691e56820000000000000000000000000000000000000000000000000000000081526004016109d8919061186e565b60405180910390fd5b6000600a60003373ffffffffffffffffffffffffffffffffffffffff1673ffffffffffffffffffffffffffffffffffffffff168152602001908152602001600020805490509050808787905014610a3757600080fd5b808585905014610a4657600080fd5b600080600090505b82811015610b8f576000600a60003373ffffffffffffffffffffffffffffffffffffffff1673ffffffffffffffffffffffffffffffffffffffff1681526020019081526020016000208281548110610aa957610aa8611a4a565b5b906000526020600020906002020190506000808b8b85818110610acf57610ace611a4a565b5b905060200201358a8a86818110610ae957610ae8611a4a565b5b90506020020135915091508181604051602001610b07929190611676565b6040516020818303038152906040528051906020012083600001541415610b3057505050610b7c565b826001015485610b40919061189a565b945081836001015410610b6c57610b5733836110a1565b15610b6b578185610b6891906118f0565b94505b5b6000801b83600001819055505050505b8080610b87906119be565b915050610a4e565b503373ffffffffffffffffffffffffffffffffffffffff166108fc829081150290604051600060405180830381858888f19350505050158015610bd6573d6000803e3d6000fd5b505050505050505050565b60035481565b60065481565b3373ffffffffffffffffffffffffffffffffffffffff16600160009054906101000a900473ffffffffffffffffffffffffffffffffffffffff1673ffffffffffffffffffffffffffffffffffffffff16636352211e846040518263ffffffff1660e01b8152600401610c5f919061186e565b60206040518083038186803b158015610c7757600080fd5b505afa158015610c8b573d6000803e3d6000fd5b505050506040513d601f19601f82011682018060405250810190610caf919061130a565b73ffffffffffffffffffffffffffffffffffffffff1614610d05576040517f08c379a0000000000000000000000000000000000000000000000000000000008152600401610cfc9061182e565b60405180910390fd5b806006819055506000600960006101000a81548160ff0219169083151502179055505050565b600254804210610d7d574281610d4191906118f0565b6040517f691e5682000000000000000000000000000000000000000000000000000000008152600401610d74919061186e565b60405180910390fd5b60008060009054906101000a900473ffffffffffffffffffffffffffffffffffffffff1673ffffffffffffffffffffffffffffffffffffffff166370a08231336040518263ffffffff1660e01b8152600401610dd991906116a2565b60206040518083038186803b158015610df157600080fd5b505afa158015610e05573d6000803e3d6000fd5b505050506040513d601f19601f82011682018060405250810190610e299190611492565b9050826006541115610e70576040517f08c379a0000000000000000000000000000000000000000000000000000000008152600401610e67906117ee565b60405180910390fd5b82811015610eb3576040517f08c379a0000000000000000000000000000000000000000000000000000000008152600401610eaa9061184e565b60405180910390fd5b600654600d8190555082600d541015610ece5782600d819055505b505050565b600760009054906101000a900473ffffffffffffffffffffffffffffffffffffffff1681565b60025481565b600e60009054906101000a900473ffffffffffffffffffffffffffffffffffffffff1681565b60008282604051602001610f3a929190611676565b60405160208183030381529060405280519060200120905092915050565b60045481565b600354804211610fb0574281610f7491906118f0565b6040517f2a35a324000000000000000000000000000000000000000000000000000000008152600401610fa7919061186e565b60405180910390fd5b600454804210611002574281610fc691906118f0565b6040517f691e5682000000000000000000000000000000000000000000000000000000008152600401610ff9919061186e565b60405180910390fd5b600a60003373ffffffffffffffffffffffffffffffffffffffff1673ffffffffffffffffffffffffffffffffffffffff16815260200190815260200160002060405180604001604052808681526020018581525090806001815401808255809150506001900390600052602060002090600202016000909190919091506000820151816000015560208201518160010155505050505050565b600f5481565b6000600f5482116110b557600090506111da565b600073ffffffffffffffffffffffffffffffffffffffff16600e60009054906101000a900473ffffffffffffffffffffffffffffffffffffffff1673ffffffffffffffffffffffffffffffffffffffff161461118657600f54600b6000600e60009054906101000a900473ffffffffffffffffffffffffffffffffffffffff1673ffffffffffffffffffffffffffffffffffffffff1673ffffffffffffffffffffffffffffffffffffffff168152602001908152602001600020600082825461117e919061189a565b925050819055505b81600f8190555082600e60006101000a81548173ffffffffffffffffffffffffffffffffffffffff021916908373ffffffffffffffffffffffffffffffffffffffff16021790555042600481905550600190505b92915050565b6000813590506111ef81611bd1565b92915050565b60008151905061120481611bd1565b92915050565b60008083601f8401126112205761121f611a7e565b5b8235905067ffffffffffffffff81111561123d5761123c611a79565b5b60208301915083602082028301111561125957611258611a83565b5b9250929050565b60008083601f84011261127657611275611a7e565b5b8235905067ffffffffffffffff81111561129357611292611a79565b5b6020830191508360208202830111156112af576112ae611a83565b5b9250929050565b6000815190506112c581611be8565b92915050565b6000813590506112da81611bff565b92915050565b6000813590506112ef81611c16565b92915050565b60008151905061130481611c16565b92915050565b6000602082840312156113205761131f611a8d565b5b600061132e848285016111f5565b91505092915050565b6000806040838503121561134e5761134d611a8d565b5b600061135c858286016111e0565b925050602061136d858286016112e0565b9150509250929050565b6000806000806040858703121561139157611390611a8d565b5b600085013567ffffffffffffffff8111156113af576113ae611a88565b5b6113bb87828801611260565b9450945050602085013567ffffffffffffffff8111156113de576113dd611a88565b5b6113ea8782880161120a565b925092505092959194509250565b60006020828403121561140e5761140d611a8d565b5b600061141c848285016112b6565b91505092915050565b6000806040838503121561143c5761143b611a8d565b5b600061144a858286016112cb565b925050602061145b858286016112e0565b9150509250929050565b60006020828403121561147b5761147a611a8d565b5b6000611489848285016112e0565b91505092915050565b6000602082840312156114a8576114a7611a8d565b5b60006114b6848285016112f5565b91505092915050565b600080604083850312156114d6576114d5611a8d565b5b60006114e4858286016112e0565b92505060206114f5858286016112cb565b9150509250929050565b6000806040838503121561151657611515611a8d565b5b6000611524858286016112e0565b9250506020611535858286016112e0565b9150509250929050565b61154881611988565b82525050565b61155781611936565b82525050565b61156681611924565b82525050565b61157581611948565b82525050565b61158481611954565b82525050565b61159b61159682611954565b611a07565b82525050565b60006115ae601e83611889565b91506115b982611a92565b602082019050919050565b60006115d1603783611889565b91506115dc82611abb565b604082019050919050565b60006115f4601c83611889565b91506115ff82611b0a565b602082019050919050565b6000611617602c83611889565b915061162282611b33565b604082019050919050565b600061163a602983611889565b915061164582611b82565b604082019050919050565b6116598161197e565b82525050565b61167061166b8261197e565b611a11565b82525050565b6000611682828561165f565b602082019150611692828461158a565b6020820191508190509392505050565b60006020820190506116b7600083018461155d565b92915050565b60006020820190506116d2600083018461154e565b92915050565b60006060820190506116ed600083018661153f565b6116fa602083018561155d565b6117076040830184611650565b949350505050565b6000604082019050611724600083018561153f565b6117316020830184611650565b9392505050565b600060608201905061174d600083018661155d565b61175a602083018561153f565b6117676040830184611650565b949350505050565b6000602082019050611784600083018461156c565b92915050565b600060208201905061179f600083018461157b565b92915050565b60006040820190506117ba600083018561157b565b6117c76020830184611650565b9392505050565b600060208201905081810360008301526117e7816115a1565b9050919050565b60006020820190508181036000830152611807816115c4565b9050919050565b60006020820190508181036000830152611827816115e7565b9050919050565b600060208201905081810360008301526118478161160a565b9050919050565b600060208201905081810360008301526118678161162d565b9050919050565b60006020820190506118836000830184611650565b92915050565b600082825260208201905092915050565b60006118a58261197e565b91506118b08361197e565b9250827fffffffffffffffffffffffffffffffffffffffffffffffffffffffffffffffff038211156118e5576118e4611a1b565b5b828201905092915050565b60006118fb8261197e565b91506119068361197e565b92508282101561191957611918611a1b565b5b828203905092915050565b600061192f8261195e565b9050919050565b60006119418261195e565b9050919050565b60008115159050919050565b6000819050919050565b600073ffffffffffffffffffffffffffffffffffffffff82169050919050565b6000819050919050565b60006119938261199a565b9050919050565b60006119a5826119ac565b9050919050565b60006119b78261195e565b9050919050565b60006119c98261197e565b91507fffffffffffffffffffffffffffffffffffffffffffffffffffffffffffffffff8214156119fc576119fb611a1b565b5b600182019050919050565b6000819050919050565b6000819050919050565b7f4e487b7100000000000000000000000000000000000000000000000000000000600052601160045260246000fd5b7f4e487b7100000000000000000000000000000000000000000000000000000000600052603260045260246000fd5b600080fd5b600080fd5b600080fd5b600080fd5b600080fd5b7f4572726f723a2052657665616c696e6720646f6573206e6f7420656e64730000600082015250565b7f4572726f723a20537567676573746564207072696365206973206c6f7765722060008201527f7468616e207468652070726576696f7573207072696365000000000000000000602082015250565b7f4572726f723a20416c726561647920656e6465642061756374696f6e00000000600082015250565b7f4572726f723a20596f7520617265206e6f7420746865206f776e6572206f662060008201527f746869732050726f647563740000000000000000000000000000000000000000602082015250565b7f4572726f723a20596f7520646f6e2774206861766520656e6f756768206d6f6e60008201527f657920746f207061790000000000000000000000000000000000000000000000602082015250565b611bda81611924565b8114611be557600080fd5b50565b611bf181611948565b8114611bfc57600080fd5b50565b611c0881611954565b8114611c1357600080fd5b50565b611c1f8161197e565b8114611c2a57600080fd5b5056fea26469706673582212201ec86dbf474b2919aa99a9681edd063c7e65ebd0010b475b5d7d96088ecfc8bb64736f6c63430008070033",
			"opcodes": "PUSH1 0x80 PUSH1 0x40 MSTORE CALLVALUE DUP1 ISZERO PUSH3 0x11 JUMPI PUSH1 0x0 DUP1 REVERT JUMPDEST POP PUSH1 0x40 MLOAD PUSH3 0x1F2E CODESIZE SUB DUP1 PUSH3 0x1F2E DUP4 CODECOPY DUP2 DUP2 ADD PUSH1 0x40 MSTORE DUP2 ADD SWAP1 PUSH3 0x37 SWAP2 SWAP1 PUSH3 0x146 JUMP JUMPDEST DUP4 PUSH1 0x0 DUP1 PUSH2 0x100 EXP DUP2 SLOAD DUP2 PUSH20 0xFFFFFFFFFFFFFFFFFFFFFFFFFFFFFFFFFFFFFFFF MUL NOT AND SWAP1 DUP4 PUSH20 0xFFFFFFFFFFFFFFFFFFFFFFFFFFFFFFFFFFFFFFFF AND MUL OR SWAP1 SSTORE POP DUP3 PUSH1 0x1 PUSH1 0x0 PUSH2 0x100 EXP DUP2 SLOAD DUP2 PUSH20 0xFFFFFFFFFFFFFFFFFFFFFFFFFFFFFFFFFFFFFFFF MUL NOT AND SWAP1 DUP4 PUSH20 0xFFFFFFFFFFFFFFFFFFFFFFFFFFFFFFFFFFFFFFFF AND MUL OR SWAP1 SSTORE POP DUP2 TIMESTAMP PUSH3 0xC6 SWAP2 SWAP1 PUSH3 0x1B8 JUMP JUMPDEST PUSH1 0x2 DUP2 SWAP1 SSTORE POP DUP1 PUSH1 0x2 SLOAD PUSH3 0xDC SWAP2 SWAP1 PUSH3 0x1B8 JUMP JUMPDEST PUSH1 0x3 DUP2 SWAP1 SSTORE POP DUP2 PUSH1 0x3 SLOAD PUSH3 0xF2 SWAP2 SWAP1 PUSH3 0x1B8 JUMP JUMPDEST PUSH1 0x4 DUP2 SWAP1 SSTORE POP DUP1 PUSH1 0x4 SLOAD PUSH3 0x108 SWAP2 SWAP1 PUSH3 0x1B8 JUMP JUMPDEST PUSH1 0x5 DUP2 SWAP1 SSTORE POP POP POP POP POP PUSH3 0x2BB JUMP JUMPDEST PUSH1 0x0 DUP2 MLOAD SWAP1 POP PUSH3 0x129 DUP2 PUSH3 0x287 JUMP JUMPDEST SWAP3 SWAP2 POP POP JUMP JUMPDEST PUSH1 0x0 DUP2 MLOAD SWAP1 POP PUSH3 0x140 DUP2 PUSH3 0x2A1 JUMP JUMPDEST SWAP3 SWAP2 POP POP JUMP JUMPDEST PUSH1 0x0 DUP1 PUSH1 0x0 DUP1 PUSH1 0x80 DUP6 DUP8 SUB SLT ISZERO PUSH3 0x163 JUMPI PUSH3 0x162 PUSH3 0x282 JUMP JUMPDEST JUMPDEST PUSH1 0x0 PUSH3 0x173 DUP8 DUP3 DUP9 ADD PUSH3 0x118 JUMP JUMPDEST SWAP5 POP POP PUSH1 0x20 PUSH3 0x186 DUP8 DUP3 DUP9 ADD PUSH3 0x118 JUMP JUMPDEST SWAP4 POP POP PUSH1 0x40 PUSH3 0x199 DUP8 DUP3 DUP9 ADD PUSH3 0x12F JUMP JUMPDEST SWAP3 POP POP PUSH1 0x60 PUSH3 0x1AC DUP8 DUP3 DUP9 ADD PUSH3 0x12F JUMP JUMPDEST SWAP2 POP POP SWAP3 SWAP6 SWAP2 SWAP5 POP SWAP3 POP JUMP JUMPDEST PUSH1 0x0 PUSH3 0x1C5 DUP3 PUSH3 0x249 JUMP JUMPDEST SWAP2 POP PUSH3 0x1D2 DUP4 PUSH3 0x249 JUMP JUMPDEST SWAP3 POP DUP3 PUSH32 0xFFFFFFFFFFFFFFFFFFFFFFFFFFFFFFFFFFFFFFFFFFFFFFFFFFFFFFFFFFFFFFFF SUB DUP3 GT ISZERO PUSH3 0x20A JUMPI PUSH3 0x209 PUSH3 0x253 JUMP JUMPDEST JUMPDEST DUP3 DUP3 ADD SWAP1 POP SWAP3 SWAP2 POP POP JUMP JUMPDEST PUSH1 0x0 PUSH3 0x222 DUP3 PUSH3 0x229 JUMP JUMPDEST SWAP1 POP SWAP2 SWAP1 POP JUMP JUMPDEST PUSH1 0x0 PUSH20 0xFFFFFFFFFFFFFFFFFFFFFFFFFFFFFFFFFFFFFFFF DUP3 AND SWAP1 POP SWAP2 SWAP1 POP JUMP JUMPDEST PUSH1 0x0 DUP2 SWAP1 POP SWAP2 SWAP1 POP JUMP JUMPDEST PUSH32 0x4E487B7100000000000000000000000000000000000000000000000000000000 PUSH1 0x0 MSTORE PUSH1 0x11 PUSH1 0x4 MSTORE PUSH1 0x24 PUSH1 0x0 REVERT JUMPDEST PUSH1 0x0 DUP1 REVERT JUMPDEST PUSH3 0x292 DUP2 PUSH3 0x215 JUMP JUMPDEST DUP2 EQ PUSH3 0x29E JUMPI PUSH1 0x0 DUP1 REVERT JUMPDEST POP JUMP JUMPDEST PUSH3 0x2AC DUP2 PUSH3 0x249 JUMP JUMPDEST DUP2 EQ PUSH3 0x2B8 JUMPI PUSH1 0x0 DUP1 REVERT JUMPDEST POP JUMP JUMPDEST PUSH2 0x1C63 DUP1 PUSH3 0x2CB PUSH1 0x0 CODECOPY PUSH1 0x0 RETURN INVALID PUSH1 0x80 PUSH1 0x40 MSTORE PUSH1 0x4 CALLDATASIZE LT PUSH2 0x114 JUMPI PUSH1 0x0 CALLDATALOAD PUSH1 0xE0 SHR DUP1 PUSH4 0x7F386B6C GT PUSH2 0xA0 JUMPI DUP1 PUSH4 0x91F90157 GT PUSH2 0x64 JUMPI DUP1 PUSH4 0x91F90157 EQ PUSH2 0x36A JUMPI DUP1 PUSH4 0xBA657438 EQ PUSH2 0x395 JUMPI DUP1 PUSH4 0xC6C2D436 EQ PUSH2 0x3D2 JUMPI DUP1 PUSH4 0xCD772F5C EQ PUSH2 0x3FD JUMPI DUP1 PUSH4 0xD57BDE79 EQ PUSH2 0x419 JUMPI PUSH2 0x114 JUMP JUMPDEST DUP1 PUSH4 0x7F386B6C EQ PUSH2 0x297 JUMPI DUP1 PUSH4 0x7F5121A6 EQ PUSH2 0x2C2 JUMPI DUP1 PUSH4 0x8094854E EQ PUSH2 0x2EB JUMPI DUP1 PUSH4 0x8DA5CB5B EQ PUSH2 0x314 JUMPI DUP1 PUSH4 0x91A16C9D EQ PUSH2 0x33F JUMPI PUSH2 0x114 JUMP JUMPDEST DUP1 PUSH4 0x1B55D216 GT PUSH2 0xE7 JUMPI DUP1 PUSH4 0x1B55D216 EQ PUSH2 0x1D6 JUMPI DUP1 PUSH4 0x28EBF295 EQ PUSH2 0x201 JUMPI DUP1 PUSH4 0x3CCFD60B EQ PUSH2 0x22C JUMPI DUP1 PUSH4 0x4B6E66E3 EQ PUSH2 0x243 JUMPI DUP1 PUSH4 0x73150ADF EQ PUSH2 0x26C JUMPI PUSH2 0x114 JUMP JUMPDEST DUP1 PUSH4 0x1495C1C EQ PUSH2 0x119 JUMPI DUP1 PUSH4 0x93755AD EQ PUSH2 0x157 JUMPI DUP1 PUSH4 0x12FA6FEB EQ PUSH2 0x180 JUMPI DUP1 PUSH4 0x1AFB8302 EQ PUSH2 0x1AB JUMPI JUMPDEST PUSH1 0x0 DUP1 REVERT JUMPDEST CALLVALUE DUP1 ISZERO PUSH2 0x125 JUMPI PUSH1 0x0 DUP1 REVERT JUMPDEST POP PUSH2 0x140 PUSH1 0x4 DUP1 CALLDATASIZE SUB DUP2 ADD SWAP1 PUSH2 0x13B SWAP2 SWAP1 PUSH2 0x1337 JUMP JUMPDEST PUSH2 0x444 JUMP JUMPDEST PUSH1 0x40 MLOAD PUSH2 0x14E SWAP3 SWAP2 SWAP1 PUSH2 0x17A5 JUMP JUMPDEST PUSH1 0x40 MLOAD DUP1 SWAP2 SUB SWAP1 RETURN JUMPDEST CALLVALUE DUP1 ISZERO PUSH2 0x163 JUMPI PUSH1 0x0 DUP1 REVERT JUMPDEST POP PUSH2 0x17E PUSH1 0x4 DUP1 CALLDATASIZE SUB DUP2 ADD SWAP1 PUSH2 0x179 SWAP2 SWAP1 PUSH2 0x1465 JUMP JUMPDEST PUSH2 0x485 JUMP JUMPDEST STOP JUMPDEST CALLVALUE DUP1 ISZERO PUSH2 0x18C JUMPI PUSH1 0x0 DUP1 REVERT JUMPDEST POP PUSH2 0x195 PUSH2 0x791 JUMP JUMPDEST PUSH1 0x40 MLOAD PUSH2 0x1A2 SWAP2 SWAP1 PUSH2 0x176F JUMP JUMPDEST PUSH1 0x40 MLOAD DUP1 SWAP2 SUB SWAP1 RETURN JUMPDEST CALLVALUE DUP1 ISZERO PUSH2 0x1B7 JUMPI PUSH1 0x0 DUP1 REVERT JUMPDEST POP PUSH2 0x1C0 PUSH2 0x7A4 JUMP JUMPDEST PUSH1 0x40 MLOAD PUSH2 0x1CD SWAP2 SWAP1 PUSH2 0x186E JUMP JUMPDEST PUSH1 0x40 MLOAD DUP1 SWAP2 SUB SWAP1 RETURN JUMPDEST CALLVALUE DUP1 ISZERO PUSH2 0x1E2 JUMPI PUSH1 0x0 DUP1 REVERT JUMPDEST POP PUSH2 0x1EB PUSH2 0x7AA JUMP JUMPDEST PUSH1 0x40 MLOAD PUSH2 0x1F8 SWAP2 SWAP1 PUSH2 0x186E JUMP JUMPDEST PUSH1 0x40 MLOAD DUP1 SWAP2 SUB SWAP1 RETURN JUMPDEST CALLVALUE DUP1 ISZERO PUSH2 0x20D JUMPI PUSH1 0x0 DUP1 REVERT JUMPDEST POP PUSH2 0x216 PUSH2 0x7B0 JUMP JUMPDEST PUSH1 0x40 MLOAD PUSH2 0x223 SWAP2 SWAP1 PUSH2 0x186E JUMP JUMPDEST PUSH1 0x40 MLOAD DUP1 SWAP2 SUB SWAP1 RETURN JUMPDEST CALLVALUE DUP1 ISZERO PUSH2 0x238 JUMPI PUSH1 0x0 DUP1 REVERT JUMPDEST POP PUSH2 0x241 PUSH2 0x860 JUMP JUMPDEST STOP JUMPDEST CALLVALUE DUP1 ISZERO PUSH2 0x24F JUMPI PUSH1 0x0 DUP1 REVERT JUMPDEST POP PUSH2 0x26A PUSH1 0x4 DUP1 CALLDATASIZE SUB DUP2 ADD SWAP1 PUSH2 0x265 SWAP2 SWAP1 PUSH2 0x1377 JUMP JUMPDEST PUSH2 0x93D JUMP JUMPDEST STOP JUMPDEST CALLVALUE DUP1 ISZERO PUSH2 0x278 JUMPI PUSH1 0x0 DUP1 REVERT JUMPDEST POP PUSH2 0x281 PUSH2 0xBE1 JUMP JUMPDEST PUSH1 0x40 MLOAD PUSH2 0x28E SWAP2 SWAP1 PUSH2 0x186E JUMP JUMPDEST PUSH1 0x40 MLOAD DUP1 SWAP2 SUB SWAP1 RETURN JUMPDEST CALLVALUE DUP1 ISZERO PUSH2 0x2A3 JUMPI PUSH1 0x0 DUP1 REVERT JUMPDEST POP PUSH2 0x2AC PUSH2 0xBE7 JUMP JUMPDEST PUSH1 0x40 MLOAD PUSH2 0x2B9 SWAP2 SWAP1 PUSH2 0x186E JUMP JUMPDEST PUSH1 0x40 MLOAD DUP1 SWAP2 SUB SWAP1 RETURN JUMPDEST CALLVALUE DUP1 ISZERO PUSH2 0x2CE JUMPI PUSH1 0x0 DUP1 REVERT JUMPDEST POP PUSH2 0x2E9 PUSH1 0x4 DUP1 CALLDATASIZE SUB DUP2 ADD SWAP1 PUSH2 0x2E4 SWAP2 SWAP1 PUSH2 0x14FF JUMP JUMPDEST PUSH2 0xBED JUMP JUMPDEST STOP JUMPDEST CALLVALUE DUP1 ISZERO PUSH2 0x2F7 JUMPI PUSH1 0x0 DUP1 REVERT JUMPDEST POP PUSH2 0x312 PUSH1 0x4 DUP1 CALLDATASIZE SUB DUP2 ADD SWAP1 PUSH2 0x30D SWAP2 SWAP1 PUSH2 0x1465 JUMP JUMPDEST PUSH2 0xD2B JUMP JUMPDEST STOP JUMPDEST CALLVALUE DUP1 ISZERO PUSH2 0x320 JUMPI PUSH1 0x0 DUP1 REVERT JUMPDEST POP PUSH2 0x329 PUSH2 0xED3 JUMP JUMPDEST PUSH1 0x40 MLOAD PUSH2 0x336 SWAP2 SWAP1 PUSH2 0x16BD JUMP JUMPDEST PUSH1 0x40 MLOAD DUP1 SWAP2 SUB SWAP1 RETURN JUMPDEST CALLVALUE DUP1 ISZERO PUSH2 0x34B JUMPI PUSH1 0x0 DUP1 REVERT JUMPDEST POP PUSH2 0x354 PUSH2 0xEF9 JUMP JUMPDEST PUSH1 0x40 MLOAD PUSH2 0x361 SWAP2 SWAP1 PUSH2 0x186E JUMP JUMPDEST PUSH1 0x40 MLOAD DUP1 SWAP2 SUB SWAP1 RETURN JUMPDEST CALLVALUE DUP1 ISZERO PUSH2 0x376 JUMPI PUSH1 0x0 DUP1 REVERT JUMPDEST POP PUSH2 0x37F PUSH2 0xEFF JUMP JUMPDEST PUSH1 0x40 MLOAD PUSH2 0x38C SWAP2 SWAP1 PUSH2 0x16A2 JUMP JUMPDEST PUSH1 0x40 MLOAD DUP1 SWAP2 SUB SWAP1 RETURN JUMPDEST CALLVALUE DUP1 ISZERO PUSH2 0x3A1 JUMPI PUSH1 0x0 DUP1 REVERT JUMPDEST POP PUSH2 0x3BC PUSH1 0x4 DUP1 CALLDATASIZE SUB DUP2 ADD SWAP1 PUSH2 0x3B7 SWAP2 SWAP1 PUSH2 0x14BF JUMP JUMPDEST PUSH2 0xF25 JUMP JUMPDEST PUSH1 0x40 MLOAD PUSH2 0x3C9 SWAP2 SWAP1 PUSH2 0x178A JUMP JUMPDEST PUSH1 0x40 MLOAD DUP1 SWAP2 SUB SWAP1 RETURN JUMPDEST CALLVALUE DUP1 ISZERO PUSH2 0x3DE JUMPI PUSH1 0x0 DUP1 REVERT JUMPDEST POP PUSH2 0x3E7 PUSH2 0xF58 JUMP JUMPDEST PUSH1 0x40 MLOAD PUSH2 0x3F4 SWAP2 SWAP1 PUSH2 0x186E JUMP JUMPDEST PUSH1 0x40 MLOAD DUP1 SWAP2 SUB SWAP1 RETURN JUMPDEST PUSH2 0x417 PUSH1 0x4 DUP1 CALLDATASIZE SUB DUP2 ADD SWAP1 PUSH2 0x412 SWAP2 SWAP1 PUSH2 0x1425 JUMP JUMPDEST PUSH2 0xF5E JUMP JUMPDEST STOP JUMPDEST CALLVALUE DUP1 ISZERO PUSH2 0x425 JUMPI PUSH1 0x0 DUP1 REVERT JUMPDEST POP PUSH2 0x42E PUSH2 0x109B JUMP JUMPDEST PUSH1 0x40 MLOAD PUSH2 0x43B SWAP2 SWAP1 PUSH2 0x186E JUMP JUMPDEST PUSH1 0x40 MLOAD DUP1 SWAP2 SUB SWAP1 RETURN JUMPDEST PUSH1 0xA PUSH1 0x20 MSTORE DUP2 PUSH1 0x0 MSTORE PUSH1 0x40 PUSH1 0x0 KECCAK256 DUP2 DUP2 SLOAD DUP2 LT PUSH2 0x460 JUMPI PUSH1 0x0 DUP1 REVERT JUMPDEST SWAP1 PUSH1 0x0 MSTORE PUSH1 0x20 PUSH1 0x0 KECCAK256 SWAP1 PUSH1 0x2 MUL ADD PUSH1 0x0 SWAP2 POP SWAP2 POP POP DUP1 PUSH1 0x0 ADD SLOAD SWAP1 DUP1 PUSH1 0x1 ADD SLOAD SWAP1 POP DUP3 JUMP JUMPDEST TIMESTAMP PUSH1 0x4 SLOAD GT ISZERO PUSH2 0x4CA JUMPI PUSH1 0x40 MLOAD PUSH32 0x8C379A000000000000000000000000000000000000000000000000000000000 DUP2 MSTORE PUSH1 0x4 ADD PUSH2 0x4C1 SWAP1 PUSH2 0x17CE JUMP JUMPDEST PUSH1 0x40 MLOAD DUP1 SWAP2 SUB SWAP1 REVERT JUMPDEST PUSH1 0x9 PUSH1 0x0 SWAP1 SLOAD SWAP1 PUSH2 0x100 EXP SWAP1 DIV PUSH1 0xFF AND ISZERO PUSH2 0x51A JUMPI PUSH1 0x40 MLOAD PUSH32 0x8C379A000000000000000000000000000000000000000000000000000000000 DUP2 MSTORE PUSH1 0x4 ADD PUSH2 0x511 SWAP1 PUSH2 0x180E JUMP JUMPDEST PUSH1 0x40 MLOAD DUP1 SWAP2 SUB SWAP1 REVERT JUMPDEST PUSH1 0xF SLOAD PUSH1 0xC PUSH1 0x0 DUP4 DUP2 MSTORE PUSH1 0x20 ADD SWAP1 DUP2 MSTORE PUSH1 0x20 ADD PUSH1 0x0 KECCAK256 DUP2 SWAP1 SSTORE POP PUSH1 0x0 PUSH1 0x1 PUSH1 0x0 SWAP1 SLOAD SWAP1 PUSH2 0x100 EXP SWAP1 DIV PUSH20 0xFFFFFFFFFFFFFFFFFFFFFFFFFFFFFFFFFFFFFFFF AND PUSH20 0xFFFFFFFFFFFFFFFFFFFFFFFFFFFFFFFFFFFFFFFF AND PUSH4 0x6352211E DUP4 PUSH1 0x40 MLOAD DUP3 PUSH4 0xFFFFFFFF AND PUSH1 0xE0 SHL DUP2 MSTORE PUSH1 0x4 ADD PUSH2 0x591 SWAP2 SWAP1 PUSH2 0x186E JUMP JUMPDEST PUSH1 0x20 PUSH1 0x40 MLOAD DUP1 DUP4 SUB DUP2 DUP7 DUP1 EXTCODESIZE ISZERO DUP1 ISZERO PUSH2 0x5A9 JUMPI PUSH1 0x0 DUP1 REVERT JUMPDEST POP GAS STATICCALL ISZERO DUP1 ISZERO PUSH2 0x5BD JUMPI RETURNDATASIZE PUSH1 0x0 DUP1 RETURNDATACOPY RETURNDATASIZE PUSH1 0x0 REVERT JUMPDEST POP POP POP POP PUSH1 0x40 MLOAD RETURNDATASIZE PUSH1 0x1F NOT PUSH1 0x1F DUP3 ADD AND DUP3 ADD DUP1 PUSH1 0x40 MSTORE POP DUP2 ADD SWAP1 PUSH2 0x5E1 SWAP2 SWAP1 PUSH2 0x130A JUMP JUMPDEST SWAP1 POP PUSH1 0x0 DUP1 SLOAD SWAP1 PUSH2 0x100 EXP SWAP1 DIV PUSH20 0xFFFFFFFFFFFFFFFFFFFFFFFFFFFFFFFFFFFFFFFF AND PUSH20 0xFFFFFFFFFFFFFFFFFFFFFFFFFFFFFFFFFFFFFFFF AND PUSH4 0x23B872DD CALLER DUP4 PUSH1 0xC PUSH1 0x0 DUP8 DUP2 MSTORE PUSH1 0x20 ADD SWAP1 DUP2 MSTORE PUSH1 0x20 ADD PUSH1 0x0 KECCAK256 SLOAD PUSH1 0x40 MLOAD DUP5 PUSH4 0xFFFFFFFF AND PUSH1 0xE0 SHL DUP2 MSTORE PUSH1 0x4 ADD PUSH2 0x653 SWAP4 SWAP3 SWAP2 SWAP1 PUSH2 0x16D8 JUMP JUMPDEST PUSH1 0x20 PUSH1 0x40 MLOAD DUP1 DUP4 SUB DUP2 PUSH1 0x0 DUP8 DUP1 EXTCODESIZE ISZERO DUP1 ISZERO PUSH2 0x66D JUMPI PUSH1 0x0 DUP1 REVERT JUMPDEST POP GAS CALL ISZERO DUP1 ISZERO PUSH2 0x681 JUMPI RETURNDATASIZE PUSH1 0x0 DUP1 RETURNDATACOPY RETURNDATASIZE PUSH1 0x0 REVERT JUMPDEST POP POP POP POP PUSH1 0x40 MLOAD RETURNDATASIZE PUSH1 0x1F NOT PUSH1 0x1F DUP3 ADD AND DUP3 ADD DUP1 PUSH1 0x40 MSTORE POP DUP2 ADD SWAP1 PUSH2 0x6A5 SWAP2 SWAP1 PUSH2 0x13F8 JUMP JUMPDEST POP PUSH1 0x1 PUSH1 0x0 SWAP1 SLOAD SWAP1 PUSH2 0x100 EXP SWAP1 DIV PUSH20 0xFFFFFFFFFFFFFFFFFFFFFFFFFFFFFFFFFFFFFFFF AND PUSH20 0xFFFFFFFFFFFFFFFFFFFFFFFFFFFFFFFFFFFFFFFF AND PUSH4 0x23B872DD DUP3 CALLER DUP6 PUSH1 0x40 MLOAD DUP5 PUSH4 0xFFFFFFFF AND PUSH1 0xE0 SHL DUP2 MSTORE PUSH1 0x4 ADD PUSH2 0x705 SWAP4 SWAP3 SWAP2 SWAP1 PUSH2 0x1738 JUMP JUMPDEST PUSH1 0x0 PUSH1 0x40 MLOAD DUP1 DUP4 SUB DUP2 PUSH1 0x0 DUP8 DUP1 EXTCODESIZE ISZERO DUP1 ISZERO PUSH2 0x71F JUMPI PUSH1 0x0 DUP1 REVERT JUMPDEST POP GAS CALL ISZERO DUP1 ISZERO PUSH2 0x733 JUMPI RETURNDATASIZE PUSH1 0x0 DUP1 RETURNDATACOPY RETURNDATASIZE PUSH1 0x0 REVERT JUMPDEST POP POP POP POP PUSH32 0x6AD529F1AFF95CAFE09F17262E41A7875599959EB0D9A8660097ECD657BB291E CALLER PUSH1 0xF SLOAD PUSH1 0x40 MLOAD PUSH2 0x76A SWAP3 SWAP2 SWAP1 PUSH2 0x170F JUMP JUMPDEST PUSH1 0x40 MLOAD DUP1 SWAP2 SUB SWAP1 LOG1 PUSH1 0x1 PUSH1 0x9 PUSH1 0x0 PUSH2 0x100 EXP DUP2 SLOAD DUP2 PUSH1 0xFF MUL NOT AND SWAP1 DUP4 ISZERO ISZERO MUL OR SWAP1 SSTORE POP POP POP JUMP JUMPDEST PUSH1 0x9 PUSH1 0x0 SWAP1 SLOAD SWAP1 PUSH2 0x100 EXP SWAP1 DIV PUSH1 0xFF AND DUP2 JUMP JUMPDEST PUSH1 0x5 SLOAD DUP2 JUMP JUMPDEST PUSH1 0xD SLOAD DUP2 JUMP JUMPDEST PUSH1 0x0 PUSH1 0x2 SLOAD DUP1 TIMESTAMP GT PUSH2 0x804 JUMPI TIMESTAMP DUP2 PUSH2 0x7C8 SWAP2 SWAP1 PUSH2 0x18F0 JUMP JUMPDEST PUSH1 0x40 MLOAD PUSH32 0x2A35A32400000000000000000000000000000000000000000000000000000000 DUP2 MSTORE PUSH1 0x4 ADD PUSH2 0x7FB SWAP2 SWAP1 PUSH2 0x186E JUMP JUMPDEST PUSH1 0x40 MLOAD DUP1 SWAP2 SUB SWAP1 REVERT JUMPDEST PUSH1 0x3 SLOAD DUP1 TIMESTAMP LT PUSH2 0x856 JUMPI TIMESTAMP DUP2 PUSH2 0x81A SWAP2 SWAP1 PUSH2 0x18F0 JUMP JUMPDEST PUSH1 0x40 MLOAD PUSH32 0x691E568200000000000000000000000000000000000000000000000000000000 DUP2 MSTORE PUSH1 0x4 ADD PUSH2 0x84D SWAP2 SWAP1 PUSH2 0x186E JUMP JUMPDEST PUSH1 0x40 MLOAD DUP1 SWAP2 SUB SWAP1 REVERT JUMPDEST PUSH1 0xD SLOAD SWAP3 POP POP POP SWAP1 JUMP JUMPDEST PUSH1 0x0 PUSH1 0xB PUSH1 0x0 CALLER PUSH20 0xFFFFFFFFFFFFFFFFFFFFFFFFFFFFFFFFFFFFFFFF AND PUSH20 0xFFFFFFFFFFFFFFFFFFFFFFFFFFFFFFFFFFFFFFFF AND DUP2 MSTORE PUSH1 0x20 ADD SWAP1 DUP2 MSTORE PUSH1 0x20 ADD PUSH1 0x0 KECCAK256 SLOAD SWAP1 POP PUSH1 0x0 DUP2 GT ISZERO PUSH2 0x93A JUMPI PUSH1 0x0 PUSH1 0xB PUSH1 0x0 CALLER PUSH20 0xFFFFFFFFFFFFFFFFFFFFFFFFFFFFFFFFFFFFFFFF AND PUSH20 0xFFFFFFFFFFFFFFFFFFFFFFFFFFFFFFFFFFFFFFFF AND DUP2 MSTORE PUSH1 0x20 ADD SWAP1 DUP2 MSTORE PUSH1 0x20 ADD PUSH1 0x0 KECCAK256 DUP2 SWAP1 SSTORE POP CALLER PUSH20 0xFFFFFFFFFFFFFFFFFFFFFFFFFFFFFFFFFFFFFFFF AND PUSH2 0x8FC DUP3 SWAP1 DUP2 ISZERO MUL SWAP1 PUSH1 0x40 MLOAD PUSH1 0x0 PUSH1 0x40 MLOAD DUP1 DUP4 SUB DUP2 DUP6 DUP9 DUP9 CALL SWAP4 POP POP POP POP ISZERO DUP1 ISZERO PUSH2 0x938 JUMPI RETURNDATASIZE PUSH1 0x0 DUP1 RETURNDATACOPY RETURNDATASIZE PUSH1 0x0 REVERT JUMPDEST POP JUMPDEST POP JUMP JUMPDEST PUSH1 0x4 SLOAD DUP1 TIMESTAMP GT PUSH2 0x98F JUMPI TIMESTAMP DUP2 PUSH2 0x953 SWAP2 SWAP1 PUSH2 0x18F0 JUMP JUMPDEST PUSH1 0x40 MLOAD PUSH32 0x2A35A32400000000000000000000000000000000000000000000000000000000 DUP2 MSTORE PUSH1 0x4 ADD PUSH2 0x986 SWAP2 SWAP1 PUSH2 0x186E JUMP JUMPDEST PUSH1 0x40 MLOAD DUP1 SWAP2 SUB SWAP1 REVERT JUMPDEST PUSH1 0x5 SLOAD DUP1 TIMESTAMP LT PUSH2 0x9E1 JUMPI TIMESTAMP DUP2 PUSH2 0x9A5 SWAP2 SWAP1 PUSH2 0x18F0 JUMP JUMPDEST PUSH1 0x40 MLOAD PUSH32 0x691E568200000000000000000000000000000000000000000000000000000000 DUP2 MSTORE PUSH1 0x4 ADD PUSH2 0x9D8 SWAP2 SWAP1 PUSH2 0x186E JUMP JUMPDEST PUSH1 0x40 MLOAD DUP1 SWAP2 SUB SWAP1 REVERT JUMPDEST PUSH1 0x0 PUSH1 0xA PUSH1 0x0 CALLER PUSH20 0xFFFFFFFFFFFFFFFFFFFFFFFFFFFFFFFFFFFFFFFF AND PUSH20 0xFFFFFFFFFFFFFFFFFFFFFFFFFFFFFFFFFFFFFFFF AND DUP2 MSTORE PUSH1 0x20 ADD SWAP1 DUP2 MSTORE PUSH1 0x20 ADD PUSH1 0x0 KECCAK256 DUP1 SLOAD SWAP1 POP SWAP1 POP DUP1 DUP8 DUP8 SWAP1 POP EQ PUSH2 0xA37 JUMPI PUSH1 0x0 DUP1 REVERT JUMPDEST DUP1 DUP6 DUP6 SWAP1 POP EQ PUSH2 0xA46 JUMPI PUSH1 0x0 DUP1 REVERT JUMPDEST PUSH1 0x0 DUP1 PUSH1 0x0 SWAP1 POP JUMPDEST DUP3 DUP2 LT ISZERO PUSH2 0xB8F JUMPI PUSH1 0x0 PUSH1 0xA PUSH1 0x0 CALLER PUSH20 0xFFFFFFFFFFFFFFFFFFFFFFFFFFFFFFFFFFFFFFFF AND PUSH20 0xFFFFFFFFFFFFFFFFFFFFFFFFFFFFFFFFFFFFFFFF AND DUP2 MSTORE PUSH1 0x20 ADD SWAP1 DUP2 MSTORE PUSH1 0x20 ADD PUSH1 0x0 KECCAK256 DUP3 DUP2 SLOAD DUP2 LT PUSH2 0xAA9 JUMPI PUSH2 0xAA8 PUSH2 0x1A4A JUMP JUMPDEST JUMPDEST SWAP1 PUSH1 0x0 MSTORE PUSH1 0x20 PUSH1 0x0 KECCAK256 SWAP1 PUSH1 0x2 MUL ADD SWAP1 POP PUSH1 0x0 DUP1 DUP12 DUP12 DUP6 DUP2 DUP2 LT PUSH2 0xACF JUMPI PUSH2 0xACE PUSH2 0x1A4A JUMP JUMPDEST JUMPDEST SWAP1 POP PUSH1 0x20 MUL ADD CALLDATALOAD DUP11 DUP11 DUP7 DUP2 DUP2 LT PUSH2 0xAE9 JUMPI PUSH2 0xAE8 PUSH2 0x1A4A JUMP JUMPDEST JUMPDEST SWAP1 POP PUSH1 0x20 MUL ADD CALLDATALOAD SWAP2 POP SWAP2 POP DUP2 DUP2 PUSH1 0x40 MLOAD PUSH1 0x20 ADD PUSH2 0xB07 SWAP3 SWAP2 SWAP1 PUSH2 0x1676 JUMP JUMPDEST PUSH1 0x40 MLOAD PUSH1 0x20 DUP2 DUP4 SUB SUB DUP2 MSTORE SWAP1 PUSH1 0x40 MSTORE DUP1 MLOAD SWAP1 PUSH1 0x20 ADD KECCAK256 DUP4 PUSH1 0x0 ADD SLOAD EQ ISZERO PUSH2 0xB30 JUMPI POP POP POP PUSH2 0xB7C JUMP JUMPDEST DUP3 PUSH1 0x1 ADD SLOAD DUP6 PUSH2 0xB40 SWAP2 SWAP1 PUSH2 0x189A JUMP JUMPDEST SWAP5 POP DUP2 DUP4 PUSH1 0x1 ADD SLOAD LT PUSH2 0xB6C JUMPI PUSH2 0xB57 CALLER DUP4 PUSH2 0x10A1 JUMP JUMPDEST ISZERO PUSH2 0xB6B JUMPI DUP2 DUP6 PUSH2 0xB68 SWAP2 SWAP1 PUSH2 0x18F0 JUMP JUMPDEST SWAP5 POP JUMPDEST JUMPDEST PUSH1 0x0 DUP1 SHL DUP4 PUSH1 0x0 ADD DUP2 SWAP1 SSTORE POP POP POP POP JUMPDEST DUP1 DUP1 PUSH2 0xB87 SWAP1 PUSH2 0x19BE JUMP JUMPDEST SWAP2 POP POP PUSH2 0xA4E JUMP JUMPDEST POP CALLER PUSH20 0xFFFFFFFFFFFFFFFFFFFFFFFFFFFFFFFFFFFFFFFF AND PUSH2 0x8FC DUP3 SWAP1 DUP2 ISZERO MUL SWAP1 PUSH1 0x40 MLOAD PUSH1 0x0 PUSH1 0x40 MLOAD DUP1 DUP4 SUB DUP2 DUP6 DUP9 DUP9 CALL SWAP4 POP POP POP POP ISZERO DUP1 ISZERO PUSH2 0xBD6 JUMPI RETURNDATASIZE PUSH1 0x0 DUP1 RETURNDATACOPY RETURNDATASIZE PUSH1 0x0 REVERT JUMPDEST POP POP POP POP POP POP POP POP POP JUMP JUMPDEST PUSH1 0x3 SLOAD DUP2 JUMP JUMPDEST PUSH1 0x6 SLOAD DUP2 JUMP JUMPDEST CALLER PUSH20 0xFFFFFFFFFFFFFFFFFFFFFFFFFFFFFFFFFFFFFFFF AND PUSH1 0x1 PUSH1 0x0 SWAP1 SLOAD SWAP1 PUSH2 0x100 EXP SWAP1 DIV PUSH20 0xFFFFFFFFFFFFFFFFFFFFFFFFFFFFFFFFFFFFFFFF AND PUSH20 0xFFFFFFFFFFFFFFFFFFFFFFFFFFFFFFFFFFFFFFFF AND PUSH4 0x6352211E DUP5 PUSH1 0x40 MLOAD DUP3 PUSH4 0xFFFFFFFF AND PUSH1 0xE0 SHL DUP2 MSTORE PUSH1 0x4 ADD PUSH2 0xC5F SWAP2 SWAP1 PUSH2 0x186E JUMP JUMPDEST PUSH1 0x20 PUSH1 0x40 MLOAD DUP1 DUP4 SUB DUP2 DUP7 DUP1 EXTCODESIZE ISZERO DUP1 ISZERO PUSH2 0xC77 JUMPI PUSH1 0x0 DUP1 REVERT JUMPDEST POP GAS STATICCALL ISZERO DUP1 ISZERO PUSH2 0xC8B JUMPI RETURNDATASIZE PUSH1 0x0 DUP1 RETURNDATACOPY RETURNDATASIZE PUSH1 0x0 REVERT JUMPDEST POP POP POP POP PUSH1 0x40 MLOAD RETURNDATASIZE PUSH1 0x1F NOT PUSH1 0x1F DUP3 ADD AND DUP3 ADD DUP1 PUSH1 0x40 MSTORE POP DUP2 ADD SWAP1 PUSH2 0xCAF SWAP2 SWAP1 PUSH2 0x130A JUMP JUMPDEST PUSH20 0xFFFFFFFFFFFFFFFFFFFFFFFFFFFFFFFFFFFFFFFF AND EQ PUSH2 0xD05 JUMPI PUSH1 0x40 MLOAD PUSH32 0x8C379A000000000000000000000000000000000000000000000000000000000 DUP2 MSTORE PUSH1 0x4 ADD PUSH2 0xCFC SWAP1 PUSH2 0x182E JUMP JUMPDEST PUSH1 0x40 MLOAD DUP1 SWAP2 SUB SWAP1 REVERT JUMPDEST DUP1 PUSH1 0x6 DUP2 SWAP1 SSTORE POP PUSH1 0x0 PUSH1 0x9 PUSH1 0x0 PUSH2 0x100 EXP DUP2 SLOAD DUP2 PUSH1 0xFF MUL NOT AND SWAP1 DUP4 ISZERO ISZERO MUL OR SWAP1 SSTORE POP POP POP JUMP JUMPDEST PUSH1 0x2 SLOAD DUP1 TIMESTAMP LT PUSH2 0xD7D JUMPI TIMESTAMP DUP2 PUSH2 0xD41 SWAP2 SWAP1 PUSH2 0x18F0 JUMP JUMPDEST PUSH1 0x40 MLOAD PUSH32 0x691E568200000000000000000000000000000000000000000000000000000000 DUP2 MSTORE PUSH1 0x4 ADD PUSH2 0xD74 SWAP2 SWAP1 PUSH2 0x186E JUMP JUMPDEST PUSH1 0x40 MLOAD DUP1 SWAP2 SUB SWAP1 REVERT JUMPDEST PUSH1 0x0 DUP1 PUSH1 0x0 SWAP1 SLOAD SWAP1 PUSH2 0x100 EXP SWAP1 DIV PUSH20 0xFFFFFFFFFFFFFFFFFFFFFFFFFFFFFFFFFFFFFFFF AND PUSH20 0xFFFFFFFFFFFFFFFFFFFFFFFFFFFFFFFFFFFFFFFF AND PUSH4 0x70A08231 CALLER PUSH1 0x40 MLOAD DUP3 PUSH4 0xFFFFFFFF AND PUSH1 0xE0 SHL DUP2 MSTORE PUSH1 0x4 ADD PUSH2 0xDD9 SWAP2 SWAP1 PUSH2 0x16A2 JUMP JUMPDEST PUSH1 0x20 PUSH1 0x40 MLOAD DUP1 DUP4 SUB DUP2 DUP7 DUP1 EXTCODESIZE ISZERO DUP1 ISZERO PUSH2 0xDF1 JUMPI PUSH1 0x0 DUP1 REVERT JUMPDEST POP GAS STATICCALL ISZERO DUP1 ISZERO PUSH2 0xE05 JUMPI RETURNDATASIZE PUSH1 0x0 DUP1 RETURNDATACOPY RETURNDATASIZE PUSH1 0x0 REVERT JUMPDEST POP POP POP POP PUSH1 0x40 MLOAD RETURNDATASIZE PUSH1 0x1F NOT PUSH1 0x1F DUP3 ADD AND DUP3 ADD DUP1 PUSH1 0x40 MSTORE POP DUP2 ADD SWAP1 PUSH2 0xE29 SWAP2 SWAP1 PUSH2 0x1492 JUMP JUMPDEST SWAP1 POP DUP3 PUSH1 0x6 SLOAD GT ISZERO PUSH2 0xE70 JUMPI PUSH1 0x40 MLOAD PUSH32 0x8C379A000000000000000000000000000000000000000000000000000000000 DUP2 MSTORE PUSH1 0x4 ADD PUSH2 0xE67 SWAP1 PUSH2 0x17EE JUMP JUMPDEST PUSH1 0x40 MLOAD DUP1 SWAP2 SUB SWAP1 REVERT JUMPDEST DUP3 DUP2 LT ISZERO PUSH2 0xEB3 JUMPI PUSH1 0x40 MLOAD PUSH32 0x8C379A000000000000000000000000000000000000000000000000000000000 DUP2 MSTORE PUSH1 0x4 ADD PUSH2 0xEAA SWAP1 PUSH2 0x184E JUMP JUMPDEST PUSH1 0x40 MLOAD DUP1 SWAP2 SUB SWAP1 REVERT JUMPDEST PUSH1 0x6 SLOAD PUSH1 0xD DUP2 SWAP1 SSTORE POP DUP3 PUSH1 0xD SLOAD LT ISZERO PUSH2 0xECE JUMPI DUP3 PUSH1 0xD DUP2 SWAP1 SSTORE POP JUMPDEST POP POP POP JUMP JUMPDEST PUSH1 0x7 PUSH1 0x0 SWAP1 SLOAD SWAP1 PUSH2 0x100 EXP SWAP1 DIV PUSH20 0xFFFFFFFFFFFFFFFFFFFFFFFFFFFFFFFFFFFFFFFF AND DUP2 JUMP JUMPDEST PUSH1 0x2 SLOAD DUP2 JUMP JUMPDEST PUSH1 0xE PUSH1 0x0 SWAP1 SLOAD SWAP1 PUSH2 0x100 EXP SWAP1 DIV PUSH20 0xFFFFFFFFFFFFFFFFFFFFFFFFFFFFFFFFFFFFFFFF AND DUP2 JUMP JUMPDEST PUSH1 0x0 DUP3 DUP3 PUSH1 0x40 MLOAD PUSH1 0x20 ADD PUSH2 0xF3A SWAP3 SWAP2 SWAP1 PUSH2 0x1676 JUMP JUMPDEST PUSH1 0x40 MLOAD PUSH1 0x20 DUP2 DUP4 SUB SUB DUP2 MSTORE SWAP1 PUSH1 0x40 MSTORE DUP1 MLOAD SWAP1 PUSH1 0x20 ADD KECCAK256 SWAP1 POP SWAP3 SWAP2 POP POP JUMP JUMPDEST PUSH1 0x4 SLOAD DUP2 JUMP JUMPDEST PUSH1 0x3 SLOAD DUP1 TIMESTAMP GT PUSH2 0xFB0 JUMPI TIMESTAMP DUP2 PUSH2 0xF74 SWAP2 SWAP1 PUSH2 0x18F0 JUMP JUMPDEST PUSH1 0x40 MLOAD PUSH32 0x2A35A32400000000000000000000000000000000000000000000000000000000 DUP2 MSTORE PUSH1 0x4 ADD PUSH2 0xFA7 SWAP2 SWAP1 PUSH2 0x186E JUMP JUMPDEST PUSH1 0x40 MLOAD DUP1 SWAP2 SUB SWAP1 REVERT JUMPDEST PUSH1 0x4 SLOAD DUP1 TIMESTAMP LT PUSH2 0x1002 JUMPI TIMESTAMP DUP2 PUSH2 0xFC6 SWAP2 SWAP1 PUSH2 0x18F0 JUMP JUMPDEST PUSH1 0x40 MLOAD PUSH32 0x691E568200000000000000000000000000000000000000000000000000000000 DUP2 MSTORE PUSH1 0x4 ADD PUSH2 0xFF9 SWAP2 SWAP1 PUSH2 0x186E JUMP JUMPDEST PUSH1 0x40 MLOAD DUP1 SWAP2 SUB SWAP1 REVERT JUMPDEST PUSH1 0xA PUSH1 0x0 CALLER PUSH20 0xFFFFFFFFFFFFFFFFFFFFFFFFFFFFFFFFFFFFFFFF AND PUSH20 0xFFFFFFFFFFFFFFFFFFFFFFFFFFFFFFFFFFFFFFFF AND DUP2 MSTORE PUSH1 0x20 ADD SWAP1 DUP2 MSTORE PUSH1 0x20 ADD PUSH1 0x0 KECCAK256 PUSH1 0x40 MLOAD DUP1 PUSH1 0x40 ADD PUSH1 0x40 MSTORE DUP1 DUP7 DUP2 MSTORE PUSH1 0x20 ADD DUP6 DUP2 MSTORE POP SWAP1 DUP1 PUSH1 0x1 DUP2 SLOAD ADD DUP1 DUP3 SSTORE DUP1 SWAP2 POP POP PUSH1 0x1 SWAP1 SUB SWAP1 PUSH1 0x0 MSTORE PUSH1 0x20 PUSH1 0x0 KECCAK256 SWAP1 PUSH1 0x2 MUL ADD PUSH1 0x0 SWAP1 SWAP2 SWAP1 SWAP2 SWAP1 SWAP2 POP PUSH1 0x0 DUP3 ADD MLOAD DUP2 PUSH1 0x0 ADD SSTORE PUSH1 0x20 DUP3 ADD MLOAD DUP2 PUSH1 0x1 ADD SSTORE POP POP POP POP POP POP JUMP JUMPDEST PUSH1 0xF SLOAD DUP2 JUMP JUMPDEST PUSH1 0x0 PUSH1 0xF SLOAD DUP3 GT PUSH2 0x10B5 JUMPI PUSH1 0x0 SWAP1 POP PUSH2 0x11DA JUMP JUMPDEST PUSH1 0x0 PUSH20 0xFFFFFFFFFFFFFFFFFFFFFFFFFFFFFFFFFFFFFFFF AND PUSH1 0xE PUSH1 0x0 SWAP1 SLOAD SWAP1 PUSH2 0x100 EXP SWAP1 DIV PUSH20 0xFFFFFFFFFFFFFFFFFFFFFFFFFFFFFFFFFFFFFFFF AND PUSH20 0xFFFFFFFFFFFFFFFFFFFFFFFFFFFFFFFFFFFFFFFF AND EQ PUSH2 0x1186 JUMPI PUSH1 0xF SLOAD PUSH1 0xB PUSH1 0x0 PUSH1 0xE PUSH1 0x0 SWAP1 SLOAD SWAP1 PUSH2 0x100 EXP SWAP1 DIV PUSH20 0xFFFFFFFFFFFFFFFFFFFFFFFFFFFFFFFFFFFFFFFF AND PUSH20 0xFFFFFFFFFFFFFFFFFFFFFFFFFFFFFFFFFFFFFFFF AND PUSH20 0xFFFFFFFFFFFFFFFFFFFFFFFFFFFFFFFFFFFFFFFF AND DUP2 MSTORE PUSH1 0x20 ADD SWAP1 DUP2 MSTORE PUSH1 0x20 ADD PUSH1 0x0 KECCAK256 PUSH1 0x0 DUP3 DUP3 SLOAD PUSH2 0x117E SWAP2 SWAP1 PUSH2 0x189A JUMP JUMPDEST SWAP3 POP POP DUP2 SWAP1 SSTORE POP JUMPDEST DUP2 PUSH1 0xF DUP2 SWAP1 SSTORE POP DUP3 PUSH1 0xE PUSH1 0x0 PUSH2 0x100 EXP DUP2 SLOAD DUP2 PUSH20 0xFFFFFFFFFFFFFFFFFFFFFFFFFFFFFFFFFFFFFFFF MUL NOT AND SWAP1 DUP4 PUSH20 0xFFFFFFFFFFFFFFFFFFFFFFFFFFFFFFFFFFFFFFFF AND MUL OR SWAP1 SSTORE POP TIMESTAMP PUSH1 0x4 DUP2 SWAP1 SSTORE POP PUSH1 0x1 SWAP1 POP JUMPDEST SWAP3 SWAP2 POP POP JUMP JUMPDEST PUSH1 0x0 DUP2 CALLDATALOAD SWAP1 POP PUSH2 0x11EF DUP2 PUSH2 0x1BD1 JUMP JUMPDEST SWAP3 SWAP2 POP POP JUMP JUMPDEST PUSH1 0x0 DUP2 MLOAD SWAP1 POP PUSH2 0x1204 DUP2 PUSH2 0x1BD1 JUMP JUMPDEST SWAP3 SWAP2 POP POP JUMP JUMPDEST PUSH1 0x0 DUP1 DUP4 PUSH1 0x1F DUP5 ADD SLT PUSH2 0x1220 JUMPI PUSH2 0x121F PUSH2 0x1A7E JUMP JUMPDEST JUMPDEST DUP3 CALLDATALOAD SWAP1 POP PUSH8 0xFFFFFFFFFFFFFFFF DUP2 GT ISZERO PUSH2 0x123D JUMPI PUSH2 0x123C PUSH2 0x1A79 JUMP JUMPDEST JUMPDEST PUSH1 0x20 DUP4 ADD SWAP2 POP DUP4 PUSH1 0x20 DUP3 MUL DUP4 ADD GT ISZERO PUSH2 0x1259 JUMPI PUSH2 0x1258 PUSH2 0x1A83 JUMP JUMPDEST JUMPDEST SWAP3 POP SWAP3 SWAP1 POP JUMP JUMPDEST PUSH1 0x0 DUP1 DUP4 PUSH1 0x1F DUP5 ADD SLT PUSH2 0x1276 JUMPI PUSH2 0x1275 PUSH2 0x1A7E JUMP JUMPDEST JUMPDEST DUP3 CALLDATALOAD SWAP1 POP PUSH8 0xFFFFFFFFFFFFFFFF DUP2 GT ISZERO PUSH2 0x1293 JUMPI PUSH2 0x1292 PUSH2 0x1A79 JUMP JUMPDEST JUMPDEST PUSH1 0x20 DUP4 ADD SWAP2 POP DUP4 PUSH1 0x20 DUP3 MUL DUP4 ADD GT ISZERO PUSH2 0x12AF JUMPI PUSH2 0x12AE PUSH2 0x1A83 JUMP JUMPDEST JUMPDEST SWAP3 POP SWAP3 SWAP1 POP JUMP JUMPDEST PUSH1 0x0 DUP2 MLOAD SWAP1 POP PUSH2 0x12C5 DUP2 PUSH2 0x1BE8 JUMP JUMPDEST SWAP3 SWAP2 POP POP JUMP JUMPDEST PUSH1 0x0 DUP2 CALLDATALOAD SWAP1 POP PUSH2 0x12DA DUP2 PUSH2 0x1BFF JUMP JUMPDEST SWAP3 SWAP2 POP POP JUMP JUMPDEST PUSH1 0x0 DUP2 CALLDATALOAD SWAP1 POP PUSH2 0x12EF DUP2 PUSH2 0x1C16 JUMP JUMPDEST SWAP3 SWAP2 POP POP JUMP JUMPDEST PUSH1 0x0 DUP2 MLOAD SWAP1 POP PUSH2 0x1304 DUP2 PUSH2 0x1C16 JUMP JUMPDEST SWAP3 SWAP2 POP POP JUMP JUMPDEST PUSH1 0x0 PUSH1 0x20 DUP3 DUP5 SUB SLT ISZERO PUSH2 0x1320 JUMPI PUSH2 0x131F PUSH2 0x1A8D JUMP JUMPDEST JUMPDEST PUSH1 0x0 PUSH2 0x132E DUP5 DUP3 DUP6 ADD PUSH2 0x11F5 JUMP JUMPDEST SWAP2 POP POP SWAP3 SWAP2 POP POP JUMP JUMPDEST PUSH1 0x0 DUP1 PUSH1 0x40 DUP4 DUP6 SUB SLT ISZERO PUSH2 0x134E JUMPI PUSH2 0x134D PUSH2 0x1A8D JUMP JUMPDEST JUMPDEST PUSH1 0x0 PUSH2 0x135C DUP6 DUP3 DUP7 ADD PUSH2 0x11E0 JUMP JUMPDEST SWAP3 POP POP PUSH1 0x20 PUSH2 0x136D DUP6 DUP3 DUP7 ADD PUSH2 0x12E0 JUMP JUMPDEST SWAP2 POP POP SWAP3 POP SWAP3 SWAP1 POP JUMP JUMPDEST PUSH1 0x0 DUP1 PUSH1 0x0 DUP1 PUSH1 0x40 DUP6 DUP8 SUB SLT ISZERO PUSH2 0x1391 JUMPI PUSH2 0x1390 PUSH2 0x1A8D JUMP JUMPDEST JUMPDEST PUSH1 0x0 DUP6 ADD CALLDATALOAD PUSH8 0xFFFFFFFFFFFFFFFF DUP2 GT ISZERO PUSH2 0x13AF JUMPI PUSH2 0x13AE PUSH2 0x1A88 JUMP JUMPDEST JUMPDEST PUSH2 0x13BB DUP8 DUP3 DUP9 ADD PUSH2 0x1260 JUMP JUMPDEST SWAP5 POP SWAP5 POP POP PUSH1 0x20 DUP6 ADD CALLDATALOAD PUSH8 0xFFFFFFFFFFFFFFFF DUP2 GT ISZERO PUSH2 0x13DE JUMPI PUSH2 0x13DD PUSH2 0x1A88 JUMP JUMPDEST JUMPDEST PUSH2 0x13EA DUP8 DUP3 DUP9 ADD PUSH2 0x120A JUMP JUMPDEST SWAP3 POP SWAP3 POP POP SWAP3 SWAP6 SWAP2 SWAP5 POP SWAP3 POP JUMP JUMPDEST PUSH1 0x0 PUSH1 0x20 DUP3 DUP5 SUB SLT ISZERO PUSH2 0x140E JUMPI PUSH2 0x140D PUSH2 0x1A8D JUMP JUMPDEST JUMPDEST PUSH1 0x0 PUSH2 0x141C DUP5 DUP3 DUP6 ADD PUSH2 0x12B6 JUMP JUMPDEST SWAP2 POP POP SWAP3 SWAP2 POP POP JUMP JUMPDEST PUSH1 0x0 DUP1 PUSH1 0x40 DUP4 DUP6 SUB SLT ISZERO PUSH2 0x143C JUMPI PUSH2 0x143B PUSH2 0x1A8D JUMP JUMPDEST JUMPDEST PUSH1 0x0 PUSH2 0x144A DUP6 DUP3 DUP7 ADD PUSH2 0x12CB JUMP JUMPDEST SWAP3 POP POP PUSH1 0x20 PUSH2 0x145B DUP6 DUP3 DUP7 ADD PUSH2 0x12E0 JUMP JUMPDEST SWAP2 POP POP SWAP3 POP SWAP3 SWAP1 POP JUMP JUMPDEST PUSH1 0x0 PUSH1 0x20 DUP3 DUP5 SUB SLT ISZERO PUSH2 0x147B JUMPI PUSH2 0x147A PUSH2 0x1A8D JUMP JUMPDEST JUMPDEST PUSH1 0x0 PUSH2 0x1489 DUP5 DUP3 DUP6 ADD PUSH2 0x12E0 JUMP JUMPDEST SWAP2 POP POP SWAP3 SWAP2 POP POP JUMP JUMPDEST PUSH1 0x0 PUSH1 0x20 DUP3 DUP5 SUB SLT ISZERO PUSH2 0x14A8 JUMPI PUSH2 0x14A7 PUSH2 0x1A8D JUMP JUMPDEST JUMPDEST PUSH1 0x0 PUSH2 0x14B6 DUP5 DUP3 DUP6 ADD PUSH2 0x12F5 JUMP JUMPDEST SWAP2 POP POP SWAP3 SWAP2 POP POP JUMP JUMPDEST PUSH1 0x0 DUP1 PUSH1 0x40 DUP4 DUP6 SUB SLT ISZERO PUSH2 0x14D6 JUMPI PUSH2 0x14D5 PUSH2 0x1A8D JUMP JUMPDEST JUMPDEST PUSH1 0x0 PUSH2 0x14E4 DUP6 DUP3 DUP7 ADD PUSH2 0x12E0 JUMP JUMPDEST SWAP3 POP POP PUSH1 0x20 PUSH2 0x14F5 DUP6 DUP3 DUP7 ADD PUSH2 0x12CB JUMP JUMPDEST SWAP2 POP POP SWAP3 POP SWAP3 SWAP1 POP JUMP JUMPDEST PUSH1 0x0 DUP1 PUSH1 0x40 DUP4 DUP6 SUB SLT ISZERO PUSH2 0x1516 JUMPI PUSH2 0x1515 PUSH2 0x1A8D JUMP JUMPDEST JUMPDEST PUSH1 0x0 PUSH2 0x1524 DUP6 DUP3 DUP7 ADD PUSH2 0x12E0 JUMP JUMPDEST SWAP3 POP POP PUSH1 0x20 PUSH2 0x1535 DUP6 DUP3 DUP7 ADD PUSH2 0x12E0 JUMP JUMPDEST SWAP2 POP POP SWAP3 POP SWAP3 SWAP1 POP JUMP JUMPDEST PUSH2 0x1548 DUP2 PUSH2 0x1988 JUMP JUMPDEST DUP3 MSTORE POP POP JUMP JUMPDEST PUSH2 0x1557 DUP2 PUSH2 0x1936 JUMP JUMPDEST DUP3 MSTORE POP POP JUMP JUMPDEST PUSH2 0x1566 DUP2 PUSH2 0x1924 JUMP JUMPDEST DUP3 MSTORE POP POP JUMP JUMPDEST PUSH2 0x1575 DUP2 PUSH2 0x1948 JUMP JUMPDEST DUP3 MSTORE POP POP JUMP JUMPDEST PUSH2 0x1584 DUP2 PUSH2 0x1954 JUMP JUMPDEST DUP3 MSTORE POP POP JUMP JUMPDEST PUSH2 0x159B PUSH2 0x1596 DUP3 PUSH2 0x1954 JUMP JUMPDEST PUSH2 0x1A07 JUMP JUMPDEST DUP3 MSTORE POP POP JUMP JUMPDEST PUSH1 0x0 PUSH2 0x15AE PUSH1 0x1E DUP4 PUSH2 0x1889 JUMP JUMPDEST SWAP2 POP PUSH2 0x15B9 DUP3 PUSH2 0x1A92 JUMP JUMPDEST PUSH1 0x20 DUP3 ADD SWAP1 POP SWAP2 SWAP1 POP JUMP JUMPDEST PUSH1 0x0 PUSH2 0x15D1 PUSH1 0x37 DUP4 PUSH2 0x1889 JUMP JUMPDEST SWAP2 POP PUSH2 0x15DC DUP3 PUSH2 0x1ABB JUMP JUMPDEST PUSH1 0x40 DUP3 ADD SWAP1 POP SWAP2 SWAP1 POP JUMP JUMPDEST PUSH1 0x0 PUSH2 0x15F4 PUSH1 0x1C DUP4 PUSH2 0x1889 JUMP JUMPDEST SWAP2 POP PUSH2 0x15FF DUP3 PUSH2 0x1B0A JUMP JUMPDEST PUSH1 0x20 DUP3 ADD SWAP1 POP SWAP2 SWAP1 POP JUMP JUMPDEST PUSH1 0x0 PUSH2 0x1617 PUSH1 0x2C DUP4 PUSH2 0x1889 JUMP JUMPDEST SWAP2 POP PUSH2 0x1622 DUP3 PUSH2 0x1B33 JUMP JUMPDEST PUSH1 0x40 DUP3 ADD SWAP1 POP SWAP2 SWAP1 POP JUMP JUMPDEST PUSH1 0x0 PUSH2 0x163A PUSH1 0x29 DUP4 PUSH2 0x1889 JUMP JUMPDEST SWAP2 POP PUSH2 0x1645 DUP3 PUSH2 0x1B82 JUMP JUMPDEST PUSH1 0x40 DUP3 ADD SWAP1 POP SWAP2 SWAP1 POP JUMP JUMPDEST PUSH2 0x1659 DUP2 PUSH2 0x197E JUMP JUMPDEST DUP3 MSTORE POP POP JUMP JUMPDEST PUSH2 0x1670 PUSH2 0x166B DUP3 PUSH2 0x197E JUMP JUMPDEST PUSH2 0x1A11 JUMP JUMPDEST DUP3 MSTORE POP POP JUMP JUMPDEST PUSH1 0x0 PUSH2 0x1682 DUP3 DUP6 PUSH2 0x165F JUMP JUMPDEST PUSH1 0x20 DUP3 ADD SWAP2 POP PUSH2 0x1692 DUP3 DUP5 PUSH2 0x158A JUMP JUMPDEST PUSH1 0x20 DUP3 ADD SWAP2 POP DUP2 SWAP1 POP SWAP4 SWAP3 POP POP POP JUMP JUMPDEST PUSH1 0x0 PUSH1 0x20 DUP3 ADD SWAP1 POP PUSH2 0x16B7 PUSH1 0x0 DUP4 ADD DUP5 PUSH2 0x155D JUMP JUMPDEST SWAP3 SWAP2 POP POP JUMP JUMPDEST PUSH1 0x0 PUSH1 0x20 DUP3 ADD SWAP1 POP PUSH2 0x16D2 PUSH1 0x0 DUP4 ADD DUP5 PUSH2 0x154E JUMP JUMPDEST SWAP3 SWAP2 POP POP JUMP JUMPDEST PUSH1 0x0 PUSH1 0x60 DUP3 ADD SWAP1 POP PUSH2 0x16ED PUSH1 0x0 DUP4 ADD DUP7 PUSH2 0x153F JUMP JUMPDEST PUSH2 0x16FA PUSH1 0x20 DUP4 ADD DUP6 PUSH2 0x155D JUMP JUMPDEST PUSH2 0x1707 PUSH1 0x40 DUP4 ADD DUP5 PUSH2 0x1650 JUMP JUMPDEST SWAP5 SWAP4 POP POP POP POP JUMP JUMPDEST PUSH1 0x0 PUSH1 0x40 DUP3 ADD SWAP1 POP PUSH2 0x1724 PUSH1 0x0 DUP4 ADD DUP6 PUSH2 0x153F JUMP JUMPDEST PUSH2 0x1731 PUSH1 0x20 DUP4 ADD DUP5 PUSH2 0x1650 JUMP JUMPDEST SWAP4 SWAP3 POP POP POP JUMP JUMPDEST PUSH1 0x0 PUSH1 0x60 DUP3 ADD SWAP1 POP PUSH2 0x174D PUSH1 0x0 DUP4 ADD DUP7 PUSH2 0x155D JUMP JUMPDEST PUSH2 0x175A PUSH1 0x20 DUP4 ADD DUP6 PUSH2 0x153F JUMP JUMPDEST PUSH2 0x1767 PUSH1 0x40 DUP4 ADD DUP5 PUSH2 0x1650 JUMP JUMPDEST SWAP5 SWAP4 POP POP POP POP JUMP JUMPDEST PUSH1 0x0 PUSH1 0x20 DUP3 ADD SWAP1 POP PUSH2 0x1784 PUSH1 0x0 DUP4 ADD DUP5 PUSH2 0x156C JUMP JUMPDEST SWAP3 SWAP2 POP POP JUMP JUMPDEST PUSH1 0x0 PUSH1 0x20 DUP3 ADD SWAP1 POP PUSH2 0x179F PUSH1 0x0 DUP4 ADD DUP5 PUSH2 0x157B JUMP JUMPDEST SWAP3 SWAP2 POP POP JUMP JUMPDEST PUSH1 0x0 PUSH1 0x40 DUP3 ADD SWAP1 POP PUSH2 0x17BA PUSH1 0x0 DUP4 ADD DUP6 PUSH2 0x157B JUMP JUMPDEST PUSH2 0x17C7 PUSH1 0x20 DUP4 ADD DUP5 PUSH2 0x1650 JUMP JUMPDEST SWAP4 SWAP3 POP POP POP JUMP JUMPDEST PUSH1 0x0 PUSH1 0x20 DUP3 ADD SWAP1 POP DUP2 DUP2 SUB PUSH1 0x0 DUP4 ADD MSTORE PUSH2 0x17E7 DUP2 PUSH2 0x15A1 JUMP JUMPDEST SWAP1 POP SWAP2 SWAP1 POP JUMP JUMPDEST PUSH1 0x0 PUSH1 0x20 DUP3 ADD SWAP1 POP DUP2 DUP2 SUB PUSH1 0x0 DUP4 ADD MSTORE PUSH2 0x1807 DUP2 PUSH2 0x15C4 JUMP JUMPDEST SWAP1 POP SWAP2 SWAP1 POP JUMP JUMPDEST PUSH1 0x0 PUSH1 0x20 DUP3 ADD SWAP1 POP DUP2 DUP2 SUB PUSH1 0x0 DUP4 ADD MSTORE PUSH2 0x1827 DUP2 PUSH2 0x15E7 JUMP JUMPDEST SWAP1 POP SWAP2 SWAP1 POP JUMP JUMPDEST PUSH1 0x0 PUSH1 0x20 DUP3 ADD SWAP1 POP DUP2 DUP2 SUB PUSH1 0x0 DUP4 ADD MSTORE PUSH2 0x1847 DUP2 PUSH2 0x160A JUMP JUMPDEST SWAP1 POP SWAP2 SWAP1 POP JUMP JUMPDEST PUSH1 0x0 PUSH1 0x20 DUP3 ADD SWAP1 POP DUP2 DUP2 SUB PUSH1 0x0 DUP4 ADD MSTORE PUSH2 0x1867 DUP2 PUSH2 0x162D JUMP JUMPDEST SWAP1 POP SWAP2 SWAP1 POP JUMP JUMPDEST PUSH1 0x0 PUSH1 0x20 DUP3 ADD SWAP1 POP PUSH2 0x1883 PUSH1 0x0 DUP4 ADD DUP5 PUSH2 0x1650 JUMP JUMPDEST SWAP3 SWAP2 POP POP JUMP JUMPDEST PUSH1 0x0 DUP3 DUP3 MSTORE PUSH1 0x20 DUP3 ADD SWAP1 POP SWAP3 SWAP2 POP POP JUMP JUMPDEST PUSH1 0x0 PUSH2 0x18A5 DUP3 PUSH2 0x197E JUMP JUMPDEST SWAP2 POP PUSH2 0x18B0 DUP4 PUSH2 0x197E JUMP JUMPDEST SWAP3 POP DUP3 PUSH32 0xFFFFFFFFFFFFFFFFFFFFFFFFFFFFFFFFFFFFFFFFFFFFFFFFFFFFFFFFFFFFFFFF SUB DUP3 GT ISZERO PUSH2 0x18E5 JUMPI PUSH2 0x18E4 PUSH2 0x1A1B JUMP JUMPDEST JUMPDEST DUP3 DUP3 ADD SWAP1 POP SWAP3 SWAP2 POP POP JUMP JUMPDEST PUSH1 0x0 PUSH2 0x18FB DUP3 PUSH2 0x197E JUMP JUMPDEST SWAP2 POP PUSH2 0x1906 DUP4 PUSH2 0x197E JUMP JUMPDEST SWAP3 POP DUP3 DUP3 LT ISZERO PUSH2 0x1919 JUMPI PUSH2 0x1918 PUSH2 0x1A1B JUMP JUMPDEST JUMPDEST DUP3 DUP3 SUB SWAP1 POP SWAP3 SWAP2 POP POP JUMP JUMPDEST PUSH1 0x0 PUSH2 0x192F DUP3 PUSH2 0x195E JUMP JUMPDEST SWAP1 POP SWAP2 SWAP1 POP JUMP JUMPDEST PUSH1 0x0 PUSH2 0x1941 DUP3 PUSH2 0x195E JUMP JUMPDEST SWAP1 POP SWAP2 SWAP1 POP JUMP JUMPDEST PUSH1 0x0 DUP2 ISZERO ISZERO SWAP1 POP SWAP2 SWAP1 POP JUMP JUMPDEST PUSH1 0x0 DUP2 SWAP1 POP SWAP2 SWAP1 POP JUMP JUMPDEST PUSH1 0x0 PUSH20 0xFFFFFFFFFFFFFFFFFFFFFFFFFFFFFFFFFFFFFFFF DUP3 AND SWAP1 POP SWAP2 SWAP1 POP JUMP JUMPDEST PUSH1 0x0 DUP2 SWAP1 POP SWAP2 SWAP1 POP JUMP JUMPDEST PUSH1 0x0 PUSH2 0x1993 DUP3 PUSH2 0x199A JUMP JUMPDEST SWAP1 POP SWAP2 SWAP1 POP JUMP JUMPDEST PUSH1 0x0 PUSH2 0x19A5 DUP3 PUSH2 0x19AC JUMP JUMPDEST SWAP1 POP SWAP2 SWAP1 POP JUMP JUMPDEST PUSH1 0x0 PUSH2 0x19B7 DUP3 PUSH2 0x195E JUMP JUMPDEST SWAP1 POP SWAP2 SWAP1 POP JUMP JUMPDEST PUSH1 0x0 PUSH2 0x19C9 DUP3 PUSH2 0x197E JUMP JUMPDEST SWAP2 POP PUSH32 0xFFFFFFFFFFFFFFFFFFFFFFFFFFFFFFFFFFFFFFFFFFFFFFFFFFFFFFFFFFFFFFFF DUP3 EQ ISZERO PUSH2 0x19FC JUMPI PUSH2 0x19FB PUSH2 0x1A1B JUMP JUMPDEST JUMPDEST PUSH1 0x1 DUP3 ADD SWAP1 POP SWAP2 SWAP1 POP JUMP JUMPDEST PUSH1 0x0 DUP2 SWAP1 POP SWAP2 SWAP1 POP JUMP JUMPDEST PUSH1 0x0 DUP2 SWAP1 POP SWAP2 SWAP1 POP JUMP JUMPDEST PUSH32 0x4E487B7100000000000000000000000000000000000000000000000000000000 PUSH1 0x0 MSTORE PUSH1 0x11 PUSH1 0x4 MSTORE PUSH1 0x24 PUSH1 0x0 REVERT JUMPDEST PUSH32 0x4E487B7100000000000000000000000000000000000000000000000000000000 PUSH1 0x0 MSTORE PUSH1 0x32 PUSH1 0x4 MSTORE PUSH1 0x24 PUSH1 0x0 REVERT JUMPDEST PUSH1 0x0 DUP1 REVERT JUMPDEST PUSH1 0x0 DUP1 REVERT JUMPDEST PUSH1 0x0 DUP1 REVERT JUMPDEST PUSH1 0x0 DUP1 REVERT JUMPDEST PUSH1 0x0 DUP1 REVERT JUMPDEST PUSH32 0x4572726F723A2052657665616C696E6720646F6573206E6F7420656E64730000 PUSH1 0x0 DUP3 ADD MSTORE POP JUMP JUMPDEST PUSH32 0x4572726F723A20537567676573746564207072696365206973206C6F77657220 PUSH1 0x0 DUP3 ADD MSTORE PUSH32 0x7468616E207468652070726576696F7573207072696365000000000000000000 PUSH1 0x20 DUP3 ADD MSTORE POP JUMP JUMPDEST PUSH32 0x4572726F723A20416C726561647920656E6465642061756374696F6E00000000 PUSH1 0x0 DUP3 ADD MSTORE POP JUMP JUMPDEST PUSH32 0x4572726F723A20596F7520617265206E6F7420746865206F776E6572206F6620 PUSH1 0x0 DUP3 ADD MSTORE PUSH32 0x746869732050726F647563740000000000000000000000000000000000000000 PUSH1 0x20 DUP3 ADD MSTORE POP JUMP JUMPDEST PUSH32 0x4572726F723A20596F7520646F6E2774206861766520656E6F756768206D6F6E PUSH1 0x0 DUP3 ADD MSTORE PUSH32 0x657920746F207061790000000000000000000000000000000000000000000000 PUSH1 0x20 DUP3 ADD MSTORE POP JUMP JUMPDEST PUSH2 0x1BDA DUP2 PUSH2 0x1924 JUMP JUMPDEST DUP2 EQ PUSH2 0x1BE5 JUMPI PUSH1 0x0 DUP1 REVERT JUMPDEST POP JUMP JUMPDEST PUSH2 0x1BF1 DUP2 PUSH2 0x1948 JUMP JUMPDEST DUP2 EQ PUSH2 0x1BFC JUMPI PUSH1 0x0 DUP1 REVERT JUMPDEST POP JUMP JUMPDEST PUSH2 0x1C08 DUP2 PUSH2 0x1954 JUMP JUMPDEST DUP2 EQ PUSH2 0x1C13 JUMPI PUSH1 0x0 DUP1 REVERT JUMPDEST POP JUMP JUMPDEST PUSH2 0x1C1F DUP2 PUSH2 0x197E JUMP JUMPDEST DUP2 EQ PUSH2 0x1C2A JUMPI PUSH1 0x0 DUP1 REVERT JUMPDEST POP JUMP INVALID LOG2 PUSH5 0x6970667358 0x22 SLT KECCAK256 0x1E 0xC8 PUSH14 0xBF474B2919AA99A9681EDD063C7E PUSH6 0xEBD0010B475B 0x5D PUSH30 0x96088ECFC8BB64736F6C6343000807003300000000000000000000000000 "
		},
		"gasEstimates": {
			"creation": {
				"codeDepositCost": "1453400",
				"executionCost": "infinite",
				"totalCost": "infinite"
			},
			"external": {
				"bid(bytes32,uint256)": "infinite",
				"bids(address,uint256)": "infinite",
				"blind_a_bid(uint256,bytes32)": "infinite",
				"endBidding(uint256)": "infinite",
				"ended()": "2539",
				"enrollProduct(uint256,uint256)": "infinite",
				"firbidEnd()": "2540",
				"firrevealEnd()": "2540",
				"first_bidding(uint256)": "infinite",
				"first_bidding_reveal()": "infinite",
				"highestBid()": "2539",
				"highestBidder()": "2536",
				"minimumPrice()": "2452",
				"owner()": "2603",
				"reservedPrice()": "2452",
				"reveal(uint256[],bytes32[])": "infinite",
				"secbidEnd()": "2495",
				"secrevealEnd()": "2519",
				"withdraw()": "infinite"
			},
			"internal": {
				"placeBid(address,uint256)": "infinite"
			}
		},
		"methodIdentifiers": {
			"bid(bytes32,uint256)": "cd772f5c",
			"bids(address,uint256)": "01495c1c",
			"blind_a_bid(uint256,bytes32)": "ba657438",
			"endBidding(uint256)": "093755ad",
			"ended()": "12fa6feb",
			"enrollProduct(uint256,uint256)": "7f5121a6",
			"firbidEnd()": "91a16c9d",
			"firrevealEnd()": "73150adf",
			"first_bidding(uint256)": "8094854e",
			"first_bidding_reveal()": "28ebf295",
			"highestBid()": "d57bde79",
			"highestBidder()": "91f90157",
			"minimumPrice()": "7f386b6c",
			"owner()": "8da5cb5b",
			"reservedPrice()": "1b55d216",
			"reveal(uint256[],bytes32[])": "4b6e66e3",
			"secbidEnd()": "c6c2d436",
			"secrevealEnd()": "1afb8302",
			"withdraw()": "3ccfd60b"
		}
	},
	"abi": [
		{
			"inputs": [
				{
					"internalType": "address",
					"name": "erc20",
					"type": "address"
				},
				{
					"internalType": "address",
					"name": "erc721",
					"type": "address"
				},
				{
					"internalType": "uint256",
					"name": "biddingTime",
					"type": "uint256"
				},
				{
					"internalType": "uint256",
					"name": "revealTime",
					"type": "uint256"
				}
			],
			"stateMutability": "nonpayable",
			"type": "constructor"
		},
		{
			"inputs": [],
			"name": "AuctionEndAlreadyCalled",
			"type": "error"
		},
		{
			"inputs": [
				{
					"internalType": "uint256",
					"name": "time",
					"type": "uint256"
				}
			],
			"name": "TooEarly",
			"type": "error"
		},
		{
			"inputs": [
				{
					"internalType": "uint256",
					"name": "time",
					"type": "uint256"
				}
			],
			"name": "TooLate",
			"type": "error"
		},
		{
			"anonymous": false,
			"inputs": [
				{
					"indexed": false,
					"internalType": "address",
					"name": "winner",
					"type": "address"
				},
				{
					"indexed": false,
					"internalType": "uint256",
					"name": "highestBid",
					"type": "uint256"
				}
			],
			"name": "EndBlindBid",
			"type": "event"
		},
		{
			"inputs": [
				{
					"internalType": "bytes32",
					"name": "blindedBid",
					"type": "bytes32"
				},
				{
					"internalType": "uint256",
					"name": "bidmoney",
					"type": "uint256"
				}
			],
			"name": "bid",
			"outputs": [],
			"stateMutability": "payable",
			"type": "function"
		},
		{
			"inputs": [
				{
					"internalType": "address",
					"name": "",
					"type": "address"
				},
				{
					"internalType": "uint256",
					"name": "",
					"type": "uint256"
				}
			],
			"name": "bids",
			"outputs": [
				{
					"internalType": "bytes32",
					"name": "blindedBid",
					"type": "bytes32"
				},
				{
					"internalType": "uint256",
					"name": "deposit",
					"type": "uint256"
				}
			],
			"stateMutability": "view",
			"type": "function"
		},
		{
			"inputs": [
				{
					"internalType": "uint256",
					"name": "value",
					"type": "uint256"
				},
				{
					"internalType": "bytes32",
					"name": "secret",
					"type": "bytes32"
				}
			],
			"name": "blind_a_bid",
			"outputs": [
				{
					"internalType": "bytes32",
					"name": "",
					"type": "bytes32"
				}
			],
			"stateMutability": "pure",
			"type": "function"
		},
		{
			"inputs": [
				{
					"internalType": "uint256",
					"name": "tokenId",
					"type": "uint256"
				}
			],
			"name": "endBidding",
			"outputs": [],
			"stateMutability": "nonpayable",
			"type": "function"
		},
		{
			"inputs": [],
			"name": "ended",
			"outputs": [
				{
					"internalType": "bool",
					"name": "",
					"type": "bool"
				}
			],
			"stateMutability": "view",
			"type": "function"
		},
		{
			"inputs": [
				{
					"internalType": "uint256",
					"name": "tokenId",
					"type": "uint256"
				},
				{
					"internalType": "uint256",
					"name": "price",
					"type": "uint256"
				}
			],
			"name": "enrollProduct",
			"outputs": [],
			"stateMutability": "nonpayable",
			"type": "function"
		},
		{
			"inputs": [],
			"name": "firbidEnd",
			"outputs": [
				{
					"internalType": "uint256",
					"name": "",
					"type": "uint256"
				}
			],
			"stateMutability": "view",
			"type": "function"
		},
		{
			"inputs": [],
			"name": "firrevealEnd",
			"outputs": [
				{
					"internalType": "uint256",
					"name": "",
					"type": "uint256"
				}
			],
			"stateMutability": "view",
			"type": "function"
		},
		{
			"inputs": [
				{
					"internalType": "uint256",
					"name": "suggestedprice",
					"type": "uint256"
				}
			],
			"name": "first_bidding",
			"outputs": [],
			"stateMutability": "nonpayable",
			"type": "function"
		},
		{
			"inputs": [],
			"name": "first_bidding_reveal",
			"outputs": [
				{
					"internalType": "uint256",
					"name": "",
					"type": "uint256"
				}
			],
			"stateMutability": "nonpayable",
			"type": "function"
		},
		{
			"inputs": [],
			"name": "highestBid",
			"outputs": [
				{
					"internalType": "uint256",
					"name": "",
					"type": "uint256"
				}
			],
			"stateMutability": "view",
			"type": "function"
		},
		{
			"inputs": [],
			"name": "highestBidder",
			"outputs": [
				{
					"internalType": "address",
					"name": "",
					"type": "address"
				}
			],
			"stateMutability": "view",
			"type": "function"
		},
		{
			"inputs": [],
			"name": "minimumPrice",
			"outputs": [
				{
					"internalType": "uint256",
					"name": "",
					"type": "uint256"
				}
			],
			"stateMutability": "view",
			"type": "function"
		},
		{
			"inputs": [],
			"name": "owner",
			"outputs": [
				{
					"internalType": "address payable",
					"name": "",
					"type": "address"
				}
			],
			"stateMutability": "view",
			"type": "function"
		},
		{
			"inputs": [],
			"name": "reservedPrice",
			"outputs": [
				{
					"internalType": "uint256",
					"name": "",
					"type": "uint256"
				}
			],
			"stateMutability": "view",
			"type": "function"
		},
		{
			"inputs": [
				{
					"internalType": "uint256[]",
					"name": "values",
					"type": "uint256[]"
				},
				{
					"internalType": "bytes32[]",
					"name": "secrets",
					"type": "bytes32[]"
				}
			],
			"name": "reveal",
			"outputs": [],
			"stateMutability": "nonpayable",
			"type": "function"
		},
		{
			"inputs": [],
			"name": "secbidEnd",
			"outputs": [
				{
					"internalType": "uint256",
					"name": "",
					"type": "uint256"
				}
			],
			"stateMutability": "view",
			"type": "function"
		},
		{
			"inputs": [],
			"name": "secrevealEnd",
			"outputs": [
				{
					"internalType": "uint256",
					"name": "",
					"type": "uint256"
				}
			],
			"stateMutability": "view",
			"type": "function"
		},
		{
			"inputs": [],
			"name": "withdraw",
			"outputs": [],
			"stateMutability": "nonpayable",
			"type": "function"
		}
	]
}